{
  "contractName": "Admin",
  "abi": [
    {
      "constant": true,
      "inputs": [],
      "name": "owner",
      "outputs": [
        {
          "name": "",
          "type": "address"
        }
      ],
      "payable": false,
      "stateMutability": "view",
      "type": "function"
    },
    {
      "constant": false,
      "inputs": [
        {
          "name": "newOwner",
          "type": "address"
        }
      ],
      "name": "transferOwnership",
      "outputs": [
        {
          "name": "",
          "type": "bool"
        }
      ],
      "payable": false,
      "stateMutability": "nonpayable",
      "type": "function"
    },
    {
      "inputs": [
        {
          "name": "_indexAddress",
          "type": "address"
        }
      ],
      "payable": false,
      "stateMutability": "nonpayable",
      "type": "constructor"
    },
    {
      "anonymous": false,
      "inputs": [
        {
          "indexed": true,
          "name": "previousOwner",
          "type": "address"
        },
        {
          "indexed": true,
          "name": "newOwner",
          "type": "address"
        }
      ],
      "name": "OwnershipTransferred",
      "type": "event"
    },
    {
      "constant": false,
      "inputs": [
        {
          "name": "_address",
          "type": "address"
        },
        {
          "name": "_id",
          "type": "uint256"
        }
      ],
      "name": "updateAdmin",
      "outputs": [],
      "payable": false,
      "stateMutability": "nonpayable",
      "type": "function"
    }
  ],
  "bytecode": "0x608060405234801561001057600080fd5b506040516020806104ad833981016040525160008054600160a060020a03338116600160a060020a031992831617909255600180549290931691161790556104508061005d6000396000f30060806040526004361061003d5763ffffffff60e060020a600035041663734d37dd81146100425780638da5cb5b14610068578063f2fde38b14610099575b600080fd5b34801561004e57600080fd5b50610066600160a060020a03600435166024356100ce565b005b34801561007457600080fd5b5061007d610379565b60408051600160a060020a039092168252519081900360200190f35b3480156100a557600080fd5b506100ba600160a060020a0360043516610388565b604080519115158252519081900360200190f35b6000805433600160a060020a039081169116146100ea57600080fd5b600154604080517f35817773000000000000000000000000000000000000000000000000000000008152602060048201819052600860248301527f726567697374727900000000000000000000000000000000000000000000000060448301529151600160a060020a03909316926335817773926064808401939192918290030181600087803b15801561017d57600080fd5b505af1158015610191573d6000803e3d6000fd5b505050506040513d60208110156101a757600080fd5b5051600154604080517ff2fde38b000000000000000000000000000000000000000000000000000000008152600160a060020a038781166004830152915193945091169163f2fde38b916024808201926020929091908290030181600087803b15801561021357600080fd5b505af1158015610227573d6000803e3d6000fd5b505050506040513d602081101561023d57600080fd5b5051151561024757fe5b80600160a060020a031663fa0b5e5584846040518363ffffffff1660e060020a0281526004018083600160a060020a0316600160a060020a0316815260200182815260200192505050602060405180830381600087803b1580156102aa57600080fd5b505af11580156102be573d6000803e3d6000fd5b505050506040513d60208110156102d457600080fd5b505115156102de57fe5b80600160a060020a031663bfcb9079306040518263ffffffff1660e060020a0281526004018082600160a060020a0316600160a060020a03168152602001915050602060405180830381600087803b15801561033957600080fd5b505af115801561034d573d6000803e3d6000fd5b505050506040513d602081101561036357600080fd5b5051151561036d57fe5b30600160a060020a0316ff5b600054600160a060020a031681565b6000805433600160a060020a039081169116146103a457600080fd5b600160a060020a03821615156103b957600080fd5b60008054604051600160a060020a03808616939216917f8be0079c531659141344cd1fd0a4f28419497f9722a3daafe3b4186f6b6457e091a35060008054600160a060020a03831673ffffffffffffffffffffffffffffffffffffffff1990911617905560019190505600a165627a7a723058209411c36b5b8af51def2d2de060bc6a1f09fa51faf3e95685ea513a3b8480e01d0029",
  "source": "pragma solidity ^0.4.23;\n\nimport \"./Index.sol\";\nimport \"./Registry.sol\";\nimport \"./Ownable.sol\";\n\ncontract Admin is Ownable{\n\n\tIndex index;\n\tconstructor (address _indexAddress) public{\n\t\tindex = Index(_indexAddress);\n\t}\n\n\tfunction updateAdmin (address _address,uint256 _id)public onlyOwner{\n\t\tRegistry r = Registry(index.getContract('registry'));\n\t\tassert(index.transferOwnership(_address));\n\t\tassert (r.registerUser(_address,_id));\n\t\tassert(r.pauseUser(address(this)));\n\t\tselfdestruct(address(this));\n\t}\n}\n",
  "sourcePath": "/Users/rahulgolash/Rahul/Github/baeth/contracts/Admin.sol",
  "compiler": {
    "name": "solc",
    "version": "0.4.23+commit.124ca40d.Emscripten.clang"
  },
  "schemaVersion": "2.0.0",
  "updatedAt": "2018-05-27T08:21:17.892Z"
}