{
  "contractName": "BasicToken",
  "abi": [
    {
      "constant": true,
      "inputs": [],
      "name": "totalSupply",
      "outputs": [
        {
          "name": "",
          "type": "uint256"
        }
      ],
      "payable": false,
      "stateMutability": "view",
      "type": "function"
    },
    {
      "constant": true,
      "inputs": [
        {
          "name": "",
          "type": "address"
        }
      ],
      "name": "balances",
      "outputs": [
        {
          "name": "",
          "type": "uint256"
        }
      ],
      "payable": false,
      "stateMutability": "view",
      "type": "function"
    },
    {
      "inputs": [],
      "payable": false,
      "stateMutability": "nonpayable",
      "type": "constructor"
    },
    {
      "anonymous": false,
      "inputs": [
        {
          "indexed": true,
          "name": "from",
          "type": "address"
        },
        {
          "indexed": true,
          "name": "to",
          "type": "address"
        },
        {
          "indexed": false,
          "name": "value",
          "type": "uint256"
        }
      ],
      "name": "Transfer",
      "type": "event"
    },
    {
      "constant": true,
      "inputs": [],
      "name": "balanceOf",
      "outputs": [
        {
          "name": "balance",
          "type": "uint256"
        }
      ],
      "payable": false,
      "stateMutability": "view",
      "type": "function"
    },
    {
      "constant": true,
      "inputs": [],
      "name": "getTotalSupply",
      "outputs": [
        {
          "name": "res",
          "type": "uint256"
        }
      ],
      "payable": false,
      "stateMutability": "view",
      "type": "function"
    }
  ],
  "bytecode": "0x6080604052600060015534801561001557600080fd5b50600154600160a060020a033316600090815260208190526040902055610158806100416000396000f3006080604052600436106100615763ffffffff7c010000000000000000000000000000000000000000000000000000000060003504166318160ddd811461006657806327e235e31461008d578063722713f7146100bb578063c4e41b22146100d0575b600080fd5b34801561007257600080fd5b5061007b6100e5565b60408051918252519081900360200190f35b34801561009957600080fd5b5061007b73ffffffffffffffffffffffffffffffffffffffff600435166100eb565b3480156100c757600080fd5b5061007b6100fd565b3480156100dc57600080fd5b5061007b610126565b60015481565b60006020819052908152604090205481565b73ffffffffffffffffffffffffffffffffffffffff331660009081526020819052604090205490565b600154905600a165627a7a7230582016bb8327d1238e06cee05af782f0fd6d78b8176e6bb3de9dcf033e85ce8ff23c0029",
  "source": "pragma solidity ^0.4.23;\n\nimport \"./ERC20Basic.sol\";\nimport \"./SafeMath.sol\";\nimport \"./Pauseable.sol\";\n\n\n/**\n* @title Basic token\n* @dev Basic version of StandardToken, with no allowances.\n*/\ncontract BasicToken is ERC20Basic{\n\n\tusing SafeMath for uint256;\n\n\tmapping(address => uint256) public balances;\n\tuint256 public totalSupply = 0;\n\n\tconstructor ()public{\n\t\tbalances[msg.sender] = totalSupply;\n\t}\n\n\t/**\n\t* @dev Gets the balance of the specified address.\n\t* @return An uint256 representing the amount owned by the passed address.\n\t*/\n\tfunction balanceOf() external view returns (uint256 balance) {\n\t\treturn balances[msg.sender];\n\t}\n\n\tfunction getTotalSupply () external view returns(uint256 res) {\n\t\treturn totalSupply;\n\t}\n\n}\n",
  "sourcePath": "/Users/rahulgolash/Rahul/Github/BaETH/contracts/BasicToken.sol",
  "compiler": {
    "name": "solc",
    "version": "0.4.23+commit.124ca40d.Emscripten.clang"
  },
  "schemaVersion": "2.0.0",
  "updatedAt": "2018-05-27T07:14:52.888Z"
}