{
  "contractName": "Index",
  "abi": [
    {
      "constant": false,
      "inputs": [],
      "name": "unpause",
      "outputs": [
        {
          "name": "",
          "type": "bool"
        }
      ],
      "payable": false,
      "stateMutability": "nonpayable",
      "type": "function"
    },
    {
      "constant": true,
      "inputs": [],
      "name": "paused",
      "outputs": [
        {
          "name": "",
          "type": "bool"
        }
      ],
      "payable": false,
      "stateMutability": "view",
      "type": "function"
    },
    {
      "constant": false,
      "inputs": [],
      "name": "pause",
      "outputs": [
        {
          "name": "",
          "type": "bool"
        }
      ],
      "payable": false,
      "stateMutability": "nonpayable",
      "type": "function"
    },
    {
      "constant": true,
      "inputs": [],
      "name": "owner",
      "outputs": [
        {
          "name": "",
          "type": "address"
        }
      ],
      "payable": false,
      "stateMutability": "view",
      "type": "function"
    },
    {
      "constant": false,
      "inputs": [
        {
          "name": "newOwner",
          "type": "address"
        }
      ],
      "name": "transferOwnership",
      "outputs": [
        {
          "name": "",
          "type": "bool"
        }
      ],
      "payable": false,
      "stateMutability": "nonpayable",
      "type": "function"
    },
    {
      "inputs": [],
      "payable": false,
      "stateMutability": "nonpayable",
      "type": "constructor"
    },
    {
      "anonymous": false,
      "inputs": [
        {
          "indexed": false,
          "name": "caddress",
          "type": "address"
        }
      ],
      "name": "newContractAdded",
      "type": "event"
    },
    {
      "anonymous": false,
      "inputs": [
        {
          "indexed": false,
          "name": "uaddress",
          "type": "address"
        }
      ],
      "name": "updatedContractAddress",
      "type": "event"
    },
    {
      "anonymous": false,
      "inputs": [
        {
          "indexed": false,
          "name": "addess",
          "type": "address"
        },
        {
          "indexed": false,
          "name": "paused",
          "type": "bool"
        }
      ],
      "name": "SetPaused",
      "type": "event"
    },
    {
      "anonymous": false,
      "inputs": [
        {
          "indexed": true,
          "name": "previousOwner",
          "type": "address"
        },
        {
          "indexed": true,
          "name": "newOwner",
          "type": "address"
        }
      ],
      "name": "OwnershipTransferred",
      "type": "event"
    },
    {
      "constant": false,
      "inputs": [
        {
          "name": "_contractName",
          "type": "string"
        },
        {
          "name": "_address",
          "type": "address"
        }
      ],
      "name": "updateContract",
      "outputs": [
        {
          "name": "res",
          "type": "bool"
        }
      ],
      "payable": false,
      "stateMutability": "nonpayable",
      "type": "function"
    },
    {
      "constant": true,
      "inputs": [
        {
          "name": "_contractName",
          "type": "string"
        }
      ],
      "name": "getContract",
      "outputs": [
        {
          "name": "res",
          "type": "address"
        }
      ],
      "payable": false,
      "stateMutability": "view",
      "type": "function"
    },
    {
      "constant": true,
      "inputs": [
        {
          "name": "_address",
          "type": "address"
        },
        {
          "name": "_contractName",
          "type": "string"
        }
      ],
      "name": "checkContract",
      "outputs": [
        {
          "name": "res",
          "type": "bool"
        }
      ],
      "payable": false,
      "stateMutability": "view",
      "type": "function"
    }
  ],
  "bytecode": "0x60806040526000805460a060020a60ff021916905534801561002057600080fd5b5060008054600160a060020a033316600160a060020a0319918216179091556002805461ffff19166001908117909155604080517f726567697374727953000000000000000000000000000000000000000000000081526009810183905281519081900360290181208054851690557f726567697374727900000000000000000000000000000000000000000000000081526008810183905281519081900360280181208054851690557f746f6b656e53000000000000000000000000000000000000000000000000000081526006810183905281519081900360260181208054851690557f746f6b656e00000000000000000000000000000000000000000000000000000081526005808201849052825191829003602590810183208054871690557f6c6f616e5300000000000000000000000000000000000000000000000000000083529082018490528251918290030181208054851690557f6c6f616e000000000000000000000000000000000000000000000000000000008152600481019290925251908190036024019020805490911690556107b5806101c66000396000f30060806040526004361061008d5763ffffffff7c01000000000000000000000000000000000000000000000000000000006000350416633581777381146100925780633f4ba83a146101075780635c975abb14610130578063697a60b3146101455780638456cb59146101a95780638da5cb5b146101be578063b513b7a5146101d3578063f2fde38b1461023a575b600080fd5b34801561009e57600080fd5b506040805160206004803580820135601f81018490048402850184019095528484526100eb94369492936024939284019190819084018382808284375094975061025b9650505050505050565b60408051600160a060020a039092168252519081900360200190f35b34801561011357600080fd5b5061011c610335565b604080519115158252519081900360200190f35b34801561013c57600080fd5b5061011c6103dd565b34801561015157600080fd5b506040805160206004803580820135601f810184900484028501840190955284845261011c94369492936024939284019190819084018382808284375094975050509235600160a060020a031693506103ed92505050565b3480156101b557600080fd5b5061011c610537565b3480156101ca57600080fd5b506100eb6105e3565b3480156101df57600080fd5b5060408051602060046024803582810135601f810185900485028601850190965285855261011c958335600160a060020a03169536956044949193909101919081908401838280828437509497506105f29650505050505050565b34801561024657600080fd5b5061011c600160a060020a03600435166106ed565b6000805460609060a060020a900460ff161561027657600080fd5b82905080600081518110151561028857fe5b60209101015160f860020a90819004027fff000000000000000000000000000000000000000000000000000000000000001615156102c557600080fd5b6001836040518082805190602001908083835b602083106102f75780518252601f1990920191602091820191016102d8565b51815160209384036101000a6000190180199092169116179052920194855250604051938490030190922054600160a060020a031695945050505050565b6000805433600160a060020a0390811691161461035157600080fd5b60005460a060020a900460ff16151561036957600080fd5b6000805474ff000000000000000000000000000000000000000019169081905560408051600160a060020a033316815260a060020a90920460ff161515602083015280517ff88ee2637902cfb91c9c1a679376e4e16841e94340c1961c4e280a565a2b7b309281900390910190a150600190565b60005460a060020a900460ff1681565b6000805460609033600160a060020a0390811691161461040c57600080fd5b60005460a060020a900460ff161561042357600080fd5b83905080600081518110151561043557fe5b60209101015160f860020a90819004027fff0000000000000000000000000000000000000000000000000000000000000016151561047257600080fd5b826001856040518082805190602001908083835b602083106104a55780518252601f199092019160209182019101610486565b51815160209384036101000a6000190180199092169116179052920194855250604080519485900382018520805473ffffffffffffffffffffffffffffffffffffffff1916600160a060020a03978816179055948816845293517fae8ac72757dc8f6e8fcdf702fa86a71eeaa5f07211302fc6b5a4d6142a00f176949381900390930192915050a15060019392505050565b6000805433600160a060020a0390811691161461055357600080fd5b60005460a060020a900460ff161561056a57600080fd5b6000805474ff0000000000000000000000000000000000000000191660a060020a9081179182905560408051600160a060020a03331681529190920460ff161515602082015281517ff88ee2637902cfb91c9c1a679376e4e16841e94340c1961c4e280a565a2b7b30929181900390910190a150600190565b600054600160a060020a031681565b60008054606090829060a060020a900460ff161561060f57600080fd5b83915081600081518110151561062157fe5b60209101015160f860020a90819004027fff0000000000000000000000000000000000000000000000000000000000000016151561065e57600080fd5b6001846040518082805190602001908083835b602083106106905780518252601f199092019160209182019101610671565b51815160209384036101000a6000190180199092169116179052920194855250604051938490030190922054600160a060020a0390811693508716831491505080156106e45750600160a060020a03811615155b95945050505050565b6000805433600160a060020a0390811691161461070957600080fd5b600160a060020a038216151561071e57600080fd5b60008054604051600160a060020a03808616939216917f8be0079c531659141344cd1fd0a4f28419497f9722a3daafe3b4186f6b6457e091a35060008054600160a060020a03831673ffffffffffffffffffffffffffffffffffffffff1990911617905560019190505600a165627a7a7230582047a8514fe81f18c83dc96b56a7a0f39c5dd54f2dac553ad62634c86cb0e59d2a0029",
  "source": "pragma solidity ^0.4.23;\n\n\nimport \"./Pauseable.sol\";\n\n\n/**\n* @title IndexContract\n* The index contract keeps track of all the contracts with their respective addresses\n*/\ncontract Index is Pauseable{\n\tmapping (string => address) private contractMapping;\n\tuint16 private version;\n\n\t// mapping (address => bool) active; // for maintaining internal(contract address check)\n\t\n\t\n\tconstructor () public {\n\t\tversion = 1;\n\t\tcontractMapping['registryS']    = 0x0;\n\t\tcontractMapping['registry']     = 0x0;\n\t\tcontractMapping['tokenS']       = 0x0;\n\t\tcontractMapping['token']        = 0x0;\n\t\tcontractMapping['loanS']        = 0x0;\n\t\tcontractMapping['loan']         = 0x0;\n\t}\n\n\tevent newContractAdded(address caddress);\n\tevent updatedContractAddress(address uaddress);\t\n\n\tfunction updateContract (string _contractName,address _address) public onlyOwner whenNotPaused returns(bool res) {\n\t\tbytes memory b = bytes(_contractName);\n\t\trequire(b[0] != 0);\n\t\t// active[getContract(_contractName)] = false;\n\t\t// active[_address] = true;\n\t\tcontractMapping[_contractName] = _address;\n\t\temit updatedContractAddress(_address);\n\t\treturn true;\n\t}\n\t\n\tfunction getContract (string _contractName) public view whenNotPaused returns(address res) {\n\t\tbytes memory b = bytes(_contractName);\n\t\trequire(b[0] != 0);\n\t\t//assert(b.length > 0);\n\t\treturn contractMapping[_contractName];\n\t}\n\n\tfunction checkContract (address _address,string _contractName) public view whenNotPaused returns(bool res){\n\t\tbytes memory b = bytes(_contractName);\n\t\trequire(b[0] != 0);\n\t\t//assert(b.length > 0);\n\t\taddress temp = contractMapping[_contractName];\n\t\treturn _address == temp && temp != 0x0;\n\t}\n\n\t/* function isInternal (address _address) public returns(bool res){\n\t\treturn active[msg.sender];\n\t} */\n\t\n}",
  "sourcePath": "/Users/rahulgolash/Rahul/Github/BaETH/contracts/Index.sol",
  "compiler": {
    "name": "solc",
    "version": "0.4.23+commit.124ca40d.Emscripten.clang"
  },
  "schemaVersion": "2.0.0",
  "updatedAt": "2018-05-27T07:16:30.499Z"
}