{
  "contractName": "Loan",
  "abi": [
    {
      "inputs": [
        {
          "name": "_indexAddress",
          "type": "address"
        }
      ],
      "payable": false,
      "stateMutability": "nonpayable",
      "type": "constructor"
    },
    {
      "constant": false,
      "inputs": [
        {
          "name": "_address",
          "type": "address"
        },
        {
          "name": "_fields",
          "type": "uint256[4]"
        },
        {
          "name": "_loanId",
          "type": "uint256"
        }
      ],
      "name": "grantLoan",
      "outputs": [
        {
          "name": "res",
          "type": "bool"
        }
      ],
      "payable": false,
      "stateMutability": "nonpayable",
      "type": "function"
    },
    {
      "constant": false,
      "inputs": [
        {
          "name": "_address",
          "type": "address"
        },
        {
          "name": "_fields",
          "type": "uint256[4]"
        }
      ],
      "name": "repayLoanByBank",
      "outputs": [
        {
          "name": "res",
          "type": "bool"
        }
      ],
      "payable": false,
      "stateMutability": "nonpayable",
      "type": "function"
    },
    {
      "constant": false,
      "inputs": [
        {
          "name": "_address",
          "type": "address"
        },
        {
          "name": "_fields",
          "type": "uint256[4]"
        }
      ],
      "name": "repayLoanByTokens",
      "outputs": [
        {
          "name": "res",
          "type": "bool"
        }
      ],
      "payable": false,
      "stateMutability": "nonpayable",
      "type": "function"
    },
    {
      "constant": false,
      "inputs": [
        {
          "name": "_address",
          "type": "address"
        },
        {
          "name": "_amount",
          "type": "uint256"
        }
      ],
      "name": "updateEligibility",
      "outputs": [
        {
          "name": "res",
          "type": "bool"
        }
      ],
      "payable": false,
      "stateMutability": "nonpayable",
      "type": "function"
    },
    {
      "constant": false,
      "inputs": [
        {
          "name": "_address",
          "type": "address"
        },
        {
          "name": "_penalty",
          "type": "uint256"
        },
        {
          "name": "_loanId",
          "type": "uint256"
        }
      ],
      "name": "addPenalty",
      "outputs": [
        {
          "name": "res",
          "type": "bool"
        }
      ],
      "payable": false,
      "stateMutability": "nonpayable",
      "type": "function"
    },
    {
      "constant": false,
      "inputs": [
        {
          "name": "_address",
          "type": "address"
        },
        {
          "name": "_loanId",
          "type": "uint256"
        }
      ],
      "name": "waivePenalty",
      "outputs": [
        {
          "name": "res",
          "type": "bool"
        }
      ],
      "payable": false,
      "stateMutability": "nonpayable",
      "type": "function"
    },
    {
      "constant": true,
      "inputs": [
        {
          "name": "_address",
          "type": "address"
        },
        {
          "name": "_loanId",
          "type": "uint256"
        }
      ],
      "name": "getPenalty",
      "outputs": [
        {
          "name": "res",
          "type": "uint256"
        }
      ],
      "payable": false,
      "stateMutability": "view",
      "type": "function"
    },
    {
      "constant": false,
      "inputs": [
        {
          "name": "_address",
          "type": "address"
        },
        {
          "name": "_amount",
          "type": "uint256"
        }
      ],
      "name": "addFrozenAmount",
      "outputs": [
        {
          "name": "res",
          "type": "bool"
        }
      ],
      "payable": false,
      "stateMutability": "nonpayable",
      "type": "function"
    },
    {
      "constant": false,
      "inputs": [
        {
          "name": "_address",
          "type": "address"
        },
        {
          "name": "_amount",
          "type": "uint256"
        }
      ],
      "name": "subFrozenAmount",
      "outputs": [
        {
          "name": "res",
          "type": "bool"
        }
      ],
      "payable": false,
      "stateMutability": "nonpayable",
      "type": "function"
    },
    {
      "constant": true,
      "inputs": [
        {
          "name": "_address",
          "type": "address"
        }
      ],
      "name": "getFrozenAmount",
      "outputs": [
        {
          "name": "res",
          "type": "uint256"
        }
      ],
      "payable": false,
      "stateMutability": "view",
      "type": "function"
    },
    {
      "constant": false,
      "inputs": [
        {
          "name": "_address",
          "type": "address"
        },
        {
          "name": "_loanId",
          "type": "uint256"
        }
      ],
      "name": "setOverdueFlag",
      "outputs": [
        {
          "name": "res",
          "type": "bool"
        }
      ],
      "payable": false,
      "stateMutability": "nonpayable",
      "type": "function"
    },
    {
      "constant": false,
      "inputs": [
        {
          "name": "_address",
          "type": "address"
        },
        {
          "name": "_loanId",
          "type": "uint256"
        }
      ],
      "name": "setClosedFlag",
      "outputs": [
        {
          "name": "res",
          "type": "bool"
        }
      ],
      "payable": false,
      "stateMutability": "nonpayable",
      "type": "function"
    },
    {
      "constant": false,
      "inputs": [
        {
          "name": "_address",
          "type": "address"
        },
        {
          "name": "_loanId",
          "type": "uint256"
        },
        {
          "name": "_amount",
          "type": "uint256"
        }
      ],
      "name": "setOverdueAndFreeze",
      "outputs": [
        {
          "name": "res",
          "type": "bool"
        }
      ],
      "payable": false,
      "stateMutability": "nonpayable",
      "type": "function"
    },
    {
      "constant": true,
      "inputs": [
        {
          "name": "_address",
          "type": "address"
        },
        {
          "name": "_loanId",
          "type": "uint256"
        }
      ],
      "name": "isLoanOverDue",
      "outputs": [
        {
          "name": "res",
          "type": "bool"
        }
      ],
      "payable": false,
      "stateMutability": "view",
      "type": "function"
    },
    {
      "constant": true,
      "inputs": [
        {
          "name": "_address",
          "type": "address"
        },
        {
          "name": "_loanId",
          "type": "uint256"
        }
      ],
      "name": "isLoanClosed",
      "outputs": [
        {
          "name": "res",
          "type": "bool"
        }
      ],
      "payable": false,
      "stateMutability": "view",
      "type": "function"
    },
    {
      "constant": true,
      "inputs": [
        {
          "name": "_address",
          "type": "address"
        },
        {
          "name": "_loanId",
          "type": "uint256"
        }
      ],
      "name": "getLoanDetails",
      "outputs": [
        {
          "name": "",
          "type": "uint256[5]"
        }
      ],
      "payable": false,
      "stateMutability": "view",
      "type": "function"
    },
    {
      "constant": true,
      "inputs": [
        {
          "name": "_address",
          "type": "address"
        }
      ],
      "name": "getLoanProfile",
      "outputs": [
        {
          "name": "",
          "type": "uint256[4]"
        }
      ],
      "payable": false,
      "stateMutability": "view",
      "type": "function"
    }
  ],
  "bytecode": "0x608060405234801561001057600080fd5b50604051602080613c118339810160405251600160a060020a038116151561003757600080fd5b60008054600160a060020a03909216600160a060020a0319909216919091179055613baa806100676000396000f3006080604052600436106100d75763ffffffff60e060020a600035041663208505a581146100dc57806322177e231461010f5780632e47efa61461014757806330011bcd1461016b5780633521560c1461018f578063514a9c1a146101df57806354afc5d0146102065780636566b6a61461022d578063734b298c1461025157806377a0c285146102aa57806379ce03b5146102ce5780638a95fee8146102f2578063a1dc2f0514610316578063c625c1801461033a578063d13d5e5614610388578063d704fc9c146103c1578063e9f7f9d21461040f575b600080fd5b3480156100e857600080fd5b506100fd600160a060020a0360043516610433565b60408051918252519081900360200190f35b34801561011b57600080fd5b50610133600160a060020a036004351660243561055e565b604080519115158252519081900360200190f35b34801561015357600080fd5b50610133600160a060020a0360043516602435610986565b34801561017757600080fd5b506100fd600160a060020a0360043516602435610be2565b34801561019b57600080fd5b506040805160808082019092526101339160048035600160a060020a031692369260a4919060249084908390839080828437509396505092359350610e3492505050565b3480156101eb57600080fd5b50610133600160a060020a036004351660243560443561138e565b34801561021257600080fd5b50610133600160a060020a03600435166024356044356116fc565b34801561023957600080fd5b50610133600160a060020a0360043516602435611a96565b34801561025d57600080fd5b50610272600160a060020a0360043516611cbc565b6040518082608080838360005b8381101561029757818101518382015260200161027f565b5050505090500191505060405180910390f35b3480156102b657600080fd5b50610133600160a060020a0360043516602435612203565b3480156102da57600080fd5b50610133600160a060020a036004351660243561230a565b3480156102fe57600080fd5b50610133600160a060020a0360043516602435612411565b34801561032257600080fd5b50610133600160a060020a0360043516602435612630565b34801561034657600080fd5b506040805160808082019092526101339160048035600160a060020a031692369260a49190602490849083908390808284375093965061285695505050505050565b34801561039457600080fd5b506103ac600160a060020a0360043516602435612c26565b60405181518152808260a0808383602061027f565b3480156103cd57600080fd5b506040805160808082019092526101339160048035600160a060020a031692369260a49190602490849083908390808284375093965061321195505050505050565b34801561041b57600080fd5b50610133600160a060020a03600435166024356135b4565b600080546040805160e060020a63358177730281526020600482018190526005602483015260d860020a646c6f616e530260448301529151600160a060020a039093169263358177739260648084019391929182900301818787803b15801561049b57600080fd5b505af11580156104af573d6000803e3d6000fd5b505050506040513d60208110156104c557600080fd5b5051604080517f208505a5000000000000000000000000000000000000000000000000000000008152600160a060020a0385811660048301529151919092169163208505a59160248083019260209291908290030181600087803b15801561052c57600080fd5b505af1158015610540573d6000803e3d6000fd5b505050506040513d602081101561055657600080fd5b505192915050565b600080546040805160e060020a633581777302815260206004820181905260086024830152600080516020613b5f83398151915260448301529151849384938493600160a060020a0390921692633581777392606480820193929182900301818787803b1580156105ce57600080fd5b505af11580156105e2573d6000803e3d6000fd5b505050506040513d60208110156105f857600080fd5b50516040805160e060020a6332e5c16d028152600160a060020a033381166004830152915191909216916332e5c16d9160248083019260209291908290030181600087803b15801561064957600080fd5b505af115801561065d573d6000803e3d6000fd5b505050506040513d602081101561067357600080fd5b5051151561068057600080fd5b600080546040805160e060020a63358177730281526020600482018190526005602483015260d860020a646c6f616e530260448301529151600160a060020a0390931693633581777393606480840194939192918390030190829087803b1580156106ea57600080fd5b505af11580156106fe573d6000803e3d6000fd5b505050506040513d602081101561071457600080fd5b50516040805160e060020a63a692d785028152600160a060020a03898116600483015260248201899052915192955084929186169163a692d785916044808201926020929091908290030181600087803b15801561077157600080fd5b505af1158015610785573d6000803e3d6000fd5b505050506040513d602081101561079b57600080fd5b505114156107a557fe5b82600160a060020a031663024769a18785600160a060020a03166330011bcd8a8a6040518363ffffffff1660e060020a0281526004018083600160a060020a0316600160a060020a0316815260200182815260200192505050602060405180830381600087803b15801561081857600080fd5b505af115801561082c573d6000803e3d6000fd5b505050506040513d602081101561084257600080fd5b50516040805160e060020a63ffffffff8616028152600160a060020a03909316600484015260248301919091525160448083019260209291908290030181600087803b15801561089157600080fd5b505af11580156108a5573d6000803e3d6000fd5b505050506040513d60208110156108bb57600080fd5b5051604080517fd497f1f5000000000000000000000000000000000000000000000000000000008152600160a060020a03898116600483015260016024830152604482018990529151929350610972929186169163d497f1f5916064808201926020929091908290030181600087803b15801561093757600080fd5b505af115801561094b573d6000803e3d6000fd5b505050506040513d602081101561096157600080fd5b50518215159063ffffffff6137d316565b151561097a57fe5b50600195945050505050565b600080546040805160e060020a633581777302815260206004820181905260086024830152600080516020613b5f83398151915260448301529151600160a060020a039093169263358177739260648084019391929182900301818787803b1580156109f157600080fd5b505af1158015610a05573d6000803e3d6000fd5b505050506040513d6020811015610a1b57600080fd5b50516040805160e060020a6332e5c16d028152600160a060020a033381166004830152915191909216916332e5c16d9160248083019260209291908290030181600087803b158015610a6c57600080fd5b505af1158015610a80573d6000803e3d6000fd5b505050506040513d6020811015610a9657600080fd5b50511515610aa357600080fd5b600080546040805160e060020a63358177730281526020600482018190526005602483015260d860020a646c6f616e530260448301529151600160a060020a0390931693633581777393606480840194939192918390030190829087803b158015610b0d57600080fd5b505af1158015610b21573d6000803e3d6000fd5b505050506040513d6020811015610b3757600080fd5b5051604080517f2e47efa6000000000000000000000000000000000000000000000000000000008152600160a060020a0386811660048301526024820186905291519190921691632e47efa69160448083019260209291908290030181600087803b158015610ba557600080fd5b505af1158015610bb9573d6000803e3d6000fd5b505050506040513d6020811015610bcf57600080fd5b50511515610bd957fe5b50600192915050565b600080546040805160e060020a633581777302815260206004820181905260086024830152600080516020613b5f83398151915260448301529151600160a060020a039093169263358177739260648084019391929182900301818787803b158015610c4d57600080fd5b505af1158015610c61573d6000803e3d6000fd5b505050506040513d6020811015610c7757600080fd5b50516040805160e060020a6332e5c16d028152600160a060020a033381166004830152915191909216916332e5c16d9160248083019260209291908290030181600087803b158015610cc857600080fd5b505af1158015610cdc573d6000803e3d6000fd5b505050506040513d6020811015610cf257600080fd5b50511515610cff57600080fd5b600080546040805160e060020a63358177730281526020600482018190526005602483015260d860020a646c6f616e530260448301529151600160a060020a0390931693633581777393606480840194939192918390030190829087803b158015610d6957600080fd5b505af1158015610d7d573d6000803e3d6000fd5b505050506040513d6020811015610d9357600080fd5b5051604080517f30011bcd000000000000000000000000000000000000000000000000000000008152600160a060020a03868116600483015260248201869052915191909216916330011bcd9160448083019260209291908290030181600087803b158015610e0157600080fd5b505af1158015610e15573d6000803e3d6000fd5b505050506040513d6020811015610e2b57600080fd5b50519392505050565b600080546040805160e060020a633581777302815260206004820181905260086024830152600080516020613b5f8339815191526044830152915184938493849384938493600160a060020a0316926335817773926064808201939182900301818787803b158015610ea557600080fd5b505af1158015610eb9573d6000803e3d6000fd5b505050506040513d6020811015610ecf57600080fd5b50516040805160e060020a6332e5c16d028152600160a060020a033381166004830152915191909216916332e5c16d9160248083019260209291908290030181600087803b158015610f2057600080fd5b505af1158015610f34573d6000803e3d6000fd5b505050506040513d6020811015610f4a57600080fd5b50511515610f5757600080fd5b600080546040805160e060020a63358177730281526020600482018190526005602483015260d860020a646c6f616e530260448301529151600160a060020a0390931693633581777393606480840194939192918390030190829087803b158015610fc157600080fd5b505af1158015610fd5573d6000803e3d6000fd5b505050506040513d6020811015610feb57600080fd5b50516040805160e060020a63a692d785028152600160a060020a038c81166004830152602482018b9052915192975086929188169163a692d785916044808201926020929091908290030181600087803b15801561104857600080fd5b505af115801561105c573d6000803e3d6000fd5b505050506040513d602081101561107257600080fd5b50511461107b57fe5b600080546040805160e060020a633581777302815260206004820181905260086024830152600080516020613b5f83398151915260448301529151600160a060020a0390931693633581777393606480840194939192918390030190829087803b1580156110e857600080fd5b505af11580156110fc573d6000803e3d6000fd5b505050506040513d602081101561111257600080fd5b5051600080546040805160e060020a6335817773028152602060048201819052600560248301527f746f6b656e00000000000000000000000000000000000000000000000000000060448301529151949750600160a060020a03909216936335817773936064808501948390030190829087803b15801561119257600080fd5b505af11580156111a6573d6000803e3d6000fd5b505050506040513d60208110156111bc57600080fd5b50516040805160e160020a630531fd65028152600160a060020a038c81166004830152915192945090851691630a63faca916024808201926020929091908290030181600087803b15801561121057600080fd5b505af1158015611224573d6000803e3d6000fd5b505050506040513d602081101561123a57600080fd5b505160208901518951919250611255918315159111156137d3565b90506112c5600160a060020a03861663664e641f8b8b60035b60200201516040518363ffffffff1660e060020a0281526004018083600160a060020a0316600160a060020a0316815260200182815260200192505050602060405180830381600087803b15801561093757600080fd5b905061135a85600160a060020a031663fd5ab99d8b8b8b6040518463ffffffff1660e060020a0281526004018084600160a060020a0316600160a060020a0316815260200183600460200280838360005b8381101561132e578181015183820152602001611316565b505050509050018281526020019350505050602060405180830381600087803b15801561093757600080fd5b9050611377600160a060020a03831663d507b6f78b8b600161126e565b151561137f57fe5b50600198975050505050505050565b600080546040805160e060020a633581777302815260206004820181905260086024830152600080516020613b5f83398151915260448301529151849384938493600160a060020a0390921692633581777392606480820193929182900301818787803b1580156113fe57600080fd5b505af1158015611412573d6000803e3d6000fd5b505050506040513d602081101561142857600080fd5b50516040805160e060020a6332e5c16d028152600160a060020a033381166004830152915191909216916332e5c16d9160248083019260209291908290030181600087803b15801561147957600080fd5b505af115801561148d573d6000803e3d6000fd5b505050506040513d60208110156114a357600080fd5b505115156114b057600080fd5b600080546040805160e060020a63358177730281526020600482018190526005602483015260d860020a646c6f616e530260448301529151600160a060020a0390931693633581777393606480840194939192918390030190829087803b15801561151a57600080fd5b505af115801561152e573d6000803e3d6000fd5b505050506040513d602081101561154457600080fd5b50516040805160e060020a63a692d785028152600160a060020a038a8116600483015260248201899052915192955084929186169163a692d785916044808201926020929091908290030181600087803b1580156115a157600080fd5b505af11580156115b5573d6000803e3d6000fd5b505050506040513d60208110156115cb57600080fd5b505114156115d557fe5b604080517f514a9c1a000000000000000000000000000000000000000000000000000000008152600160a060020a038981166004830152602482018990526044820188905291519185169163514a9c1a916064808201926020929091908290030181600087803b15801561164857600080fd5b505af115801561165c573d6000803e3d6000fd5b505050506040513d602081101561167257600080fd5b5051604080517ff687df0e000000000000000000000000000000000000000000000000000000008152600160a060020a038a81166004830152602482018a905291519293506116e7929186169163f687df0e916044808201926020929091908290030181600087803b15801561093757600080fd5b15156116ef57fe5b5060019695505050505050565b600080546040805160e060020a633581777302815260206004820181905260086024830152600080516020613b5f83398151915260448301529151600160a060020a039093169263358177739260648084019391929182900301818787803b15801561176757600080fd5b505af115801561177b573d6000803e3d6000fd5b505050506040513d602081101561179157600080fd5b50516040805160e060020a6332e5c16d028152600160a060020a033381166004830152915191909216916332e5c16d9160248083019260209291908290030181600087803b1580156117e257600080fd5b505af11580156117f6573d6000803e3d6000fd5b505050506040513d602081101561180c57600080fd5b5051151561181957600080fd5b600080546040805160e060020a63358177730281526020600482018190526005602483015260d860020a646c6f616e530260448301529151600160a060020a0390931693633581777393606480840194939192918390030190829087803b15801561188357600080fd5b505af1158015611897573d6000803e3d6000fd5b505050506040513d60208110156118ad57600080fd5b5051604080517fddf03c2e000000000000000000000000000000000000000000000000000000008152600160a060020a03878116600483015260248201879052600260448301529151919092169163ddf03c2e9160648083019260209291908290030181600087803b15801561192257600080fd5b505af1158015611936573d6000803e3d6000fd5b505050506040513d602081101561194c57600080fd5b5051151561195657fe5b600080546040805160e060020a63358177730281526020600482018190526005602483015260d860020a646c6f616e530260448301529151600160a060020a0390931693633581777393606480840194939192918390030190829087803b1580156119c057600080fd5b505af11580156119d4573d6000803e3d6000fd5b505050506040513d60208110156119ea57600080fd5b5051604080517f8a95fee8000000000000000000000000000000000000000000000000000000008152600160a060020a0387811660048301526024820186905291519190921691638a95fee89160448083019260209291908290030181600087803b158015611a5857600080fd5b505af1158015611a6c573d6000803e3d6000fd5b505050506040513d6020811015611a8257600080fd5b50511515611a8c57fe5b5060019392505050565b600080546040805160e060020a633581777302815260206004820181905260086024830152600080516020613b5f83398151915260448301529151600160a060020a039093169263358177739260648084019391929182900301818787803b158015611b0157600080fd5b505af1158015611b15573d6000803e3d6000fd5b505050506040513d6020811015611b2b57600080fd5b50516040805160e060020a6332e5c16d028152600160a060020a033381166004830152915191909216916332e5c16d9160248083019260209291908290030181600087803b158015611b7c57600080fd5b505af1158015611b90573d6000803e3d6000fd5b505050506040513d6020811015611ba657600080fd5b50511515611bb357600080fd5b600080546040805160e060020a63358177730281526020600482018190526005602483015260d860020a646c6f616e530260448301529151600160a060020a0390931693633581777393606480840194939192918390030190829087803b158015611c1d57600080fd5b505af1158015611c31573d6000803e3d6000fd5b505050506040513d6020811015611c4757600080fd5b5051604080517fddf03c2e000000000000000000000000000000000000000000000000000000008152600160a060020a03868116600483015260248201869052600360448301529151919092169163ddf03c2e9160648083019260209291908290030181600087803b158015610ba557600080fd5b611cc4613b20565b6000611cce613b20565b600080546040805160e060020a633581777302815260206004820181905260086024830152600080516020613b5f83398151915260448301529151600160a060020a039093169263358177739260648084019391929182900301818787803b158015611d3957600080fd5b505af1158015611d4d573d6000803e3d6000fd5b505050506040513d6020811015611d6357600080fd5b50516040805160e060020a6332e5c16d028152600160a060020a033381166004830152915191909216916332e5c16d9160248083019260209291908290030181600087803b158015611db457600080fd5b505af1158015611dc8573d6000803e3d6000fd5b505050506040513d6020811015611dde57600080fd5b50511515611deb57600080fd5b600080546040805160e060020a633581777302815260206004820181905260086024830152600080516020613b5f83398151915260448301529151600160a060020a0390931693633581777393606480840194939192918390030190829087803b158015611e5857600080fd5b505af1158015611e6c573d6000803e3d6000fd5b505050506040513d6020811015611e8257600080fd5b50516040805160e160020a630531fd65028152600160a060020a038881166004830152915192955090851691630a63faca916024808201926020929091908290030181600087803b158015611ed657600080fd5b505af1158015611eea573d6000803e3d6000fd5b505050506040513d6020811015611f0057600080fd5b50511515611f0d57600080fd5b600080546040805160e060020a63358177730281526020600482018190526005602483015260d860020a646c6f616e530260448301529151600160a060020a0390931693633581777393606480840194939192918390030190829087803b158015611f7757600080fd5b505af1158015611f8b573d6000803e3d6000fd5b505050506040513d6020811015611fa157600080fd5b5051604080517fdca11ab8000000000000000000000000000000000000000000000000000000008152600160a060020a03888116600483015291519293509083169163dca11ab8916024808201926020929091908290030181600087803b15801561200b57600080fd5b505af115801561201f573d6000803e3d6000fd5b505050506040513d602081101561203557600080fd5b50518252604080517f3ed7183c000000000000000000000000000000000000000000000000000000008152600160a060020a038781166004830152915191831691633ed7183c916024808201926020929091908290030181600087803b15801561209e57600080fd5b505af11580156120b2573d6000803e3d6000fd5b505050506040513d60208110156120c857600080fd5b5051602080840191909152604080517f3dd1b352000000000000000000000000000000000000000000000000000000008152600160a060020a038881166004830152915191841692633dd1b352926024808401938290030181600087803b15801561213257600080fd5b505af1158015612146573d6000803e3d6000fd5b505050506040513d602081101561215c57600080fd5b505160408084019190915280517fa00cb14b000000000000000000000000000000000000000000000000000000008152600160a060020a03878116600483015291519183169163a00cb14b916024808201926020929091908290030181600087803b1580156121ca57600080fd5b505af11580156121de573d6000803e3d6000fd5b505050506040513d60208110156121f457600080fd5b50516060830152509392505050565b600080546040805160e060020a63358177730281526020600482018190526005602483015260d860020a646c6f616e530260448301529151600160a060020a039093169263358177739260648084019391929182900301818787803b15801561226b57600080fd5b505af115801561227f573d6000803e3d6000fd5b505050506040513d602081101561229557600080fd5b5051604080517f1709079e000000000000000000000000000000000000000000000000000000008152600160a060020a038681166004830152602482018690526003604483015291519190921691631709079e9160648083019260209291908290030181600087803b158015610ba557600080fd5b600080546040805160e060020a63358177730281526020600482018190526005602483015260d860020a646c6f616e530260448301529151600160a060020a039093169263358177739260648084019391929182900301818787803b15801561237257600080fd5b505af1158015612386573d6000803e3d6000fd5b505050506040513d602081101561239c57600080fd5b5051604080517f1709079e000000000000000000000000000000000000000000000000000000008152600160a060020a038681166004830152602482018690526002604483015291519190921691631709079e9160648083019260209291908290030181600087803b158015610ba557600080fd5b600080546040805160e060020a633581777302815260206004820181905260086024830152600080516020613b5f83398151915260448301529151600160a060020a039093169263358177739260648084019391929182900301818787803b15801561247c57600080fd5b505af1158015612490573d6000803e3d6000fd5b505050506040513d60208110156124a657600080fd5b50516040805160e060020a6332e5c16d028152600160a060020a033381166004830152915191909216916332e5c16d9160248083019260209291908290030181600087803b1580156124f757600080fd5b505af115801561250b573d6000803e3d6000fd5b505050506040513d602081101561252157600080fd5b5051151561252e57600080fd5b600080546040805160e060020a63358177730281526020600482018190526005602483015260d860020a646c6f616e530260448301529151600160a060020a0390931693633581777393606480840194939192918390030190829087803b15801561259857600080fd5b505af11580156125ac573d6000803e3d6000fd5b505050506040513d60208110156125c257600080fd5b5051604080517f8a95fee8000000000000000000000000000000000000000000000000000000008152600160a060020a0386811660048301526024820186905291519190921691638a95fee89160448083019260209291908290030181600087803b158015610ba557600080fd5b600080546040805160e060020a633581777302815260206004820181905260086024830152600080516020613b5f83398151915260448301529151600160a060020a039093169263358177739260648084019391929182900301818787803b15801561269b57600080fd5b505af11580156126af573d6000803e3d6000fd5b505050506040513d60208110156126c557600080fd5b50516040805160e060020a6332e5c16d028152600160a060020a033381166004830152915191909216916332e5c16d9160248083019260209291908290030181600087803b15801561271657600080fd5b505af115801561272a573d6000803e3d6000fd5b505050506040513d602081101561274057600080fd5b5051151561274d57600080fd5b600080546040805160e060020a63358177730281526020600482018190526005602483015260d860020a646c6f616e530260448301529151600160a060020a0390931693633581777393606480840194939192918390030190829087803b1580156127b757600080fd5b505af11580156127cb573d6000803e3d6000fd5b505050506040513d60208110156127e157600080fd5b5051604080517fddf03c2e000000000000000000000000000000000000000000000000000000008152600160a060020a03868116600483015260248201869052600260448301529151919092169163ddf03c2e9160648083019260209291908290030181600087803b158015610ba557600080fd5b604080518082018252600581527f746f6b656e000000000000000000000000000000000000000000000000000000602082019081526000805484517fb513b7a500000000000000000000000000000000000000000000000000000000815233600160a060020a0381811660048401908152602484019889528751604485015287519598899889989097939096169563b513b7a5958894606490910191908083838d5b838110156129105781810151838201526020016128f8565b50505050905090810190601f16801561293d5780820380516001836020036101000a031916815260200191505b509350505050602060405180830381600087803b15801561295d57600080fd5b505af1158015612971573d6000803e3d6000fd5b505050506040513d602081101561298757600080fd5b5051151561299457600080fd5b600080546040805160e060020a633581777302815260206004820181905260086024830152600080516020613b5f83398151915260448301529151600160a060020a0390931693633581777393606480840194939192918390030190829087803b158015612a0157600080fd5b505af1158015612a15573d6000803e3d6000fd5b505050506040513d6020811015612a2b57600080fd5b50516040805160e160020a630531fd65028152600160a060020a038981166004830152915192955090851691630a63faca916024808201926020929091908290030181600087803b158015612a7f57600080fd5b505af1158015612a93573d6000803e3d6000fd5b505050506040513d6020811015612aa957600080fd5b50511515612ab657600080fd5b612ac086866137e6565b1515612ac857fe5b600080546040805160e060020a63358177730281526020600482018190526005602483015260d860020a646c6f616e530260448301529151600160a060020a0390931693633581777393606480840194939192918390030190829087803b158015612b3257600080fd5b505af1158015612b46573d6000803e3d6000fd5b505050506040513d6020811015612b5c57600080fd5b505160608601518651602080890151604080517f1ad36e6c000000000000000000000000000000000000000000000000000000008152600160a060020a038d81166004830152602482019690965260016044820152606481019490945260848401919091525193955091851692631ad36e6c9260a4808401939192918290030181600087803b158015612bee57600080fd5b505af1158015612c02573d6000803e3d6000fd5b505050506040513d6020811015612c1857600080fd5b506001979650505050505050565b612c2e613b3f565b6000612c38613b3f565b600080546040805160e060020a633581777302815260206004820181905260086024830152600080516020613b5f83398151915260448301529151600160a060020a039093169263358177739260648084019391929182900301818787803b158015612ca357600080fd5b505af1158015612cb7573d6000803e3d6000fd5b505050506040513d6020811015612ccd57600080fd5b50516040805160e060020a6332e5c16d028152600160a060020a033381166004830152915191909216916332e5c16d9160248083019260209291908290030181600087803b158015612d1e57600080fd5b505af1158015612d32573d6000803e3d6000fd5b505050506040513d6020811015612d4857600080fd5b50511515612d5557600080fd5b600080546040805160e060020a633581777302815260206004820181905260086024830152600080516020613b5f83398151915260448301529151600160a060020a0390931693633581777393606480840194939192918390030190829087803b158015612dc257600080fd5b505af1158015612dd6573d6000803e3d6000fd5b505050506040513d6020811015612dec57600080fd5b50516040805160e160020a630531fd65028152600160a060020a038981166004830152915192955090851691630a63faca916024808201926020929091908290030181600087803b158015612e4057600080fd5b505af1158015612e54573d6000803e3d6000fd5b505050506040513d6020811015612e6a57600080fd5b50511515612e7757600080fd5b600080546040805160e060020a63358177730281526020600482018190526005602483015260d860020a646c6f616e530260448301529151600160a060020a0390931693633581777393606480840194939192918390030190829087803b158015612ee157600080fd5b505af1158015612ef5573d6000803e3d6000fd5b505050506040513d6020811015612f0b57600080fd5b50516040805160e060020a63a692d785028152600160a060020a0389811660048301526024820189905291519293509083169163a692d785916044808201926020929091908290030181600087803b158015612f6657600080fd5b505af1158015612f7a573d6000803e3d6000fd5b505050506040513d6020811015612f9057600080fd5b50518252604080517ff801edaa000000000000000000000000000000000000000000000000000000008152600160a060020a0388811660048301526024820188905291519183169163f801edaa916044808201926020929091908290030181600087803b15801561300057600080fd5b505af1158015613014573d6000803e3d6000fd5b505050506040513d602081101561302a57600080fd5b5051602080840191909152604080517f1cd54185000000000000000000000000000000000000000000000000000000008152600160a060020a03898116600483015260248201899052915191841692631cd54185926044808401938290030181600087803b15801561309b57600080fd5b505af11580156130af573d6000803e3d6000fd5b505050506040513d60208110156130c557600080fd5b505160408084019190915280517f30011bcd000000000000000000000000000000000000000000000000000000008152600160a060020a038881166004830152602482018890529151918316916330011bcd916044808201926020929091908290030181600087803b15801561313a57600080fd5b505af115801561314e573d6000803e3d6000fd5b505050506040513d602081101561316457600080fd5b50516060830152604080517f1953c3f9000000000000000000000000000000000000000000000000000000008152600160a060020a03888116600483015260248201889052915191831691631953c3f9916044808201926020929091908290030181600087803b1580156131d757600080fd5b505af11580156131eb573d6000803e3d6000fd5b505050506040513d602081101561320157600080fd5b5051608083015250949350505050565b600080546040805160e060020a633581777302815260206004820181905260086024830152600080516020613b5f8339815191526044830152915184938493600160a060020a03909116926335817773926064808301939282900301818787803b15801561327e57600080fd5b505af1158015613292573d6000803e3d6000fd5b505050506040513d60208110156132a857600080fd5b50516040805160e060020a6332e5c16d028152600160a060020a033381166004830152915191909216916332e5c16d9160248083019260209291908290030181600087803b1580156132f957600080fd5b505af115801561330d573d6000803e3d6000fd5b505050506040513d602081101561332357600080fd5b5051151561333057600080fd5b600080546040805160e060020a633581777302815260206004820181905260086024830152600080516020613b5f83398151915260448301529151600160a060020a0390931693633581777393606480840194939192918390030190829087803b15801561339d57600080fd5b505af11580156133b1573d6000803e3d6000fd5b505050506040513d60208110156133c757600080fd5b50516040805160e160020a630531fd65028152600160a060020a038881166004830152915192945090841691630a63faca916024808201926020929091908290030181600087803b15801561341b57600080fd5b505af115801561342f573d6000803e3d6000fd5b505050506040513d602081101561344557600080fd5b5051151561345257600080fd5b61345c85856137e6565b151561346457fe5b600080546040805160e060020a63358177730281526020600482018190526005602483015260d860020a646c6f616e530260448301529151600160a060020a0390931693633581777393606480840194939192918390030190829087803b1580156134ce57600080fd5b505af11580156134e2573d6000803e3d6000fd5b505050506040513d60208110156134f857600080fd5b505160608501518551602080880151604080517f1ad36e6c000000000000000000000000000000000000000000000000000000008152600160a060020a038c811660048301526024820196909652600060448201819052606482019590955260848101929092525194955092851693631ad36e6c9360a480820194918390030190829087803b15801561358a57600080fd5b505af115801561359e573d6000803e3d6000fd5b505050506040513d60208110156116ef57600080fd5b600080546040805160e060020a633581777302815260206004820181905260086024830152600080516020613b5f83398151915260448301529151600160a060020a039093169263358177739260648084019391929182900301818787803b15801561361f57600080fd5b505af1158015613633573d6000803e3d6000fd5b505050506040513d602081101561364957600080fd5b50516040805160e060020a6332e5c16d028152600160a060020a033381166004830152915191909216916332e5c16d9160248083019260209291908290030181600087803b15801561369a57600080fd5b505af11580156136ae573d6000803e3d6000fd5b505050506040513d60208110156136c457600080fd5b505115156136d157600080fd5b600080546040805160e060020a63358177730281526020600482018190526005602483015260d860020a646c6f616e530260448301529151600160a060020a0390931693633581777393606480840194939192918390030190829087803b15801561373b57600080fd5b505af115801561374f573d6000803e3d6000fd5b505050506040513d602081101561376557600080fd5b5051604080517f664e641f000000000000000000000000000000000000000000000000000000008152600160a060020a038681166004830152602482018690529151919092169163664e641f9160448083019260209291908290030181600087803b158015610ba557600080fd5b60008280156137df5750815b9392505050565b600080546040805160e060020a63358177730281526020600482018190526005602483015260d860020a646c6f616e530260448301529151849384938493600160a060020a0390921692633581777392606480820193929182900301818787803b15801561385357600080fd5b505af1158015613867573d6000803e3d6000fd5b505050506040513d602081101561387d57600080fd5b5051925081600160a060020a03841663a692d7858888600360200201516040518363ffffffff1660e060020a0281526004018083600160a060020a0316600160a060020a0316815260200182815260200192505050602060405180830381600087803b1580156138ec57600080fd5b505af1158015613900573d6000803e3d6000fd5b505050506040513d602081101561391657600080fd5b5051141561392057fe5b84516060860151604080517f1cd54185000000000000000000000000000000000000000000000000000000008152600160a060020a038a811660048301526024820193909352905191861691631cd54185916044808201926020929091908290030181600087803b15801561399457600080fd5b505af11580156139a8573d6000803e3d6000fd5b505050506040513d60208110156139be57600080fd5b505110159050613a768560016020020151600160a060020a0385166330011bcd8989600360200201516040518363ffffffff1660e060020a0281526004018083600160a060020a0316600160a060020a0316815260200182815260200192505050602060405180830381600087803b158015613a3957600080fd5b505af1158015613a4d573d6000803e3d6000fd5b505050506040513d6020811015613a6357600080fd5b505183151591111563ffffffff6137d316565b9050613a93600160a060020a03841663664e641f8888600261126e565b905061097283600160a060020a03166348fd64e988886040518363ffffffff1660e060020a0281526004018083600160a060020a0316600160a060020a0316815260200182600460200280838360005b83811015613afb578181015183820152602001613ae3565b5050505090500192505050602060405180830381600087803b15801561093757600080fd5b6080604051908101604052806004906020820280388339509192915050565b60a060405190810160405280600590602082028038833950919291505056007265676973747279000000000000000000000000000000000000000000000000a165627a7a723058204639359d34b5933cb5626364a6c426cea04722d78150d640c6ba3fb36edd6c4e0029",
  "source": "pragma solidity ^0.4.23;\n\nimport \"./Index.sol\";\nimport \"./Registry.sol\";\nimport \"./Token.sol\";\nimport \"./LoanStorage.sol\";\nimport \"./SafeMath.sol\";\nimport \"./LogicOp.sol\";\n\ncontract Loan {\n\n\tusing SafeMath for uint256;\n\tusing LogicOp for bool;\n\n\tIndex private index;\n\n\tconstructor (address _indexAddress) public{\n\t\trequire(_indexAddress != 0x0);\n\t\tindex = Index(_indexAddress);\n\t}\n\n\tmodifier onlyUser() {\t\t\n\t\trequire (Registry(index.getContract('registry')).ifUser(msg.sender)); \n\t\t_; \n\t}\n\n\tmodifier onlyCustomer() {\t\t\n\t\trequire (Registry(index.getContract('registry')).ifCustomer(msg.sender)); \n\t\t_; \n\t}\n\n\tmodifier onlySpecified(string _name) { \n\t\trequire(index.checkContract(msg.sender,_name)); \n\t\t_; \n\t}\n\n\t/**\n\t* @dev grant a loan for a specified address \n\t* @param _address The address where the loan is to be added\n\t* @param _fields , _fields[0] - loan amount , _fields[1] - disbursed loan amount, _fields[2] - duration , _fields[3] - eligibility\n\t*/\n\tfunction grantLoan (address _address,uint256[4] _fields, uint256 _loanId) public onlyUser returns(bool res){\n\t\tLoanStorage l = LoanStorage(index.getContract('loanS'));\n\t\tuint256 temp;\n\t\tassert(l.getLoanAmount(_address,_loanId)==temp);\n\t\tRegistry r = Registry(index.getContract('registry'));\n\t\tToken t = Token(index.getContract('token'));\n\t\tbool result = r.ifCustomer(_address);\n\t\tresult = result.and(_fields[0]>=_fields[1]);\n\t\tresult = result.and(l.setEligibility(_address,_fields[3]));\n\t\tresult = result.and(l.newLoan(_address, _fields, _loanId));\n\t\tassert(result.and(t.grantLoan(_address,_fields[1])));\n\t\treturn true;\t\n\t}\n\n\t/**\n\t* @dev repay a loan for a specified address and loan ID \n\t* @param _address The address of customer repaying the loan\n\t* @param _fields , _fields[0] - amount, _fields[1] - penalty, _fields[2] - eligibility, _fields[3] - loanId\n\t*/\n\tfunction repayLoan (address _address, uint256[4] _fields) internal returns(bool res) {\n\t\tLoanStorage l = LoanStorage(index.getContract('loanS'));\n\t\tuint256 temp;\n\t\tassert(l.getLoanAmount(_address,_fields[3])!=temp);\n\t\tbool result = l.getRemainingDebt(_address,_fields[3])>=_fields[0];\n\t\tresult = result.and (l.getPenalty(_address,_fields[3])>=_fields[1]);\n\t\tresult = result.and(l.setEligibility(_address, _fields[2]));\n\t\tassert (result.and(l.repayLoan(_address, _fields)));\n\t\treturn true;\n\t}\n\n\n\t/**\n\t* @dev repay a loan through bank for a specified address and loan ID , can only be called by user \n\t* @param _address The address of customer repaying the loan\n\t* @param _fields , _fields[0] - amount, _fields[1] - penalty, _fields[2] - eligibility, _fields[3] - loanId\n\t*/\n\tfunction repayLoanByBank (address _address, uint256[4] _fields) public onlyUser returns(bool res) {\n\t\tRegistry r = Registry(index.getContract('registry'));\n\t\trequire (r.ifCustomer(_address));\n\t\tassert (repayLoan(_address,_fields));\n\t\tLoanStorage l = LoanStorage(index.getContract('loanS'));\n\t\tl.emitRepay(_address,_fields[3],0,_fields[0],_fields[1]);\n\t\treturn true;\n\t}\n\n\t/**\n\t* @dev repay a loan through tokens for a specified address and loan ID , can only be called by token contract\n\t* @param _address The address of customer repaying the loan\n\t* @param _fields , _fields[0] - amount, _fields[1] - penalty, _fields[2] - eligibility, _fields[3] - loanId\n\t*/\n\tfunction repayLoanByTokens (address _address, uint256[4] _fields) public onlySpecified('token') returns(bool res) {\n\t\tRegistry r = Registry(index.getContract('registry'));\n\t\trequire (r.ifCustomer(_address));\n\t\tassert (repayLoan(_address,_fields));\n\t\tLoanStorage l = LoanStorage(index.getContract('loanS'));\n\t\tl.emitRepay(_address,_fields[3],1,_fields[0],_fields[1]);\n\t\treturn true;\n\t}\n\n\tfunction updateEligibility (address _address,uint256 _amount) public onlyUser returns(bool res){\n\t\tassert(LoanStorage(index.getContract('loanS')).setEligibility(_address,_amount));\n\t\treturn true;\n\t}\n\n\t/**\n\t* @dev update penalty for a specified address and loan ID, can only be called by CASHe user\n\t* @param _address The address of customer \n\t* @param _penalty penalty to be added \n\t* @param _loanId loan Id to which penlaty has to be added  \n\t*/\n\tfunction addPenalty (address _address,uint256 _penalty,uint256 _loanId) public onlyUser returns(bool res){\n\t\tLoanStorage l = LoanStorage(index.getContract('loanS'));\n\t\tuint256 temp;\n\t\tassert(l.getLoanAmount(_address,_loanId)!=temp);\n\t\tbool r = l.addPenalty(_address,_penalty,_loanId);\n\t\tassert (r.and(l.addTotalPenalty(_address,_penalty)));\n\t\treturn true;\n\t}\n\n\tfunction waivePenalty (address _address,uint256 _loanId) public onlyUser returns(bool res){\n\t\tLoanStorage l = LoanStorage(index.getContract('loanS'));\n\t\tuint256 temp;\n\t\tassert(l.getLoanAmount(_address,_loanId)!=temp);\n\t\tbool r = l.subTotalPenalty(_address,(l.getPenalty(_address,_loanId)));\n\t\tassert (r.and(l.setWaiveFlag(_address,true,_loanId)));\n\t\treturn true;\n\t}\t\n\n\tfunction getPenalty (address _address, uint256 _loanId) public view onlyUser returns(uint256 res){\n\t\treturn LoanStorage(index.getContract('loanS')).getPenalty(_address,_loanId);\n\t}\n\n\tfunction addFrozenAmount (address _address,uint256 _amount)public onlyUser returns(bool res){\n\t\tassert(LoanStorage(index.getContract('loanS')).addFrozenAmount(_address,_amount));\n\t\treturn true;\n\t}\n\n\tfunction subFrozenAmount (address _address,uint256 _amount)public onlyUser returns(bool res){\n\t\tassert(LoanStorage(index.getContract('loanS')).subFrozenAmount(_address,_amount));\n\t\treturn true;\n\t}\n\t\n\tfunction getFrozenAmount (address _address)public view returns(uint256 res){\n\t\treturn LoanStorage(index.getContract('loanS')).getFrozenAmount(_address);\n\t}\n\n\tfunction setOverdueFlag (address _address,uint256 _loanId)public onlyUser returns(bool res){\n\t\tassert(LoanStorage(index.getContract('loanS')).setLoanStatus(_address,_loanId,2));\n\t\treturn true;\n\t}\n\n\tfunction setClosedFlag (address _address,uint256 _loanId)public onlyUser returns(bool res){\n\t\tassert(LoanStorage(index.getContract('loanS')).setLoanStatus(_address,_loanId,3));\n\t\treturn true;\n\t}\n\t\n\tfunction setOverdueAndFreeze (address _address,uint256 _loanId,uint256 _amount)public onlyUser returns(bool res){\n\t\tassert(LoanStorage(index.getContract('loanS')).setLoanStatus(_address,_loanId,2));\n\t\tassert(LoanStorage(index.getContract('loanS')).addFrozenAmount(_address,_amount));\n\t\treturn true;\n\t}\n\n\tfunction isLoanOverDue (address _address,uint256 _loanId) public view returns(bool res){\n\t\tassert(LoanStorage(index.getContract('loanS')).checkLoanStatus(_address,_loanId,2));\n\t\treturn true;\n\t} \n\n\tfunction isLoanClosed (address _address,uint256 _loanId) public view returns(bool res){\n\t\tassert(LoanStorage(index.getContract('loanS')).checkLoanStatus(_address,_loanId,3));\n\t\treturn true;\n\t}\n\n\tfunction getLoanDetails (address _address, uint256 _loanId) public onlyUser view returns(uint256[5]) {\n\t\tRegistry r = Registry(index.getContract('registry'));\n\t\trequire (r.ifCustomer(_address));\n\t\tuint256[5] memory temp;\n\t\tLoanStorage l = LoanStorage(index.getContract('loanS'));\n\t\ttemp[0] = l.getLoanAmount(_address,_loanId);\n\t\ttemp[1] = l.getDisbursedLoanAmount(_address,_loanId);\n\t\ttemp[2] = l.getRemainingDebt(_address,_loanId);\n\t\ttemp[3] = l.getPenalty(_address,_loanId);\n\t\ttemp[4] = l.getDuration(_address,_loanId);\n\t\treturn temp;\n\t}\n\n\tfunction getLoanProfile (address _address) public onlyUser view returns(uint256[4]) {\n\t\tRegistry r = Registry(index.getContract('registry'));\n\t\trequire (r.ifCustomer(_address));\n\t\tuint256[4] memory temp;\n\t\tLoanStorage l = LoanStorage(index.getContract('loanS'));\n\t\ttemp[0] = l.getEligibility(_address);\n\t\ttemp[1] = l.getTotalRemainingDebt(_address);\n\t\ttemp[2] = l.getTotalPenalty(_address);\n\t\ttemp[3] = l.getTotalLoans(_address);\n\t\treturn temp;\n\t}\n}",
  "sourcePath": "/Users/rahulgolash/Rahul/Github/baeth/contracts/Loan.sol",
  "compiler": {
    "name": "solc",
    "version": "0.4.23+commit.124ca40d.Emscripten.clang"
  },
  "schemaVersion": "2.0.0",
  "updatedAt": "2018-05-27T08:21:17.936Z"
}