{
  "contractName": "LoanStorage",
  "abi": [
    {
      "inputs": [
        {
          "name": "_indexAddress",
          "type": "address"
        }
      ],
      "payable": false,
      "stateMutability": "nonpayable",
      "type": "constructor"
    },
    {
      "anonymous": false,
      "inputs": [
        {
          "indexed": true,
          "name": "_address",
          "type": "address"
        },
        {
          "indexed": false,
          "name": "_loanId",
          "type": "uint256"
        },
        {
          "indexed": false,
          "name": "_loanAmount",
          "type": "uint256"
        }
      ],
      "name": "newLoanAdded",
      "type": "event"
    },
    {
      "anonymous": false,
      "inputs": [
        {
          "indexed": true,
          "name": "_address",
          "type": "address"
        },
        {
          "indexed": false,
          "name": "_loanId",
          "type": "uint256"
        },
        {
          "indexed": true,
          "name": "_how",
          "type": "uint256"
        },
        {
          "indexed": false,
          "name": "_pricipal",
          "type": "uint256"
        },
        {
          "indexed": false,
          "name": "_penalty",
          "type": "uint256"
        }
      ],
      "name": "loanRepay",
      "type": "event"
    },
    {
      "anonymous": false,
      "inputs": [
        {
          "indexed": true,
          "name": "_address",
          "type": "address"
        },
        {
          "indexed": false,
          "name": "_value",
          "type": "uint256"
        }
      ],
      "name": "updatedEligibility",
      "type": "event"
    },
    {
      "constant": false,
      "inputs": [
        {
          "name": "_address",
          "type": "address"
        },
        {
          "name": "_loanId",
          "type": "uint256"
        },
        {
          "name": "_how",
          "type": "uint256"
        },
        {
          "name": "_pricipal",
          "type": "uint256"
        },
        {
          "name": "_penalty",
          "type": "uint256"
        }
      ],
      "name": "emitRepay",
      "outputs": [
        {
          "name": "res",
          "type": "bool"
        }
      ],
      "payable": false,
      "stateMutability": "nonpayable",
      "type": "function"
    },
    {
      "constant": false,
      "inputs": [
        {
          "name": "_address",
          "type": "address"
        },
        {
          "name": "_loanId",
          "type": "uint256"
        },
        {
          "name": "flag",
          "type": "uint8"
        }
      ],
      "name": "setLoanStatus",
      "outputs": [
        {
          "name": "res",
          "type": "bool"
        }
      ],
      "payable": false,
      "stateMutability": "nonpayable",
      "type": "function"
    },
    {
      "constant": true,
      "inputs": [
        {
          "name": "_address",
          "type": "address"
        },
        {
          "name": "_loanId",
          "type": "uint256"
        },
        {
          "name": "flag",
          "type": "uint8"
        }
      ],
      "name": "checkLoanStatus",
      "outputs": [
        {
          "name": "res",
          "type": "bool"
        }
      ],
      "payable": false,
      "stateMutability": "view",
      "type": "function"
    },
    {
      "constant": false,
      "inputs": [
        {
          "name": "_address",
          "type": "address"
        },
        {
          "name": "_amount",
          "type": "uint256"
        }
      ],
      "name": "setEligibility",
      "outputs": [
        {
          "name": "res",
          "type": "bool"
        }
      ],
      "payable": false,
      "stateMutability": "nonpayable",
      "type": "function"
    },
    {
      "constant": false,
      "inputs": [
        {
          "name": "_address",
          "type": "address"
        },
        {
          "name": "_amount",
          "type": "uint256"
        }
      ],
      "name": "addEligibility",
      "outputs": [
        {
          "name": "res",
          "type": "bool"
        }
      ],
      "payable": false,
      "stateMutability": "nonpayable",
      "type": "function"
    },
    {
      "constant": false,
      "inputs": [
        {
          "name": "_address",
          "type": "address"
        },
        {
          "name": "_amount",
          "type": "uint256"
        }
      ],
      "name": "subEligibility",
      "outputs": [
        {
          "name": "res",
          "type": "bool"
        }
      ],
      "payable": false,
      "stateMutability": "nonpayable",
      "type": "function"
    },
    {
      "constant": true,
      "inputs": [
        {
          "name": "_address",
          "type": "address"
        }
      ],
      "name": "getEligibility",
      "outputs": [
        {
          "name": "res",
          "type": "uint256"
        }
      ],
      "payable": false,
      "stateMutability": "view",
      "type": "function"
    },
    {
      "constant": false,
      "inputs": [
        {
          "name": "_address",
          "type": "address"
        },
        {
          "name": "_amount",
          "type": "uint256"
        }
      ],
      "name": "addTotalRemainingDebt",
      "outputs": [
        {
          "name": "res",
          "type": "bool"
        }
      ],
      "payable": false,
      "stateMutability": "nonpayable",
      "type": "function"
    },
    {
      "constant": false,
      "inputs": [
        {
          "name": "_address",
          "type": "address"
        },
        {
          "name": "_amount",
          "type": "uint256"
        }
      ],
      "name": "subTotalRemainingDebt",
      "outputs": [
        {
          "name": "res",
          "type": "bool"
        }
      ],
      "payable": false,
      "stateMutability": "nonpayable",
      "type": "function"
    },
    {
      "constant": false,
      "inputs": [
        {
          "name": "_address",
          "type": "address"
        },
        {
          "name": "_amount",
          "type": "uint256"
        }
      ],
      "name": "setTotalRemainingDebt",
      "outputs": [
        {
          "name": "res",
          "type": "bool"
        }
      ],
      "payable": false,
      "stateMutability": "nonpayable",
      "type": "function"
    },
    {
      "constant": true,
      "inputs": [
        {
          "name": "_address",
          "type": "address"
        }
      ],
      "name": "getTotalRemainingDebt",
      "outputs": [
        {
          "name": "res",
          "type": "uint256"
        }
      ],
      "payable": false,
      "stateMutability": "view",
      "type": "function"
    },
    {
      "constant": false,
      "inputs": [
        {
          "name": "_address",
          "type": "address"
        },
        {
          "name": "_amount",
          "type": "uint256"
        }
      ],
      "name": "addTotalPenalty",
      "outputs": [
        {
          "name": "res",
          "type": "bool"
        }
      ],
      "payable": false,
      "stateMutability": "nonpayable",
      "type": "function"
    },
    {
      "constant": false,
      "inputs": [
        {
          "name": "_address",
          "type": "address"
        },
        {
          "name": "_amount",
          "type": "uint256"
        }
      ],
      "name": "subTotalPenalty",
      "outputs": [
        {
          "name": "res",
          "type": "bool"
        }
      ],
      "payable": false,
      "stateMutability": "nonpayable",
      "type": "function"
    },
    {
      "constant": false,
      "inputs": [
        {
          "name": "_address",
          "type": "address"
        },
        {
          "name": "_amount",
          "type": "uint256"
        }
      ],
      "name": "setTotalPenalty",
      "outputs": [
        {
          "name": "res",
          "type": "bool"
        }
      ],
      "payable": false,
      "stateMutability": "nonpayable",
      "type": "function"
    },
    {
      "constant": true,
      "inputs": [
        {
          "name": "_address",
          "type": "address"
        }
      ],
      "name": "getTotalPenalty",
      "outputs": [
        {
          "name": "res",
          "type": "uint256"
        }
      ],
      "payable": false,
      "stateMutability": "view",
      "type": "function"
    },
    {
      "constant": false,
      "inputs": [
        {
          "name": "_userAddress",
          "type": "address"
        },
        {
          "name": "_amount",
          "type": "uint256"
        },
        {
          "name": "loanId",
          "type": "uint256"
        }
      ],
      "name": "addPenalty",
      "outputs": [
        {
          "name": "res",
          "type": "bool"
        }
      ],
      "payable": false,
      "stateMutability": "nonpayable",
      "type": "function"
    },
    {
      "constant": false,
      "inputs": [
        {
          "name": "_userAddress",
          "type": "address"
        },
        {
          "name": "_amount",
          "type": "uint256"
        },
        {
          "name": "loanId",
          "type": "uint256"
        }
      ],
      "name": "subPenalty",
      "outputs": [
        {
          "name": "res",
          "type": "bool"
        }
      ],
      "payable": false,
      "stateMutability": "nonpayable",
      "type": "function"
    },
    {
      "constant": false,
      "inputs": [
        {
          "name": "_userAddress",
          "type": "address"
        },
        {
          "name": "_amount",
          "type": "uint256"
        },
        {
          "name": "loanId",
          "type": "uint256"
        }
      ],
      "name": "setPenalty",
      "outputs": [
        {
          "name": "res",
          "type": "bool"
        }
      ],
      "payable": false,
      "stateMutability": "nonpayable",
      "type": "function"
    },
    {
      "constant": true,
      "inputs": [
        {
          "name": "_userAddress",
          "type": "address"
        },
        {
          "name": "loanId",
          "type": "uint256"
        }
      ],
      "name": "getPenalty",
      "outputs": [
        {
          "name": "res",
          "type": "uint256"
        }
      ],
      "payable": false,
      "stateMutability": "view",
      "type": "function"
    },
    {
      "constant": false,
      "inputs": [
        {
          "name": "_userAddress",
          "type": "address"
        },
        {
          "name": "_amount",
          "type": "uint256"
        },
        {
          "name": "loanId",
          "type": "uint256"
        }
      ],
      "name": "addRemainingDebt",
      "outputs": [
        {
          "name": "res",
          "type": "bool"
        }
      ],
      "payable": false,
      "stateMutability": "nonpayable",
      "type": "function"
    },
    {
      "constant": false,
      "inputs": [
        {
          "name": "_userAddress",
          "type": "address"
        },
        {
          "name": "_amount",
          "type": "uint256"
        },
        {
          "name": "loanId",
          "type": "uint256"
        }
      ],
      "name": "subRemainingDebt",
      "outputs": [
        {
          "name": "res",
          "type": "bool"
        }
      ],
      "payable": false,
      "stateMutability": "nonpayable",
      "type": "function"
    },
    {
      "constant": false,
      "inputs": [
        {
          "name": "_userAddress",
          "type": "address"
        },
        {
          "name": "_amount",
          "type": "uint256"
        },
        {
          "name": "loanId",
          "type": "uint256"
        }
      ],
      "name": "setRemainingDebt",
      "outputs": [
        {
          "name": "res",
          "type": "bool"
        }
      ],
      "payable": false,
      "stateMutability": "nonpayable",
      "type": "function"
    },
    {
      "constant": true,
      "inputs": [
        {
          "name": "_userAddress",
          "type": "address"
        },
        {
          "name": "loanId",
          "type": "uint256"
        }
      ],
      "name": "getRemainingDebt",
      "outputs": [
        {
          "name": "res",
          "type": "uint256"
        }
      ],
      "payable": false,
      "stateMutability": "view",
      "type": "function"
    },
    {
      "constant": true,
      "inputs": [
        {
          "name": "_userAddress",
          "type": "address"
        },
        {
          "name": "loanId",
          "type": "uint256"
        }
      ],
      "name": "getLoanAmount",
      "outputs": [
        {
          "name": "res",
          "type": "uint256"
        }
      ],
      "payable": false,
      "stateMutability": "view",
      "type": "function"
    },
    {
      "constant": false,
      "inputs": [
        {
          "name": "_userAddress",
          "type": "address"
        },
        {
          "name": "_amount",
          "type": "uint256"
        },
        {
          "name": "loanId",
          "type": "uint256"
        }
      ],
      "name": "addLoanAmount",
      "outputs": [
        {
          "name": "res",
          "type": "bool"
        }
      ],
      "payable": false,
      "stateMutability": "nonpayable",
      "type": "function"
    },
    {
      "constant": false,
      "inputs": [
        {
          "name": "_userAddress",
          "type": "address"
        },
        {
          "name": "_amount",
          "type": "uint256"
        },
        {
          "name": "loanId",
          "type": "uint256"
        }
      ],
      "name": "subLoanAmount",
      "outputs": [
        {
          "name": "res",
          "type": "bool"
        }
      ],
      "payable": false,
      "stateMutability": "nonpayable",
      "type": "function"
    },
    {
      "constant": false,
      "inputs": [
        {
          "name": "_userAddress",
          "type": "address"
        },
        {
          "name": "_amount",
          "type": "uint256"
        },
        {
          "name": "loanId",
          "type": "uint256"
        }
      ],
      "name": "setLoanAmount",
      "outputs": [
        {
          "name": "res",
          "type": "bool"
        }
      ],
      "payable": false,
      "stateMutability": "nonpayable",
      "type": "function"
    },
    {
      "constant": true,
      "inputs": [
        {
          "name": "_userAddress",
          "type": "address"
        },
        {
          "name": "loanId",
          "type": "uint256"
        }
      ],
      "name": "getDisbursedLoanAmount",
      "outputs": [
        {
          "name": "res",
          "type": "uint256"
        }
      ],
      "payable": false,
      "stateMutability": "view",
      "type": "function"
    },
    {
      "constant": false,
      "inputs": [
        {
          "name": "_userAddress",
          "type": "address"
        },
        {
          "name": "_amount",
          "type": "uint256"
        },
        {
          "name": "loanId",
          "type": "uint256"
        }
      ],
      "name": "addDisbursedLoanAmount",
      "outputs": [
        {
          "name": "res",
          "type": "bool"
        }
      ],
      "payable": false,
      "stateMutability": "nonpayable",
      "type": "function"
    },
    {
      "constant": false,
      "inputs": [
        {
          "name": "_userAddress",
          "type": "address"
        },
        {
          "name": "_amount",
          "type": "uint256"
        },
        {
          "name": "loanId",
          "type": "uint256"
        }
      ],
      "name": "subDisbursedLoanAmount",
      "outputs": [
        {
          "name": "res",
          "type": "bool"
        }
      ],
      "payable": false,
      "stateMutability": "nonpayable",
      "type": "function"
    },
    {
      "constant": false,
      "inputs": [
        {
          "name": "_userAddress",
          "type": "address"
        },
        {
          "name": "_amount",
          "type": "uint256"
        },
        {
          "name": "loanId",
          "type": "uint256"
        }
      ],
      "name": "setDisbursedLoanAmount",
      "outputs": [
        {
          "name": "res",
          "type": "bool"
        }
      ],
      "payable": false,
      "stateMutability": "nonpayable",
      "type": "function"
    },
    {
      "constant": true,
      "inputs": [
        {
          "name": "_address",
          "type": "address"
        }
      ],
      "name": "getTotalLoans",
      "outputs": [
        {
          "name": "res",
          "type": "uint256"
        }
      ],
      "payable": false,
      "stateMutability": "view",
      "type": "function"
    },
    {
      "constant": true,
      "inputs": [
        {
          "name": "_address",
          "type": "address"
        },
        {
          "name": "loanId",
          "type": "uint256"
        }
      ],
      "name": "getDuration",
      "outputs": [
        {
          "name": "res",
          "type": "uint256"
        }
      ],
      "payable": false,
      "stateMutability": "view",
      "type": "function"
    },
    {
      "constant": false,
      "inputs": [
        {
          "name": "_userAddress",
          "type": "address"
        },
        {
          "name": "loanId",
          "type": "uint256"
        }
      ],
      "name": "setStartDate",
      "outputs": [
        {
          "name": "res",
          "type": "bool"
        }
      ],
      "payable": false,
      "stateMutability": "nonpayable",
      "type": "function"
    },
    {
      "constant": true,
      "inputs": [
        {
          "name": "_userAddress",
          "type": "address"
        },
        {
          "name": "loanId",
          "type": "uint256"
        }
      ],
      "name": "getStartDate",
      "outputs": [
        {
          "name": "res",
          "type": "uint256"
        }
      ],
      "payable": false,
      "stateMutability": "view",
      "type": "function"
    },
    {
      "constant": false,
      "inputs": [
        {
          "name": "_address",
          "type": "address"
        },
        {
          "name": "_flag",
          "type": "bool"
        },
        {
          "name": "_loanId",
          "type": "uint256"
        }
      ],
      "name": "setWaiveFlag",
      "outputs": [
        {
          "name": "res",
          "type": "bool"
        }
      ],
      "payable": false,
      "stateMutability": "nonpayable",
      "type": "function"
    },
    {
      "constant": true,
      "inputs": [
        {
          "name": "_address",
          "type": "address"
        },
        {
          "name": "_loanId",
          "type": "uint256"
        }
      ],
      "name": "getWaiveFlag",
      "outputs": [
        {
          "name": "res",
          "type": "bool"
        }
      ],
      "payable": false,
      "stateMutability": "view",
      "type": "function"
    },
    {
      "constant": false,
      "inputs": [
        {
          "name": "_address",
          "type": "address"
        },
        {
          "name": "_amount",
          "type": "uint256"
        }
      ],
      "name": "addFrozenAmount",
      "outputs": [
        {
          "name": "res",
          "type": "bool"
        }
      ],
      "payable": false,
      "stateMutability": "nonpayable",
      "type": "function"
    },
    {
      "constant": false,
      "inputs": [
        {
          "name": "_address",
          "type": "address"
        },
        {
          "name": "_amount",
          "type": "uint256"
        }
      ],
      "name": "subFrozenAmount",
      "outputs": [
        {
          "name": "res",
          "type": "bool"
        }
      ],
      "payable": false,
      "stateMutability": "nonpayable",
      "type": "function"
    },
    {
      "constant": true,
      "inputs": [
        {
          "name": "_address",
          "type": "address"
        }
      ],
      "name": "getFrozenAmount",
      "outputs": [
        {
          "name": "res",
          "type": "uint256"
        }
      ],
      "payable": false,
      "stateMutability": "view",
      "type": "function"
    },
    {
      "constant": false,
      "inputs": [
        {
          "name": "_address",
          "type": "address"
        },
        {
          "name": "_amount",
          "type": "uint256"
        }
      ],
      "name": "setFrozenAmount",
      "outputs": [
        {
          "name": "res",
          "type": "bool"
        }
      ],
      "payable": false,
      "stateMutability": "nonpayable",
      "type": "function"
    },
    {
      "constant": false,
      "inputs": [
        {
          "name": "_address",
          "type": "address"
        },
        {
          "name": "_fields",
          "type": "uint256[4]"
        },
        {
          "name": "_loanId",
          "type": "uint256"
        }
      ],
      "name": "newLoan",
      "outputs": [
        {
          "name": "res",
          "type": "bool"
        }
      ],
      "payable": false,
      "stateMutability": "nonpayable",
      "type": "function"
    },
    {
      "constant": false,
      "inputs": [
        {
          "name": "_address",
          "type": "address"
        },
        {
          "name": "_fields",
          "type": "uint256[4]"
        }
      ],
      "name": "repayLoan",
      "outputs": [
        {
          "name": "res",
          "type": "bool"
        }
      ],
      "payable": false,
      "stateMutability": "nonpayable",
      "type": "function"
    }
  ],
  "bytecode": "0x608060405234801561001057600080fd5b50604051602080620042808339810160405251600160a060020a038116151561003857600080fd5b60008054600160a060020a03909216600160a060020a031990921691909117905561421780620000696000396000f30060806040526004361061020e5763ffffffff7c0100000000000000000000000000000000000000000000000000000000600035041663024769a181146102135780631709079e1461024b5780631953c3f9146102755780631ad36e6c146102ab5780631cd54185146102d8578063208505a5146102fc57806322a069f61461031d5780632c907740146103415780632e47efa61461036857806330011bcd1461038c5780633dd1b352146103b05780633ed7183c146103d157806346fdfbe3146103f257806348fd64e9146104165780634f04730814610464578063514a9c1a1461048b578063621edb60146104b257806364262ef4146104d6578063664e641f146104fd5780636a34a4cb146105215780638a95fee81461054557806393133f1614610569578063a00cb14b14610590578063a692d785146105b1578063b3050825146105d5578063b6311acd146105fc578063b731499114610620578063b777c4bc14610647578063baadb1ef1461066b578063d2c1801f1461068f578063d497f1f5146106b3578063d65ca07a146106dc578063d89afed714610703578063dca0d7471461072a578063dca11ab814610751578063dda54ab114610772578063ddf03c2e14610799578063de9a9a14146107c3578063ef97614c146107e7578063f37fcef11461080e578063f687df0e14610832578063f801edaa14610856578063fd5ab99d1461087a575b600080fd5b34801561021f57600080fd5b50610237600160a060020a03600435166024356108ca565b604080519115158252519081900360200190f35b34801561025757600080fd5b50610237600160a060020a036004351660243560ff60443516610a37565b34801561028157600080fd5b50610299600160a060020a0360043516602435610ac0565b60408051918252519081900360200190f35b3480156102b757600080fd5b50610237600160a060020a0360043516602435604435606435608435610bff565b3480156102e457600080fd5b50610299600160a060020a0360043516602435610d67565b34801561030857600080fd5b50610299600160a060020a0360043516610ea6565b34801561032957600080fd5b50610237600160a060020a0360043516602435610fd4565b34801561034d57600080fd5b50610237600160a060020a036004351660243560443561117b565b34801561037457600080fd5b50610237600160a060020a0360043516602435611303565b34801561039857600080fd5b50610299600160a060020a0360043516602435611470565b3480156103bc57600080fd5b50610299600160a060020a03600435166115af565b3480156103dd57600080fd5b50610299600160a060020a03600435166116dd565b3480156103fe57600080fd5b50610237600160a060020a036004351660243561180c565b34801561042257600080fd5b506040805160808082019092526102379160048035600160a060020a031692369260a49190602490849083908390808284375093965061195095505050505050565b34801561047057600080fd5b50610237600160a060020a0360043516602435604435611ad7565b34801561049757600080fd5b50610237600160a060020a0360043516602435604435611c5d565b3480156104be57600080fd5b50610237600160a060020a0360043516602435611de8565b3480156104e257600080fd5b50610237600160a060020a0360043516602435604435611f55565b34801561050957600080fd5b50610237600160a060020a03600435166024356120a4565b34801561052d57600080fd5b50610299600160a060020a036004351660243561220c565b34801561055157600080fd5b50610237600160a060020a036004351660243561234b565b34801561057557600080fd5b50610237600160a060020a036004351660243560443561248c565b34801561059c57600080fd5b50610299600160a060020a03600435166125cc565b3480156105bd57600080fd5b50610299600160a060020a03600435166024356126fa565b3480156105e157600080fd5b50610237600160a060020a0360043516602435604435612836565b34801561060857600080fd5b50610237600160a060020a03600435166024356129b8565b34801561062c57600080fd5b50610237600160a060020a0360043516602435604435612aee565b34801561065357600080fd5b50610237600160a060020a0360043516602435612c3c565b34801561067757600080fd5b50610237600160a060020a0360043516602435612d7e565b34801561069b57600080fd5b50610237600160a060020a0360043516602435612ec0565b3480156106bf57600080fd5b50610237600160a060020a03600435166024351515604435612ff7565b3480156106e857600080fd5b50610237600160a060020a0360043516602435604435613146565b34801561070f57600080fd5b50610237600160a060020a0360043516602435604435613284565b34801561073657600080fd5b50610237600160a060020a03600435166024356044356133c5565b34801561075d57600080fd5b50610299600160a060020a0360043516613515565b34801561077e57600080fd5b50610237600160a060020a0360043516602435604435613640565b3480156107a557600080fd5b50610237600160a060020a036004351660243560ff6044351661378c565b3480156107cf57600080fd5b50610237600160a060020a0360043516602435613868565b3480156107f357600080fd5b50610237600160a060020a036004351660243560443561399f565b34801561081a57600080fd5b50610237600160a060020a0360043516602435613ae1565b34801561083e57600080fd5b50610237600160a060020a0360043516602435613c6c565b34801561086257600080fd5b50610299600160a060020a0360043516602435613dad565b34801561088657600080fd5b506040805160808082019092526102379160048035600160a060020a031692369260a4919060249084908390839080828437509396505092359350613eec92505050565b604080518082018252600480825260e160020a633637b0b7026020830190815260008054855160e060020a63b513b7a502815233600160a060020a03818116968301968752602483019889528751604484015287519498899897919094169563b513b7a595929488949293909260640191908083838d5b83811015610959578181015183820152602001610941565b50505050905090810190601f1680156109865780820380516001836020036101000a031916815260200191505b509350505050602060405180830381600087803b1580156109a657600080fd5b505af11580156109ba573d6000803e3d6000fd5b505050506040513d60208110156109d057600080fd5b505115156109dd57600080fd5b600160a060020a0385166000908152600160205260409020600201549150610a0b828563ffffffff6141b916565b600160a060020a0386166000908152600160208190526040909120600201919091559250505092915050565b60008160ff1660011415610a8d5760005b600160a060020a0385166000908152600160209081526040808320878452600301909152902060060154610100900460ff166002811115610a8557fe5b149050610ab9565b8160ff1660021415610aa0576001610a48565b8160ff1660031415610ab3576002610a48565bfe5b5060015b9392505050565b604080518082018252600480825260e160020a633637b0b7026020830190815260008054855160e060020a63b513b7a5028152600160a060020a0333818116968301968752602483019889528751604484015287519498919093169563b513b7a59593948894919360640191908083838d5b83811015610b4a578181015183820152602001610b32565b50505050905090810190601f168015610b775780820380516001836020036101000a031916815260200191505b509350505050602060405180830381600087803b158015610b9757600080fd5b505af1158015610bab573d6000803e3d6000fd5b505050506040513d6020811015610bc157600080fd5b50511515610bce57600080fd5b5050600160a060020a0391909116600090815260016020908152604080832093835260039093019052206004015490565b604080518082018252600480825260e160020a633637b0b7026020830190815260008054855160e060020a63b513b7a5028152600160a060020a0333818116968301968752602483019889528751604484015287519498919093169563b513b7a59593948894919360640191908083838d5b83811015610c89578181015183820152602001610c71565b50505050905090810190601f168015610cb65780820380516001836020036101000a031916815260200191505b509350505050602060405180830381600087803b158015610cd657600080fd5b505af1158015610cea573d6000803e3d6000fd5b505050506040513d6020811015610d0057600080fd5b50511515610d0d57600080fd5b604080518781526020810186905280820185905290518691600160a060020a038a16917fef924a3ed33d67f9df0a285c2722a048949b1b3e309dbfe0f594b24999e2f3ed9181900360600190a35060019695505050505050565b604080518082018252600480825260e160020a633637b0b7026020830190815260008054855160e060020a63b513b7a5028152600160a060020a0333818116968301968752602483019889528751604484015287519498919093169563b513b7a59593948894919360640191908083838d5b83811015610df1578181015183820152602001610dd9565b50505050905090810190601f168015610e1e5780820380516001836020036101000a031916815260200191505b509350505050602060405180830381600087803b158015610e3e57600080fd5b505af1158015610e52573d6000803e3d6000fd5b505050506040513d6020811015610e6857600080fd5b50511515610e7557600080fd5b5050600160a060020a0391909116600090815260016020908152604080832093835260039093019052206002015490565b604080518082018252600480825260e160020a633637b0b7026020830190815260008054855160e060020a63b513b7a5028152600160a060020a0333818116968301968752602483019889528751604484015287519498919093169563b513b7a59593948894919360640191908083838d5b83811015610f30578181015183820152602001610f18565b50505050905090810190601f168015610f5d5780820380516001836020036101000a031916815260200191505b509350505050602060405180830381600087803b158015610f7d57600080fd5b505af1158015610f91573d6000803e3d6000fd5b505050506040513d6020811015610fa757600080fd5b50511515610fb457600080fd5b5050600160a060020a031660009081526001602052604090206005015490565b604080518082018252600480825260e160020a633637b0b7026020830190815260008054855160e060020a63b513b7a502815233600160a060020a03818116968301968752602483019889528751604484015287519498899897919094169563b513b7a595929488949293909260640191908083838d5b8381101561106357818101518382015260200161104b565b50505050905090810190601f1680156110905780820380516001836020036101000a031916815260200191505b509350505050602060405180830381600087803b1580156110b057600080fd5b505af11580156110c4573d6000803e3d6000fd5b505050506040513d60208110156110da57600080fd5b505115156110e757600080fd5b600160a060020a0385166000908152600160205260409020549150611112828563ffffffff6141b916565b600160a060020a0386166000818152600160205260409020919091557fd1631b09fb52f7d7af851a1b1f9f408b08940e9e5c07113c7113da9d6fa2a21761115f848763ffffffff6141b916565b60408051918252519081900360200190a2506001949350505050565b604080518082018252600480825260e160020a633637b0b7026020830190815260008054855160e060020a63b513b7a502815233600160a060020a03818116968301968752602483019889528751604484015287519498899897919094169563b513b7a595929488949293909260640191908083838d5b8381101561120a5781810151838201526020016111f2565b50505050905090810190601f1680156112375780820380516001836020036101000a031916815260200191505b509350505050602060405180830381600087803b15801561125757600080fd5b505af115801561126b573d6000803e3d6000fd5b505050506040513d602081101561128157600080fd5b5051151561128e57600080fd5b600160a060020a038616600090815260016020908152604080832087845260030190915290206002015491506112ca828663ffffffff6141b916565b600160a060020a038716600090815260016020818152604080842089855260030190915290912060020191909155925050509392505050565b604080518082018252600480825260e160020a633637b0b7026020830190815260008054855160e060020a63b513b7a502815233600160a060020a03818116968301968752602483019889528751604484015287519498899897919094169563b513b7a595929488949293909260640191908083838d5b8381101561139257818101518382015260200161137a565b50505050905090810190601f1680156113bf5780820380516001836020036101000a031916815260200191505b509350505050602060405180830381600087803b1580156113df57600080fd5b505af11580156113f3573d6000803e3d6000fd5b505050506040513d602081101561140957600080fd5b5051151561141657600080fd5b600160a060020a0385166000908152600160205260409020600501549150611444828563ffffffff6141b916565b600160a060020a0386166000908152600160208190526040909120600501919091559250505092915050565b604080518082018252600480825260e160020a633637b0b7026020830190815260008054855160e060020a63b513b7a5028152600160a060020a0333818116968301968752602483019889528751604484015287519498919093169563b513b7a59593948894919360640191908083838d5b838110156114fa5781810151838201526020016114e2565b50505050905090810190601f1680156115275780820380516001836020036101000a031916815260200191505b509350505050602060405180830381600087803b15801561154757600080fd5b505af115801561155b573d6000803e3d6000fd5b505050506040513d602081101561157157600080fd5b5051151561157e57600080fd5b5050600160a060020a0391909116600090815260016020908152604080832093835260039384019091529020015490565b604080518082018252600480825260e160020a633637b0b7026020830190815260008054855160e060020a63b513b7a5028152600160a060020a0333818116968301968752602483019889528751604484015287519498919093169563b513b7a59593948894919360640191908083838d5b83811015611639578181015183820152602001611621565b50505050905090810190601f1680156116665780820380516001836020036101000a031916815260200191505b509350505050602060405180830381600087803b15801561168657600080fd5b505af115801561169a573d6000803e3d6000fd5b505050506040513d60208110156116b057600080fd5b505115156116bd57600080fd5b5050600160a060020a031660009081526001602052604090206002015490565b604080518082018252600480825260e160020a633637b0b7026020830190815260008054855160e060020a63b513b7a5028152600160a060020a0333818116968301968752602483019889528751604484015287519498919093169563b513b7a59593948894919360640191908083838d5b8381101561176757818101518382015260200161174f565b50505050905090810190601f1680156117945780820380516001836020036101000a031916815260200191505b509350505050602060405180830381600087803b1580156117b457600080fd5b505af11580156117c8573d6000803e3d6000fd5b505050506040513d60208110156117de57600080fd5b505115156117eb57600080fd5b5050600160a060020a03166000908152600160208190526040909120015490565b604080518082018252600480825260e160020a633637b0b7026020830190815260008054855160e060020a63b513b7a5028152600160a060020a0333818116968301968752602483019889528751604484015287519498919093169563b513b7a59593948894919360640191908083838d5b8381101561189657818101518382015260200161187e565b50505050905090810190601f1680156118c35780820380516001836020036101000a031916815260200191505b509350505050602060405180830381600087803b1580156118e357600080fd5b505af11580156118f7573d6000803e3d6000fd5b505050506040513d602081101561190d57600080fd5b5051151561191a57600080fd5b5050600160a060020a03919091166000908152600160208181526040808420948452600390940190529190204260059091015590565b604080518082018252600480825260e160020a633637b0b7026020830190815260008054855160e060020a63b513b7a502815233600160a060020a03818116968301968752602483019889528751604484015287519498899897919094169563b513b7a595929488949293909260640191908083838d5b838110156119df5781810151838201526020016119c7565b50505050905090810190601f168015611a0c5780820380516001836020036101000a031916815260200191505b509350505050602060405180830381600087803b158015611a2c57600080fd5b505af1158015611a40573d6000803e3d6000fd5b505050506040513d6020811015611a5657600080fd5b50511515611a6357600080fd5b83516060850151611a7591879161117b565b9150611aa2611a9386866001602002015187600360200201516133c5565b8315159063ffffffff6141cb16565b9150611ab8611a93868660006020020151611de8565b9150611ace611a938686600160200201516108ca565b95945050505050565b604080518082018252600480825260e160020a633637b0b7026020830190815260008054855160e060020a63b513b7a502815233600160a060020a03818116968301968752602483019889528751604484015287519498899897919094169563b513b7a595929488949293909260640191908083838d5b83811015611b66578181015183820152602001611b4e565b50505050905090810190601f168015611b935780820380516001836020036101000a031916815260200191505b509350505050602060405180830381600087803b158015611bb357600080fd5b505af1158015611bc7573d6000803e3d6000fd5b505050506040513d6020811015611bdd57600080fd5b50511515611bea57600080fd5b600160a060020a038616600090815260016020818152604080842088855260030190915290912001549150611c25828663ffffffff6141b916565b600160a060020a0387166000908152600160208181526040808420898552600301909152909120810191909155925050509392505050565b604080518082018252600480825260e160020a633637b0b7026020830190815260008054855160e060020a63b513b7a502815233600160a060020a03818116968301968752602483019889528751604484015287519498899897919094169563b513b7a595929488949293909260640191908083838d5b83811015611cec578181015183820152602001611cd4565b50505050905090810190601f168015611d195780820380516001836020036101000a031916815260200191505b509350505050602060405180830381600087803b158015611d3957600080fd5b505af1158015611d4d573d6000803e3d6000fd5b505050506040513d6020811015611d6357600080fd5b50511515611d7057600080fd5b600160a060020a0386166000908152600160209081526040808320878452600390810190925290912001549150611dad828663ffffffff6141dc16565b600160a060020a0387166000908152600160208181526040808420898552600390810190925290922090910191909155925050509392505050565b604080518082018252600480825260e160020a633637b0b7026020830190815260008054855160e060020a63b513b7a502815233600160a060020a03818116968301968752602483019889528751604484015287519498899897919094169563b513b7a595929488949293909260640191908083838d5b83811015611e77578181015183820152602001611e5f565b50505050905090810190601f168015611ea45780820380516001836020036101000a031916815260200191505b509350505050602060405180830381600087803b158015611ec457600080fd5b505af1158015611ed8573d6000803e3d6000fd5b505050506040513d6020811015611eee57600080fd5b50511515611efb57600080fd5b600160a060020a038516600090815260016020819052604090912001549150611f2a828563ffffffff6141b916565b600160a060020a03861660009081526001602081905260409091208101919091559250505092915050565b604080518082018252600480825260e160020a633637b0b7026020830190815260008054855160e060020a63b513b7a502815233600160a060020a03818116968301968752602483019889528751604484015287519498899897919094169563b513b7a595929488949293909260640191908083838d5b83811015611fe4578181015183820152602001611fcc565b50505050905090810190601f1680156120115780820380516001836020036101000a031916815260200191505b509350505050602060405180830381600087803b15801561203157600080fd5b505af1158015612045573d6000803e3d6000fd5b505050506040513d602081101561205b57600080fd5b5051151561206857600080fd5b600160a060020a038616600090815260016020908152604080832087845260030190915290206002015491506112ca828663ffffffff6141dc16565b604080518082018252600480825260e160020a633637b0b7026020830190815260008054855160e060020a63b513b7a5028152600160a060020a0333818116968301968752602483019889528751604484015287519498919093169563b513b7a59593948894919360640191908083838d5b8381101561212e578181015183820152602001612116565b50505050905090810190601f16801561215b5780820380516001836020036101000a031916815260200191505b509350505050602060405180830381600087803b15801561217b57600080fd5b505af115801561218f573d6000803e3d6000fd5b505050506040513d60208110156121a557600080fd5b505115156121b257600080fd5b600160a060020a038416600081815260016020908152604091829020869055815186815291517fd1631b09fb52f7d7af851a1b1f9f408b08940e9e5c07113c7113da9d6fa2a2179281900390910190a25060019392505050565b604080518082018252600480825260e160020a633637b0b7026020830190815260008054855160e060020a63b513b7a5028152600160a060020a0333818116968301968752602483019889528751604484015287519498919093169563b513b7a59593948894919360640191908083838d5b8381101561229657818101518382015260200161227e565b50505050905090810190601f1680156122c35780820380516001836020036101000a031916815260200191505b509350505050602060405180830381600087803b1580156122e357600080fd5b505af11580156122f7573d6000803e3d6000fd5b505050506040513d602081101561230d57600080fd5b5051151561231a57600080fd5b5050600160a060020a0391909116600090815260016020908152604080832093835260039093019052206005015490565b604080518082018252600480825260e160020a633637b0b7026020830190815260008054855160e060020a63b513b7a502815233600160a060020a03818116968301968752602483019889528751604484015287519498899897919094169563b513b7a595929488949293909260640191908083838d5b838110156123da5781810151838201526020016123c2565b50505050905090810190601f1680156124075780820380516001836020036101000a031916815260200191505b509350505050602060405180830381600087803b15801561242757600080fd5b505af115801561243b573d6000803e3d6000fd5b505050506040513d602081101561245157600080fd5b5051151561245e57600080fd5b600160a060020a0385166000908152600160205260409020600501549150611444828563ffffffff6141dc16565b604080518082018252600480825260e160020a633637b0b7026020830190815260008054855160e060020a63b513b7a5028152600160a060020a0333818116968301968752602483019889528751604484015287519498919093169563b513b7a59593948894919360640191908083838d5b838110156125165781810151838201526020016124fe565b50505050905090810190601f1680156125435780820380516001836020036101000a031916815260200191505b509350505050602060405180830381600087803b15801561256357600080fd5b505af1158015612577573d6000803e3d6000fd5b505050506040513d602081101561258d57600080fd5b5051151561259a57600080fd5b5050600160a060020a039290921660009081526001602081815260408084209584526003909501905292902082015590565b604080518082018252600480825260e160020a633637b0b7026020830190815260008054855160e060020a63b513b7a5028152600160a060020a0333818116968301968752602483019889528751604484015287519498919093169563b513b7a59593948894919360640191908083838d5b8381101561265657818101518382015260200161263e565b50505050905090810190601f1680156126835780820380516001836020036101000a031916815260200191505b509350505050602060405180830381600087803b1580156126a357600080fd5b505af11580156126b7573d6000803e3d6000fd5b505050506040513d60208110156126cd57600080fd5b505115156126da57600080fd5b5050600160a060020a031660009081526001602052604090206004015490565b604080518082018252600480825260e160020a633637b0b7026020830190815260008054855160e060020a63b513b7a5028152600160a060020a0333818116968301968752602483019889528751604484015287519498919093169563b513b7a59593948894919360640191908083838d5b8381101561278457818101518382015260200161276c565b50505050905090810190601f1680156127b15780820380516001836020036101000a031916815260200191505b509350505050602060405180830381600087803b1580156127d157600080fd5b505af11580156127e5573d6000803e3d6000fd5b505050506040513d60208110156127fb57600080fd5b5051151561280857600080fd5b5050600160a060020a0391909116600090815260016020908152604080832093835260039093019052205490565b604080518082018252600480825260e160020a633637b0b7026020830190815260008054855160e060020a63b513b7a502815233600160a060020a03818116968301968752602483019889528751604484015287519498899897919094169563b513b7a595929488949293909260640191908083838d5b838110156128c55781810151838201526020016128ad565b50505050905090810190601f1680156128f25780820380516001836020036101000a031916815260200191505b509350505050602060405180830381600087803b15801561291257600080fd5b505af1158015612926573d6000803e3d6000fd5b505050506040513d602081101561293c57600080fd5b5051151561294957600080fd5b600160a060020a03861660009081526001602090815260408083208784526003019091529020549150612982828663ffffffff6141dc16565b600160a060020a038716600090815260016020818152604080842089855260030190915290912091909155925050509392505050565b604080518082018252600480825260e160020a633637b0b7026020830190815260008054855160e060020a63b513b7a5028152600160a060020a0333818116968301968752602483019889528751604484015287519498919093169563b513b7a59593948894919360640191908083838d5b83811015612a42578181015183820152602001612a2a565b50505050905090810190601f168015612a6f5780820380516001836020036101000a031916815260200191505b509350505050602060405180830381600087803b158015612a8f57600080fd5b505af1158015612aa3573d6000803e3d6000fd5b505050506040513d6020811015612ab957600080fd5b50511515612ac657600080fd5b5050600160a060020a0391909116600090815260016020819052604090912081019190915590565b604080518082018252600480825260e160020a633637b0b7026020830190815260008054855160e060020a63b513b7a502815233600160a060020a03818116968301968752602483019889528751604484015287519498899897919094169563b513b7a595929488949293909260640191908083838d5b83811015612b7d578181015183820152602001612b65565b50505050905090810190601f168015612baa5780820380516001836020036101000a031916815260200191505b509350505050602060405180830381600087803b158015612bca57600080fd5b505af1158015612bde573d6000803e3d6000fd5b505050506040513d6020811015612bf457600080fd5b50511515612c0157600080fd5b600160a060020a038616600090815260016020818152604080842088855260030190915290912001549150611c25828663ffffffff6141dc16565b604080518082018252600480825260e160020a633637b0b7026020830190815260008054855160e060020a63b513b7a502815233600160a060020a03818116968301968752602483019889528751604484015287519498899897919094169563b513b7a595929488949293909260640191908083838d5b83811015612ccb578181015183820152602001612cb3565b50505050905090810190601f168015612cf85780820380516001836020036101000a031916815260200191505b509350505050602060405180830381600087803b158015612d1857600080fd5b505af1158015612d2c573d6000803e3d6000fd5b505050506040513d6020811015612d4257600080fd5b50511515612d4f57600080fd5b600160a060020a038516600090815260016020819052604090912001549150611f2a828563ffffffff6141dc16565b604080518082018252600480825260e160020a633637b0b7026020830190815260008054855160e060020a63b513b7a5028152600160a060020a0333818116968301968752602483019889528751604484015287519498919093169563b513b7a59593948894919360640191908083838d5b83811015612e08578181015183820152602001612df0565b50505050905090810190601f168015612e355780820380516001836020036101000a031916815260200191505b509350505050602060405180830381600087803b158015612e5557600080fd5b505af1158015612e69573d6000803e3d6000fd5b505050506040513d6020811015612e7f57600080fd5b50511515612e8c57600080fd5b5050600160a060020a0391909116600090815260016020908152604080832093835260039093019052206006015460ff1690565b604080518082018252600480825260e160020a633637b0b7026020830190815260008054855160e060020a63b513b7a5028152600160a060020a0333818116968301968752602483019889528751604484015287519498919093169563b513b7a59593948894919360640191908083838d5b83811015612f4a578181015183820152602001612f32565b50505050905090810190601f168015612f775780820380516001836020036101000a031916815260200191505b509350505050602060405180830381600087803b158015612f9757600080fd5b505af1158015612fab573d6000803e3d6000fd5b505050506040513d6020811015612fc157600080fd5b50511515612fce57600080fd5b5050600160a060020a039190911660009081526001602081905260409091206002019190915590565b604080518082018252600480825260e160020a633637b0b7026020830190815260008054855160e060020a63b513b7a5028152600160a060020a0333818116968301968752602483019889528751604484015287519498919093169563b513b7a59593948894919360640191908083838d5b83811015613081578181015183820152602001613069565b50505050905090810190601f1680156130ae5780820380516001836020036101000a031916815260200191505b509350505050602060405180830381600087803b1580156130ce57600080fd5b505af11580156130e2573d6000803e3d6000fd5b505050506040513d60208110156130f857600080fd5b5051151561310557600080fd5b5050600160a060020a0392909216600090815260016020818152604080842095845260039095019052929020600601805460ff191691151591909117905590565b604080518082018252600480825260e160020a633637b0b7026020830190815260008054855160e060020a63b513b7a5028152600160a060020a0333818116968301968752602483019889528751604484015287519498919093169563b513b7a59593948894919360640191908083838d5b838110156131d05781810151838201526020016131b8565b50505050905090810190601f1680156131fd5780820380516001836020036101000a031916815260200191505b509350505050602060405180830381600087803b15801561321d57600080fd5b505af1158015613231573d6000803e3d6000fd5b505050506040513d602081101561324757600080fd5b5051151561325457600080fd5b5050600160a060020a03929092166000908152600160208181526040808420958452600390950190529290205590565b604080518082018252600480825260e160020a633637b0b7026020830190815260008054855160e060020a63b513b7a5028152600160a060020a0333818116968301968752602483019889528751604484015287519498919093169563b513b7a59593948894919360640191908083838d5b8381101561330e5781810151838201526020016132f6565b50505050905090810190601f16801561333b5780820380516001836020036101000a031916815260200191505b509350505050602060405180830381600087803b15801561335b57600080fd5b505af115801561336f573d6000803e3d6000fd5b505050506040513d602081101561338557600080fd5b5051151561339257600080fd5b5050600160a060020a03929092166000908152600160208181526040808420958452600390950190529290206002015590565b604080518082018252600480825260e160020a633637b0b7026020830190815260008054855160e060020a63b513b7a502815233600160a060020a03818116968301968752602483019889528751604484015287519498899897919094169563b513b7a595929488949293909260640191908083838d5b8381101561345457818101518382015260200161343c565b50505050905090810190601f1680156134815780820380516001836020036101000a031916815260200191505b509350505050602060405180830381600087803b1580156134a157600080fd5b505af11580156134b5573d6000803e3d6000fd5b505050506040513d60208110156134cb57600080fd5b505115156134d857600080fd5b600160a060020a0386166000908152600160209081526040808320878452600390810190925290912001549150611dad828663ffffffff6141b916565b604080518082018252600480825260e160020a633637b0b7026020830190815260008054855160e060020a63b513b7a5028152600160a060020a0333818116968301968752602483019889528751604484015287519498919093169563b513b7a59593948894919360640191908083838d5b8381101561359f578181015183820152602001613587565b50505050905090810190601f1680156135cc5780820380516001836020036101000a031916815260200191505b509350505050602060405180830381600087803b1580156135ec57600080fd5b505af1158015613600573d6000803e3d6000fd5b505050506040513d602081101561361657600080fd5b5051151561362357600080fd5b5050600160a060020a031660009081526001602052604090205490565b604080518082018252600480825260e160020a633637b0b7026020830190815260008054855160e060020a63b513b7a502815233600160a060020a03818116968301968752602483019889528751604484015287519498899897919094169563b513b7a595929488949293909260640191908083838d5b838110156136cf5781810151838201526020016136b7565b50505050905090810190601f1680156136fc5780820380516001836020036101000a031916815260200191505b509350505050602060405180830381600087803b15801561371c57600080fd5b505af1158015613730573d6000803e3d6000fd5b505050506040513d602081101561374657600080fd5b5051151561375357600080fd5b600160a060020a03861660009081526001602090815260408083208784526003019091529020549150612982828663ffffffff6141b916565b60008160ff16600114156137d957600160a060020a03841660009081526001602090815260408083208684526003019091528120600601805461ff001916610100835b0217905550610ab5565b8160ff166002141561381f57600160a060020a0384166000908152600160208181526040808420878552600301909152909120600601805461ff001916610100836137cf565b8160ff1660031415610ab357600160a060020a0384166000908152600160209081526040808320868452600301909152902060060180546002919061ff001916610100836137cf565b604080518082018252600480825260e160020a633637b0b7026020830190815260008054855160e060020a63b513b7a5028152600160a060020a0333818116968301968752602483019889528751604484015287519498919093169563b513b7a59593948894919360640191908083838d5b838110156138f25781810151838201526020016138da565b50505050905090810190601f16801561391f5780820380516001836020036101000a031916815260200191505b509350505050602060405180830381600087803b15801561393f57600080fd5b505af1158015613953573d6000803e3d6000fd5b505050506040513d602081101561396957600080fd5b5051151561397657600080fd5b5050600160a060020a039190911660009081526001602081905260409091206005019190915590565b604080518082018252600480825260e160020a633637b0b7026020830190815260008054855160e060020a63b513b7a5028152600160a060020a0333818116968301968752602483019889528751604484015287519498919093169563b513b7a59593948894919360640191908083838d5b83811015613a29578181015183820152602001613a11565b50505050905090810190601f168015613a565780820380516001836020036101000a031916815260200191505b509350505050602060405180830381600087803b158015613a7657600080fd5b505af1158015613a8a573d6000803e3d6000fd5b505050506040513d6020811015613aa057600080fd5b50511515613aad57600080fd5b5050600160a060020a0392909216600090815260016020818152604080842095845260039586019091529091209092015590565b604080518082018252600480825260e160020a633637b0b7026020830190815260008054855160e060020a63b513b7a502815233600160a060020a03818116968301968752602483019889528751604484015287519498899897919094169563b513b7a595929488949293909260640191908083838d5b83811015613b70578181015183820152602001613b58565b50505050905090810190601f168015613b9d5780820380516001836020036101000a031916815260200191505b509350505050602060405180830381600087803b158015613bbd57600080fd5b505af1158015613bd1573d6000803e3d6000fd5b505050506040513d6020811015613be757600080fd5b50511515613bf457600080fd5b600160a060020a0385166000908152600160205260409020549150613c1f828563ffffffff6141dc16565b600160a060020a0386166000818152600160205260409020919091557fd1631b09fb52f7d7af851a1b1f9f408b08940e9e5c07113c7113da9d6fa2a21761115f848763ffffffff6141dc16565b604080518082018252600480825260e160020a633637b0b7026020830190815260008054855160e060020a63b513b7a502815233600160a060020a03818116968301968752602483019889528751604484015287519498899897919094169563b513b7a595929488949293909260640191908083838d5b83811015613cfb578181015183820152602001613ce3565b50505050905090810190601f168015613d285780820380516001836020036101000a031916815260200191505b509350505050602060405180830381600087803b158015613d4857600080fd5b505af1158015613d5c573d6000803e3d6000fd5b505050506040513d6020811015613d7257600080fd5b50511515613d7f57600080fd5b600160a060020a0385166000908152600160205260409020600201549150610a0b828563ffffffff6141dc16565b604080518082018252600480825260e160020a633637b0b7026020830190815260008054855160e060020a63b513b7a5028152600160a060020a0333818116968301968752602483019889528751604484015287519498919093169563b513b7a59593948894919360640191908083838d5b83811015613e37578181015183820152602001613e1f565b50505050905090810190601f168015613e645780820380516001836020036101000a031916815260200191505b509350505050602060405180830381600087803b158015613e8457600080fd5b505af1158015613e98573d6000803e3d6000fd5b505050506040513d6020811015613eae57600080fd5b50511515613ebb57600080fd5b5050600160a060020a0391909116600090815260016020818152604080842094845260039094019052919020015490565b604080518082018252600480825260e160020a633637b0b7026020830190815260008054855160e060020a63b513b7a5028152600160a060020a0333818116968301968752602483019889528751604484015287519498899889989097939095169563b513b7a595929488946064909101918083838d5b83811015613f7b578181015183820152602001613f63565b50505050905090810190601f168015613fa85780820380516001836020036101000a031916815260200191505b509350505050602060405180830381600087803b158015613fc857600080fd5b505af1158015613fdc573d6000803e3d6000fd5b505050506040513d6020811015613ff257600080fd5b50511515613fff57600080fd5b600160a060020a038716600090815260016020818152604080842060048101549301548151610100810183528b5181528b840151938101939093528a518383015260608301859052908a015160808301524260a083015260c082018490529195509093509060e0820152600160a060020a03881660009081526001602081815260408084208a85526003908101835293819020855181559185015192820192909255908301516002808301919091556060840151928201929092556080830151600482015560a0830151600582015560c083015160068201805460ff19169115159190911780825560e0850151929361ff00199091169061010090849081111561410557fe5b021790555061411f9150849050600163ffffffff6141dc16565b600160a060020a03881660009081526001602090815260409091206004019190915586015161414f9083906141dc565b600160a060020a038816600081815260016020818152604092839020909101939093558851815189815293840152805191927fa0e3a862fc19418f7628d8c92488a979428ab9b09a5bf2b4736aab971371b8e4929081900390910190a25060019695505050505050565b6000828211156141c557fe5b50900390565b6000828015610ab957509092915050565b600082820183811015610ab957fe00a165627a7a723058200389f71fd26f559e91a2b7caef453ffdf3c3304637d69abf8bdd494ff899d2f80029",
  "source": "pragma solidity ^0.4.23;\n\nimport \"./Index.sol\";\nimport \"./Pauseable.sol\";\nimport \"./SafeMath.sol\";\nimport \"./LogicOp.sol\";\n\n/**\n* @title Ledger\n* The Ledger contract stores the data for all the loan dispersed maintains only the data structure\n* of the loan details\n*/\ncontract LoanStorage{ \n\n\tusing SafeMath for uint256;\n\tusing LogicOp for bool;\t\n\n\tenum LoanStatus {\n\t\tACTIVE,\n\t\tOVERDUE, \n\t\tCLOSED\n\t}\t\t\t\t\t\t\t\t\t\t\t\t//todo define all statuses\n\n\tstruct Loan {\n\t\tuint256 loanAmount;\t\t\t\t\t\t\t//loan amount granted , includes interest, other charges etc\n\t\tuint256 disbursedLoanAmount;\t\t\t\t//loan amount customer got , excluding charges \n\t\tuint256 remainingDebt;\t\t\t\t\t\t//amount the customer owes to the bank , excludes penalty\n\t\tuint256 penalty;\t\t\t\t\t\t\t//penalty amount the customer owes to the bank\n\t\tuint256 duration;\t\t\t\t\t\t\t//days\n\t\tuint256 startDate;\n\t\tbool penaltyFlag;\n\t\tLoanStatus loanStatus;\n\t}\t\n\n\tstruct LoanProfile {\n\t\tuint256 eligibility;\n\t\tuint256 totalRemainingDebt;\n\t\tuint256 totalPenalty;\t\t\t\t\t\t\n\t\tmapping (uint256 => Loan) allLoans;\n\t\tuint256 totalLoans;\t\n\t\tuint256 frozenAmount;\n\t}\n\n\tIndex private index;\t\n\tmapping (address => LoanProfile) private userLoanProfile;\n\t\n\tconstructor (address _indexAddress) public {\n\t\trequire(_indexAddress != 0x0);\n\t\tindex = Index(_indexAddress);\n\t}\n\n\tevent newLoanAdded(address indexed _address,uint256 _loanId,uint256 _loanAmount);\n\tevent loanRepay(address indexed _address,uint256 _loanId,uint256 indexed _how, uint256 _pricipal, uint256 _penalty);\n\tevent updatedEligibility(address indexed _address,uint256 _value);\n\n\tfunction emitRepay (address _address,uint256 _loanId,uint256 _how, uint256 _pricipal, uint256 _penalty) public onlySpecified('loan') returns(bool res) {\n      \temit loanRepay(_address,_loanId,_how,_pricipal,_penalty);\n      \treturn true;\n  \t}\n\t\n\tmodifier onlySpecified(string _contractName) { \n\t\trequire (index.checkContract(msg.sender,_contractName)); \n\t\t_; \n\t}\t\n\n\t//====================================================================================================================\n\t//====================================================================================================================\n\n\t// getters and setters\n\n\t// LOAN STATUS \n\n\tfunction setLoanStatus (address _address,uint256 _loanId,uint8 flag)public returns(bool res) {\n\t\tif(flag == 1)\n\t\t    userLoanProfile[_address].allLoans[_loanId].loanStatus = LoanStatus.ACTIVE;\n\t\telse if(flag == 2)\n\t\t\tuserLoanProfile[_address].allLoans[_loanId].loanStatus = LoanStatus.OVERDUE;\n\t\telse if(flag == 3)\n\t\t\tuserLoanProfile[_address].allLoans[_loanId].loanStatus = LoanStatus.CLOSED;\n\t\telse\n\t\t\tassert (false);\n\t\treturn true;\n\t\t\t\n\t}\n\t\n\tfunction checkLoanStatus (address _address,uint256 _loanId,uint8 flag)public view returns(bool res) {\n\t\tif(flag == 1)\n\t\t    return userLoanProfile[_address].allLoans[_loanId].loanStatus == LoanStatus.ACTIVE;\n\t\telse if(flag == 2)\n\t\t\treturn userLoanProfile[_address].allLoans[_loanId].loanStatus == LoanStatus.OVERDUE;\n\t\telse if(flag == 3)\n\t\t\treturn userLoanProfile[_address].allLoans[_loanId].loanStatus == LoanStatus.CLOSED;\n\t\telse\n\t\t\tassert (false);\n\t\treturn true;\n\t}\n\n\t//=====================================ELIGIBILITY=====================================================//\n\n\tfunction setEligibility (address _address,uint256 _amount) onlySpecified('loan') public returns(bool res) {\n\t\tuserLoanProfile[_address].eligibility = _amount;\n\t\temit updatedEligibility(_address, _amount);\n\t\treturn true;\n\t}\n\n\tfunction addEligibility (address _address,uint256 _amount) onlySpecified(\"loan\") public returns(bool res) {\n\t    uint256 e = userLoanProfile[_address].eligibility;\n\t\tuserLoanProfile[_address].eligibility = e.add(_amount);\n\t\temit updatedEligibility(_address, e.add(_amount));\n\t\treturn true;\n\t}\n\n\tfunction subEligibility (address _address,uint256 _amount) onlySpecified(\"loan\") public returns(bool res) {\n\t    uint256 e = userLoanProfile[_address].eligibility;\n\t\tuserLoanProfile[_address].eligibility = e.sub(_amount);\n\t\temit updatedEligibility(_address, e.sub(_amount));\n\t\treturn true;\n\t}\t\t\n\t\n\tfunction getEligibility (address _address) onlySpecified('loan') public view returns(uint256 res) {\n\t\treturn userLoanProfile[_address].eligibility;\n\t}\n\n\t//=============================================TOTAL DEBT==================================================//\n\n\tfunction addTotalRemainingDebt (address _address,uint256 _amount) onlySpecified(\"loan\") public returns(bool res) {\n\t    uint256 u = userLoanProfile[_address].totalRemainingDebt;\n\t\tuserLoanProfile[_address].totalRemainingDebt = u.add(_amount);\n\t\treturn true;\n\t}\n\n\tfunction subTotalRemainingDebt (address _address,uint256 _amount) onlySpecified(\"loan\") public returns(bool res) {\n\t\tuint256 u = userLoanProfile[_address].totalRemainingDebt;\n\t\tuserLoanProfile[_address].totalRemainingDebt = u.sub(_amount);\n\t\treturn true;\n\t}\t\n\n\tfunction setTotalRemainingDebt (address _address,uint256 _amount) onlySpecified('loan') public returns(bool res) {\n\t\tuserLoanProfile[_address].totalRemainingDebt = _amount;\n\t\treturn true;\n\t}\t\n\n\tfunction getTotalRemainingDebt (address _address) onlySpecified('loan') public view returns(uint256 res) {\n\t\treturn userLoanProfile[_address].totalRemainingDebt;\n\t}\n\n\t//=============================================TOTAL PENALTY=============================================\n\n\tfunction addTotalPenalty (address _address,uint256 _amount) onlySpecified(\"loan\") public returns(bool res) {\n\t    uint256 u = userLoanProfile[_address].totalPenalty;\n\t\tuserLoanProfile[_address].totalPenalty = u.add(_amount);\n\t\treturn true;\n\t}\n\t\n\tfunction subTotalPenalty (address _address,uint256 _amount) onlySpecified(\"loan\") public returns(bool res) {\n\t\tuint256 u = userLoanProfile[_address].totalPenalty;\n\t\tuserLoanProfile[_address].totalPenalty = u.sub(_amount);\n\t\treturn true;\n\t}\n\t\n\n\tfunction setTotalPenalty (address _address,uint256 _amount) onlySpecified('loan') public returns(bool res) {\n\t\tuserLoanProfile[_address].totalPenalty = _amount;\n\t\treturn true;\n\t}\t\n\n\tfunction getTotalPenalty (address _address) onlySpecified('loan') public view returns(uint256 res) {\n\t\treturn userLoanProfile[_address].totalPenalty;\n\t}\n\n\n\t//============================================= PENALTY =============================================\n\n\tfunction addPenalty (address _userAddress,uint256 _amount,uint256 loanId) onlySpecified('loan') public returns(bool res) {\n\t\tuint256 u = userLoanProfile[_userAddress].allLoans[loanId].penalty;\n\t\tuserLoanProfile[_userAddress].allLoans[loanId].penalty = u.add(_amount);\n\t\treturn true;\t\n\t}\n\n\tfunction subPenalty (address _userAddress,uint256 _amount,uint256 loanId) onlySpecified('loan') public returns(bool res){\n\t\tuint256 u = userLoanProfile[_userAddress].allLoans[loanId].penalty;\n\t\tuserLoanProfile[_userAddress].allLoans[loanId].penalty = u.sub(_amount);\t\n\t\treturn true;\n\t}\n\n\tfunction setPenalty (address _userAddress,uint256 _amount,uint256 loanId) onlySpecified('loan') public returns(bool res) {\n\t\tuserLoanProfile[_userAddress].allLoans[loanId].penalty = _amount;\n\t\treturn true;\n\t}\n\n\tfunction getPenalty (address _userAddress,uint256 loanId) public onlySpecified('loan') view returns(uint256 res){\n\t\treturn userLoanProfile[_userAddress].allLoans[loanId].penalty;\n\t}\n\n\t//=============================================REMAINING DEBT=============================================\n\n\tfunction addRemainingDebt (address _userAddress,uint256 _amount,uint256 loanId) onlySpecified('loan') public returns(bool res) {\n\t\tuint256 u = userLoanProfile[_userAddress].allLoans[loanId].remainingDebt;\n\t\tuserLoanProfile[_userAddress].allLoans[loanId].remainingDebt = u.add(_amount);\n\t\treturn true;\t\n\t}\n\n\tfunction subRemainingDebt (address _userAddress,uint256 _amount,uint256 loanId) onlySpecified('loan') public returns(bool res){\n\t\tuint256 u = userLoanProfile[_userAddress].allLoans[loanId].remainingDebt;\n\t\tuserLoanProfile[_userAddress].allLoans[loanId].remainingDebt = u.sub(_amount);\t\n\t\treturn true;\n\t}\n\n\tfunction setRemainingDebt (address _userAddress,uint256 _amount,uint256 loanId) onlySpecified('loan') public returns(bool res) {\n\t\tuserLoanProfile[_userAddress].allLoans[loanId].remainingDebt = _amount;\n\t\treturn true;\n\t}\n\n\tfunction getRemainingDebt (address _userAddress,uint256 loanId)public onlySpecified('loan') view returns(uint256 res){\n\t\treturn userLoanProfile[_userAddress].allLoans[loanId].remainingDebt;\n\t}\n\n\t// =============================================LOAN AMOUNT\t=============================================\n\n\tfunction getLoanAmount (address _userAddress,uint256 loanId)public onlySpecified('loan') view returns(uint256 res) {\n\t\treturn userLoanProfile[_userAddress].allLoans[loanId].loanAmount;\n\t}\n\n\tfunction addLoanAmount (address _userAddress,uint256 _amount,uint256 loanId)public onlySpecified('loan') returns(bool res) {\n\t\tuint256 u = userLoanProfile[_userAddress].allLoans[loanId].loanAmount;\n\t\tuserLoanProfile[_userAddress].allLoans[loanId].loanAmount = u.add(_amount);\t\n\t\treturn true;\n\t}\n\t\n\tfunction subLoanAmount (address _userAddress,uint256 _amount,uint256 loanId)public onlySpecified('loan') returns(bool res) {\n\t\tuint256 u = userLoanProfile[_userAddress].allLoans[loanId].loanAmount;\n\t\tuserLoanProfile[_userAddress].allLoans[loanId].loanAmount = u.sub(_amount);\t\n\t\treturn true;\n\t}\n\n\tfunction setLoanAmount (address _userAddress,uint256 _amount,uint256 loanId)public onlySpecified('loan') returns(bool res){\n\t\tuserLoanProfile[_userAddress].allLoans[loanId].loanAmount = _amount;\n\t\treturn true;\n\t}\n\n\t// ============================================= DISBURSED LOAN AMOUNT =============================================\n\n\tfunction getDisbursedLoanAmount (address _userAddress,uint256 loanId) public onlySpecified('loan') view returns(uint256 res) {\n\t\treturn userLoanProfile[_userAddress].allLoans[loanId].disbursedLoanAmount;\n\t}\n\n\tfunction addDisbursedLoanAmount (address _userAddress,uint256 _amount,uint256 loanId) public onlySpecified('loan') returns(bool res) {\n\t\tuint256 u = userLoanProfile[_userAddress].allLoans[loanId].disbursedLoanAmount;\n\t\tuserLoanProfile[_userAddress].allLoans[loanId].disbursedLoanAmount = u.add(_amount);\t\n\t\treturn true;\n\t}\n\t\n\tfunction subDisbursedLoanAmount (address _userAddress,uint256 _amount,uint256 loanId) public onlySpecified('loan') returns(bool res) {\n\t\tuint256 u = userLoanProfile[_userAddress].allLoans[loanId].disbursedLoanAmount;\n\t\tuserLoanProfile[_userAddress].allLoans[loanId].disbursedLoanAmount = u.sub(_amount);\t\n\t\treturn true;\n\t}\n\n\tfunction setDisbursedLoanAmount (address _userAddress,uint256 _amount,uint256 loanId) public onlySpecified('loan') returns(bool res){\n\t\tuserLoanProfile[_userAddress].allLoans[loanId].disbursedLoanAmount = _amount;\n\t\treturn true;\n\t}\n\n\t// ============================================= GET LOANS =============================================\n\n\tfunction getTotalLoans (address _address) onlySpecified('loan') public view returns(uint256 res) {\n\t\treturn userLoanProfile[_address].totalLoans;\n\t}\n\n\tfunction getDuration (address _address,uint256 loanId) onlySpecified('loan')public view returns(uint256 res) {\n\t\treturn userLoanProfile[_address].allLoans[loanId].duration;\n\t}\n\n\t// ============================================= START DATE =============================================\n\n\tfunction setStartDate (address _userAddress, uint256 loanId) public onlySpecified('loan') returns(bool res){\n\t\tuserLoanProfile[_userAddress].allLoans[loanId].startDate = now;\n\t\treturn true;\n\t}\n\n\tfunction getStartDate (address _userAddress, uint256 loanId) public onlySpecified('loan') view returns(uint256 res) {\n\t\treturn userLoanProfile[_userAddress].allLoans[loanId].startDate;\n\t}\n\n\t// ============================================= WAIVE FLAG ============================================= \n\n\tfunction setWaiveFlag(address _address,bool _flag,uint256 _loanId) public onlySpecified('loan') returns(bool res){\n\t\tuserLoanProfile[_address].allLoans[_loanId].penaltyFlag = _flag;\n\t\treturn true;\n\t}\n\n\tfunction getWaiveFlag (address _address,uint256 _loanId) public onlySpecified('loan') view returns(bool res){\n\t\treturn userLoanProfile[_address].allLoans[_loanId].penaltyFlag;\n\t}\n\t\n\t// ============================================= FREEZE AMOUNT =============================================\n\n\tfunction addFrozenAmount (address _address,uint256 _amount)public onlySpecified('loan') returns(bool res){\n\t\tuint256 f = userLoanProfile[_address].frozenAmount;\n\t\tuserLoanProfile[_address].frozenAmount = f.add(_amount);\n\t\treturn true;\n\t}\n\n\tfunction subFrozenAmount (address _address,uint256 _amount)public onlySpecified('loan') returns(bool res){\n\t\tuint256 f = userLoanProfile[_address].frozenAmount;\n\t\tuserLoanProfile[_address].frozenAmount = f.sub(_amount);\n\t\treturn true;\n\t}\n\t\n\tfunction getFrozenAmount (address _address)public view onlySpecified('loan') returns(uint256 res){\n\t\treturn userLoanProfile[_address].frozenAmount;\n\t}\n\n\tfunction setFrozenAmount (address _address,uint256 _amount)public onlySpecified('loan') returns(bool res){\n\t\tuserLoanProfile[_address].frozenAmount = _amount;\n\t\treturn true;\n\t}\n\n\t//============================================= LOAN AND REPAY============================================= \n\n\n\tfunction newLoan (address _address,uint256[4] _fields, uint256 _loanId) onlySpecified('loan') public returns(bool res) {\n\t\tuint256 total = userLoanProfile[_address].totalLoans;\n\t\tuint256 totalDebt = userLoanProfile[_address].totalRemainingDebt;\n\t\tuserLoanProfile[_address].allLoans[_loanId] = Loan(\n\t\t\t_fields[0],\n\t\t\t_fields[1],\n\t\t\t_fields[0],\n\t\t\t0,\n\t\t\t_fields[2],\n\t\t\tnow,\n\t\t\tfalse,\n\t\t\tLoanStatus.ACTIVE\n\t\t);\n\t\tuserLoanProfile[_address].totalLoans = total.add(1);\n\t\tuserLoanProfile[_address].totalRemainingDebt = totalDebt.add(_fields[1]);\n\t\temit newLoanAdded(_address,_loanId,_fields[0]);\n\t\treturn true;\n\t}\n\n\tfunction repayLoan (address _address,uint256[4] _fields) public onlySpecified('loan') returns(bool res) {\n\t\tbool result = subRemainingDebt(_address, _fields[0], _fields[3]);\n\t\tresult = result.and(subPenalty(_address, _fields[1], _fields[3]));\n\t\tresult = result.and(subTotalRemainingDebt(_address, _fields[0]));\n\t\tresult = result.and(subTotalPenalty(_address, _fields[1]));\n\t\treturn result;\n\t}\n\n}",
  "sourcePath": "/Users/rahulgolash/Rahul/Github/BaETH/contracts/LoanStorage.sol",
  "compiler": {
    "name": "solc",
    "version": "0.4.23+commit.124ca40d.Emscripten.clang"
  },
  "schemaVersion": "2.0.0",
  "updatedAt": "2018-05-27T07:16:30.570Z"
}