{
  "contractName": "RegistryStorage",
  "abi": [
    {
      "inputs": [
        {
          "name": "_indexAddress",
          "type": "address"
        },
        {
          "name": "_address",
          "type": "address"
        }
      ],
      "payable": false,
      "stateMutability": "nonpayable",
      "type": "constructor"
    },
    {
      "anonymous": false,
      "inputs": [
        {
          "indexed": true,
          "name": "_address",
          "type": "address"
        },
        {
          "indexed": false,
          "name": "id",
          "type": "uint256"
        }
      ],
      "name": "customerRegistered",
      "type": "event"
    },
    {
      "anonymous": false,
      "inputs": [
        {
          "indexed": true,
          "name": "_address",
          "type": "address"
        },
        {
          "indexed": false,
          "name": "id",
          "type": "uint256"
        }
      ],
      "name": "userRegistered",
      "type": "event"
    },
    {
      "anonymous": false,
      "inputs": [
        {
          "indexed": true,
          "name": "_customer",
          "type": "address"
        },
        {
          "indexed": false,
          "name": "value",
          "type": "bool"
        },
        {
          "indexed": false,
          "name": "who",
          "type": "string"
        }
      ],
      "name": "pausedEntity",
      "type": "event"
    },
    {
      "anonymous": false,
      "inputs": [
        {
          "indexed": true,
          "name": "_customer",
          "type": "address"
        },
        {
          "indexed": true,
          "name": "",
          "type": "address"
        }
      ],
      "name": "escrowRegistered",
      "type": "event"
    },
    {
      "constant": true,
      "inputs": [
        {
          "name": "_user",
          "type": "address"
        }
      ],
      "name": "isUser",
      "outputs": [
        {
          "name": "res",
          "type": "bool"
        }
      ],
      "payable": false,
      "stateMutability": "view",
      "type": "function"
    },
    {
      "constant": true,
      "inputs": [
        {
          "name": "_customer",
          "type": "address"
        }
      ],
      "name": "isCustomer",
      "outputs": [
        {
          "name": "res",
          "type": "bool"
        }
      ],
      "payable": false,
      "stateMutability": "view",
      "type": "function"
    },
    {
      "constant": true,
      "inputs": [
        {
          "name": "_user",
          "type": "address"
        }
      ],
      "name": "isCustomerFrozen",
      "outputs": [
        {
          "name": "res",
          "type": "bool"
        }
      ],
      "payable": false,
      "stateMutability": "view",
      "type": "function"
    },
    {
      "constant": true,
      "inputs": [
        {
          "name": "_user",
          "type": "address"
        }
      ],
      "name": "isCustomerBlocked",
      "outputs": [
        {
          "name": "res",
          "type": "bool"
        }
      ],
      "payable": false,
      "stateMutability": "view",
      "type": "function"
    },
    {
      "constant": true,
      "inputs": [
        {
          "name": "_user",
          "type": "address"
        }
      ],
      "name": "isCustomerActive",
      "outputs": [
        {
          "name": "res",
          "type": "bool"
        }
      ],
      "payable": false,
      "stateMutability": "view",
      "type": "function"
    },
    {
      "constant": true,
      "inputs": [
        {
          "name": "_address",
          "type": "address"
        }
      ],
      "name": "isEscrow",
      "outputs": [
        {
          "name": "res",
          "type": "bool"
        }
      ],
      "payable": false,
      "stateMutability": "view",
      "type": "function"
    },
    {
      "constant": false,
      "inputs": [
        {
          "name": "_user",
          "type": "address"
        },
        {
          "name": "_user_identifier",
          "type": "uint256"
        }
      ],
      "name": "registerUser",
      "outputs": [
        {
          "name": "",
          "type": "bool"
        }
      ],
      "payable": false,
      "stateMutability": "nonpayable",
      "type": "function"
    },
    {
      "constant": false,
      "inputs": [
        {
          "name": "_customer",
          "type": "address"
        },
        {
          "name": "_details",
          "type": "uint256"
        }
      ],
      "name": "registerCustomer",
      "outputs": [
        {
          "name": "res",
          "type": "bool"
        }
      ],
      "payable": false,
      "stateMutability": "nonpayable",
      "type": "function"
    },
    {
      "constant": false,
      "inputs": [
        {
          "name": "_address",
          "type": "address"
        }
      ],
      "name": "activateEscrow",
      "outputs": [
        {
          "name": "res",
          "type": "bool"
        }
      ],
      "payable": false,
      "stateMutability": "nonpayable",
      "type": "function"
    },
    {
      "constant": false,
      "inputs": [
        {
          "name": "_address",
          "type": "address"
        }
      ],
      "name": "deactivateEscrow",
      "outputs": [
        {
          "name": "res",
          "type": "bool"
        }
      ],
      "payable": false,
      "stateMutability": "nonpayable",
      "type": "function"
    },
    {
      "constant": true,
      "inputs": [
        {
          "name": "_user",
          "type": "address"
        }
      ],
      "name": "getUser",
      "outputs": [
        {
          "name": "",
          "type": "uint256"
        }
      ],
      "payable": false,
      "stateMutability": "view",
      "type": "function"
    },
    {
      "constant": true,
      "inputs": [
        {
          "name": "_customer",
          "type": "address"
        }
      ],
      "name": "getCustomer",
      "outputs": [
        {
          "name": "",
          "type": "uint256"
        }
      ],
      "payable": false,
      "stateMutability": "view",
      "type": "function"
    },
    {
      "constant": false,
      "inputs": [
        {
          "name": "_address",
          "type": "address"
        }
      ],
      "name": "pauseUser",
      "outputs": [
        {
          "name": "",
          "type": "bool"
        }
      ],
      "payable": false,
      "stateMutability": "nonpayable",
      "type": "function"
    },
    {
      "constant": false,
      "inputs": [
        {
          "name": "_address",
          "type": "address"
        }
      ],
      "name": "activateUser",
      "outputs": [
        {
          "name": "",
          "type": "bool"
        }
      ],
      "payable": false,
      "stateMutability": "nonpayable",
      "type": "function"
    },
    {
      "constant": false,
      "inputs": [
        {
          "name": "_address",
          "type": "address"
        }
      ],
      "name": "freezeCustomer",
      "outputs": [
        {
          "name": "res",
          "type": "bool"
        }
      ],
      "payable": false,
      "stateMutability": "nonpayable",
      "type": "function"
    },
    {
      "constant": false,
      "inputs": [
        {
          "name": "_address",
          "type": "address"
        }
      ],
      "name": "unFreezeCustomer",
      "outputs": [
        {
          "name": "res",
          "type": "bool"
        }
      ],
      "payable": false,
      "stateMutability": "nonpayable",
      "type": "function"
    },
    {
      "constant": false,
      "inputs": [
        {
          "name": "_address",
          "type": "address"
        }
      ],
      "name": "blockCustomer",
      "outputs": [
        {
          "name": "res",
          "type": "bool"
        }
      ],
      "payable": false,
      "stateMutability": "nonpayable",
      "type": "function"
    },
    {
      "constant": false,
      "inputs": [
        {
          "name": "_address",
          "type": "address"
        }
      ],
      "name": "unBlockCustomer",
      "outputs": [
        {
          "name": "res",
          "type": "bool"
        }
      ],
      "payable": false,
      "stateMutability": "nonpayable",
      "type": "function"
    }
  ],
  "bytecode": "0x608060405234801561001057600080fd5b506040516040806114a8833981016040528051602090910151600160a060020a038216151561003e57600080fd5b60038054600160a060020a03938416600160a060020a0319909116179055166000908152602081905260409020650212331123128155600101805460ff1916905561141a8061008e6000396000f3006080604052600436106100fa5763ffffffff7c0100000000000000000000000000000000000000000000000000000000600035041662db88ff81146100ff57806328fd5e8314610134578063292ee532146101555780634209fff11461017657806342fc0468146101975780636f462bc5146101b85780636f77926b146101d95780639eaede731461020c578063b166a09f1461022d578063b4acfe1c1461024e578063bfcb90791461026f578063cb949e5114610290578063cf3f3381146102b1578063dec15f5b146102d5578063f01c49c5146102f6578063fa0b5e5514610317578063fb0f9dfd1461033b578063fbaa0a5f1461035c575b600080fd5b34801561010b57600080fd5b50610120600160a060020a036004351661037d565b604080519115158252519081900360200190f35b34801561014057600080fd5b50610120600160a060020a03600435166104dd565b34801561016157600080fd5b50610120600160a060020a036004351661055f565b34801561018257600080fd5b50610120600160a060020a036004351661069d565b3480156101a357600080fd5b50610120600160a060020a03600435166106ef565b3480156101c457600080fd5b50610120600160a060020a0360043516610726565b3480156101e557600080fd5b506101fa600160a060020a0360043516610878565b60408051918252519081900360200190f35b34801561021857600080fd5b50610120600160a060020a03600435166108c0565b34801561023957600080fd5b50610120600160a060020a0360043516610a0e565b34801561025a57600080fd5b50610120600160a060020a0360043516610a2c565b34801561027b57600080fd5b50610120600160a060020a0360043516610bf9565b34801561029c57600080fd5b506101fa600160a060020a0360043516610db6565b3480156102bd57600080fd5b50610120600160a060020a0360043516602435610e14565b3480156102e157600080fd5b50610120600160a060020a0360043516610faf565b34801561030257600080fd5b50610120600160a060020a03600435166110f2565b34801561032357600080fd5b50610120600160a060020a03600435166024356110fb565b34801561034757600080fd5b50610120600160a060020a0360043516611291565b34801561036857600080fd5b50610120600160a060020a036004351661129a565b604080518082018252600881526000805160206113cf83398151915260208201908152600354835160e060020a63b513b7a5028152600160a060020a03338181166004840190815260248401978852865160448501528651600098939095169563b513b7a595929488949293606490910191908083838d5b8381101561040d5781810151838201526020016103f5565b50505050905090810190601f16801561043a5780820380516001836020036101000a031916815260200191505b509350505050602060405180830381600087803b15801561045a57600080fd5b505af115801561046e573d6000803e3d6000fd5b505050506040513d602081101561048457600080fd5b5051151561049157600080fd5b61049a836106ef565b156104a457600080fd5b600160a060020a03831660009081526001602081905260409091208101805460029260ff1990911690835b021790555060019392505050565b60006104e76113b7565b600160a060020a03831660009081526001602081815260408084208151808301909252805482529283015490929183019060ff16600381111561052657fe5b600381111561053157fe5b905250915060008260200151600381111561054857fe5b14158015610557575081518114155b949350505050565b604080518082018252600881526000805160206113cf83398151915260208201908152600354835160e060020a63b513b7a5028152600160a060020a03338181166004840190815260248401978852865160448501528651600098939095169563b513b7a595929488949293606490910191908083838d5b838110156105ef5781810151838201526020016105d7565b50505050905090810190601f16801561061c5780820380516001836020036101000a031916815260200191505b509350505050602060405180830381600087803b15801561063c57600080fd5b505af1158015610650573d6000803e3d6000fd5b505050506040513d602081101561066657600080fd5b5051151561067357600080fd5b5050600160a060020a03166000908152600260205260409020805460ff1916600190811790915590565b60006106a76113b7565b50600160a060020a0382166000908152602081815260408083208151808301909252805482526001015460ff1615801592820183905290929161055757509051141592915050565b600060025b600160a060020a0383166000908152600160208190526040909120015460ff16600381111561071f57fe5b1492915050565b604080518082018252600881526000805160206113cf83398151915260208201908152600354835160e060020a63b513b7a5028152600160a060020a03338181166004840190815260248401978852865160448501528651600098939095169563b513b7a595929488949293606490910191908083838d5b838110156107b657818101518382015260200161079e565b50505050905090810190601f1680156107e35780820380516001836020036101000a031916815260200191505b509350505050602060405180830381600087803b15801561080357600080fd5b505af1158015610817573d6000803e3d6000fd5b505050506040513d602081101561082d57600080fd5b5051151561083a57600080fd5b61084383611291565b151561084e57600080fd5b600160a060020a03831660009081526001602081905260409091208101805460ff191682806104cf565b60006108826113b7565b5050600160a060020a0316600090815260208181526040918290208251808401909352805480845260019091015460ff161515929091019190915290565b604080518082018252600881526000805160206113cf83398151915260208201908152600354835160e060020a63b513b7a5028152600160a060020a03338181166004840190815260248401978852865160448501528651600098939095169563b513b7a595929488949293606490910191908083838d5b83811015610950578181015183820152602001610938565b50505050905090810190601f16801561097d5780820380516001836020036101000a031916815260200191505b509350505050602060405180830381600087803b15801561099d57600080fd5b505af11580156109b1573d6000803e3d6000fd5b505050506040513d60208110156109c757600080fd5b505115156109d457600080fd5b6109dd83610a0e565b15156109e857600080fd5b5050600160a060020a03166000908152600260205260409020805460ff19169055600190565b600160a060020a031660009081526002602052604090205460ff1690565b604080518082018252600881526000805160206113cf83398151915260208201908152600354835160e060020a63b513b7a5028152600160a060020a03338181166004840190815260248401978852865160448501528651600098939095169563b513b7a595929488949293606490910191908083838d5b83811015610abc578181015183820152602001610aa4565b50505050905090810190601f168015610ae95780820380516001836020036101000a031916815260200191505b509350505050602060405180830381600087803b158015610b0957600080fd5b505af1158015610b1d573d6000803e3d6000fd5b505050506040513d6020811015610b3357600080fd5b50511515610b4057600080fd5b600160a060020a03831660009081526020819052604090206001015460ff161515610b6a57600080fd5b600160a060020a038316600081815260208181526040808320600101805460ff1916905580519283529082018190526004828201527f75736572000000000000000000000000000000000000000000000000000000006060830152517f5a71015fc26045386eaa1a4e45bf14df3ce7073f378385267ca5fd276246c27a9181900360800190a250600192915050565b604080518082018252600881526000805160206113cf83398151915260208201908152600354835160e060020a63b513b7a5028152600160a060020a03338181166004840190815260248401978852865160448501528651600098939095169563b513b7a595929488949293606490910191908083838d5b83811015610c89578181015183820152602001610c71565b50505050905090810190601f168015610cb65780820380516001836020036101000a031916815260200191505b509350505050602060405180830381600087803b158015610cd657600080fd5b505af1158015610cea573d6000803e3d6000fd5b505050506040513d6020811015610d0057600080fd5b50511515610d0d57600080fd5b610d168361069d565b1515610d2157600080fd5b600160a060020a038316600081815260208181526040918290206001908101805460ff19168217905582519081529081018290526004818301527f7573657200000000000000000000000000000000000000000000000000000000606082015290517f5a71015fc26045386eaa1a4e45bf14df3ce7073f378385267ca5fd276246c27a9181900360800190a250600192915050565b6000610dc06113b7565b600160a060020a038316600090815260016020818152604092839020835180850190945280548452918201549083019060ff166003811115610dfe57fe5b6003811115610e0957fe5b905250519392505050565b604080518082018252600881526000805160206113cf83398151915260208201908152600354835160e060020a63b513b7a5028152600160a060020a03338181166004840190815260248401978852865160448501528651600098939095169563b513b7a595929488949293606490910191908083838d5b83811015610ea4578181015183820152602001610e8c565b50505050905090810190601f168015610ed15780820380516001836020036101000a031916815260200191505b509350505050602060405180830381600087803b158015610ef157600080fd5b505af1158015610f05573d6000803e3d6000fd5b505050506040513d6020811015610f1b57600080fd5b50511515610f2857600080fd5b610f31846104dd565b15610f3b57600080fd5b821515610f4757600080fd5b600160a060020a0384166000818152600160208181526040928390208781558201805460ff1916909217909155815186815291517f8bf2edac0c66db6a279fa0223f4332e80143d733bd7625cbb72fe3c76d37f9be9281900390910190a25060019392505050565b604080518082018252600881526000805160206113cf83398151915260208201908152600354835160e060020a63b513b7a5028152600160a060020a03338181166004840190815260248401978852865160448501528651600098939095169563b513b7a595929488949293606490910191908083838d5b8381101561103f578181015183820152602001611027565b50505050905090810190601f16801561106c5780820380516001836020036101000a031916815260200191505b509350505050602060405180830381600087803b15801561108c57600080fd5b505af11580156110a0573d6000803e3d6000fd5b505050506040513d60208110156110b657600080fd5b505115156110c357600080fd5b600160a060020a03831660009081526001602081905260409091208101805460039260ff1990911690836104cf565b600060016106f4565b604080518082018252600881526000805160206113cf83398151915260208201908152600354835160e060020a63b513b7a5028152600160a060020a03338181166004840190815260248401978852865160448501528651600098939095169563b513b7a595929488949293606490910191908083838d5b8381101561118b578181015183820152602001611173565b50505050905090810190601f1680156111b85780820380516001836020036101000a031916815260200191505b509350505050602060405180830381600087803b1580156111d857600080fd5b505af11580156111ec573d6000803e3d6000fd5b505050506040513d602081101561120257600080fd5b5051151561120f57600080fd5b6112188461069d565b1561122257600080fd5b82151561122e57600080fd5b600160a060020a03841660008181526020818152604091829020868155600101805460ff19169055815186815291517ff8fe81af5e6ad44d9448eb44bdc329b359ee33d6cb562228bf4344883badebe69281900390910190a25060019392505050565b600060036106f4565b604080518082018252600881526000805160206113cf83398151915260208201908152600354835160e060020a63b513b7a5028152600160a060020a03338181166004840190815260248401978852865160448501528651600098939095169563b513b7a595929488949293606490910191908083838d5b8381101561132a578181015183820152602001611312565b50505050905090810190601f1680156113575780820380516001836020036101000a031916815260200191505b509350505050602060405180830381600087803b15801561137757600080fd5b505af115801561138b573d6000803e3d6000fd5b505050506040513d60208110156113a157600080fd5b505115156113ae57600080fd5b610843836106ef565b60408051808201909152600080825260208201529056007265676973747279000000000000000000000000000000000000000000000000a165627a7a72305820aedab8bd4730b7980fffb31ada59e545ab943156600ede9f42fc212e481373da0029",
  "source": "pragma solidity ^0.4.23;\n\n\nimport \"./SafeMath.sol\";\nimport \"./Index.sol\";\n/**\n* @title RegistryDao\n* @dev The Registry contract is pausable and facilitates basic user & customer onboarding process\n* functions, this simplifies the implementation of \"user permissions\".\n*/\ncontract RegistryStorage{\n\n\tusing SafeMath for uint256;\n\n\tenum State {\n\t\tUNREGISTERED,\n\t\tACTIVE, \n\t\tFREEZE, \n\t\tBLOCK\n\t}\n\t\n\tstruct User {\n\t\tuint256 identifier;\n\t\tbool paused;  \t\t// to be changed\n\t}\n\n\tstruct Customer{\n\t\tuint256 identifier;\n\t\tState state;\n\t}\n\n\tmapping (address => User)     private userMapping;\n\tmapping (address => Customer) private customerMapping;\n\tmapping (address => bool)     private escrowMapping;\n\t\n\n\tIndex private index;\n\n\tconstructor (address _indexAddress,address _address) public {\n\t\trequire(_indexAddress != 0x0);\n\t\tindex = Index(_indexAddress);\n\t\tuserMapping[_address].identifier = 0x21233112312; //add the first user \n\t\tuserMapping[_address].paused = false;\n\t}\n\t\n\tevent customerRegistered(address indexed _address,uint256 id);\n\tevent userRegistered(address indexed _address,uint256 id);\n\tevent pausedEntity(address indexed _customer,bool value,string who);\n\tevent escrowRegistered(address indexed _customer,address indexed );\n\n\tmodifier onlySpecified(string _contractName) { \n\t\trequire (index.checkContract(msg.sender,_contractName)); \n\t\t_; \n\t}\t\t\t\n\n\tfunction isUser(address _user) public view returns(bool res) {\n\t\tUser memory u = userMapping[_user];\n\t\tuint256 temp;\n\t\treturn (!u.paused)&&(temp!=u.identifier);\n\t}\n\n\tfunction isCustomer (address _customer) public view returns(bool res) {\n\t\tCustomer memory c = customerMapping[_customer];\n\t\tuint256 temp;\n\t\treturn (c.state != State.UNREGISTERED)&&(temp!=c.identifier);\n\t}\n\n\tfunction isCustomerFrozen (address _user) public view returns(bool res){\n\t\treturn customerMapping[_user].state == State.FREEZE;\n\t}\n\n\tfunction isCustomerBlocked (address _user)public view returns(bool res){\n\t\treturn customerMapping[_user].state == State.BLOCK;\n\t}\t\n\n\tfunction isCustomerActive (address _user)public view returns(bool res){\n\t\treturn customerMapping[_user].state == State.ACTIVE;\n\t}\t\n\n\tfunction isEscrow(address _address)public view returns(bool res){\n\t\treturn escrowMapping[_address];\n\t}\t\n\n\tfunction registerUser(address _user, uint256 _user_identifier) public onlySpecified('registry') returns (bool){\n\t\trequire(!isUser(_user));\n\t\trequire (_user_identifier !=0 );\n\t\tuserMapping[_user].identifier = _user_identifier;\n\t\tuserMapping[_user].paused     = false;\n\t\temit userRegistered(_user,_user_identifier);\n\t\treturn true;\n\t}\n\n\tfunction registerCustomer(address _customer,uint256 _details)public onlySpecified('registry') returns(bool res) {\n\t\trequire(!isCustomer(_customer));\n\t\trequire (_details !=0 );\n\t\tcustomerMapping[_customer].identifier = _details;\n\t\tcustomerMapping[_customer].state = State.ACTIVE;\n\t\temit customerRegistered(_customer,_details);\n\t\treturn true;\n\t}\n\n\tfunction activateEscrow(address _address) public onlySpecified('registry') returns (bool res){\n\t\t//require(!isEscrow(_address));\n\t\tescrowMapping[_address] = true;\n\t\treturn true;\n\t}\n\n\tfunction deactivateEscrow (address _address) public onlySpecified('registry') returns(bool res){\n\t\trequire (isEscrow(_address));\n\t\tescrowMapping[_address] = false;\n\t\treturn true;\n\t}\n\n\tfunction getUser(address _user) public view returns (uint256){\n\t\tUser memory u = userMapping[_user];\n\t\treturn u.identifier;\n\t}\n\n\tfunction getCustomer (address _customer)public view returns(uint256) {\n\t\tCustomer memory c = customerMapping[_customer];\n\t\treturn c.identifier;\n\t}\n\n\tfunction pauseUser(address _address) public onlySpecified('registry') returns(bool){\n\t\trequire(isUser(_address));\n\t\tuserMapping[_address].paused = true;\n\t\temit pausedEntity(_address,true,\"user\");\n\t\treturn true;\n\t}\n\n\tfunction activateUser(address _address) public onlySpecified('registry') returns(bool){\n\t\trequire(userMapping[_address].paused);\n\t\tuserMapping[_address].paused = false;\n\t\temit pausedEntity(_address,false,\"user\");\n\t\treturn true;\n\t}\n\t\n\tfunction freezeCustomer (address _address) public onlySpecified('registry') returns(bool res){\n\t\trequire (!isCustomerFrozen(_address));\n\t\tcustomerMapping[_address].state = State.FREEZE;\n\t\treturn true;\n\t}\n\n\tfunction unFreezeCustomer (address _address)public onlySpecified('registry') returns(bool res){\n\t\trequire (isCustomerFrozen(_address));\n\t\tcustomerMapping[_address].state = State.ACTIVE;\n\t\treturn true;\n\t}\n\t\n\tfunction blockCustomer(address _address)public onlySpecified('registry') returns(bool res){\n\t\tcustomerMapping[_address].state = State.BLOCK;\n\t\treturn true;\n\t}\n\n\tfunction unBlockCustomer(address _address)public onlySpecified('registry') returns (bool res){\n\t\trequire(isCustomerBlocked(_address));\n\t\tcustomerMapping[_address].state = State.ACTIVE;\n\t\treturn true;\n\t}\n\t\n}",
  "sourcePath": "/Users/rahulgolash/Rahul/Github/BaETH/contracts/RegistryStorage.sol",
  "compiler": {
    "name": "solc",
    "version": "0.4.23+commit.124ca40d.Emscripten.clang"
  },
  "schemaVersion": "2.0.0",
  "updatedAt": "2018-05-27T07:16:30.512Z"
}