{
  "contractName": "Registry",
  "abi": [
    {
      "inputs": [
        {
          "name": "_indexAddress",
          "type": "address"
        }
      ],
      "payable": false,
      "stateMutability": "nonpayable",
      "type": "constructor"
    },
    {
      "constant": true,
      "inputs": [
        {
          "name": "_address",
          "type": "address"
        }
      ],
      "name": "ifUser",
      "outputs": [
        {
          "name": "res",
          "type": "bool"
        }
      ],
      "payable": false,
      "stateMutability": "view",
      "type": "function"
    },
    {
      "constant": true,
      "inputs": [
        {
          "name": "_address",
          "type": "address"
        }
      ],
      "name": "ifCustomer",
      "outputs": [
        {
          "name": "res",
          "type": "bool"
        }
      ],
      "payable": false,
      "stateMutability": "view",
      "type": "function"
    },
    {
      "constant": true,
      "inputs": [
        {
          "name": "_address",
          "type": "address"
        }
      ],
      "name": "isCustomerFrozen",
      "outputs": [
        {
          "name": "res",
          "type": "bool"
        }
      ],
      "payable": false,
      "stateMutability": "view",
      "type": "function"
    },
    {
      "constant": true,
      "inputs": [
        {
          "name": "_address",
          "type": "address"
        }
      ],
      "name": "isCustomerBlocked",
      "outputs": [
        {
          "name": "res",
          "type": "bool"
        }
      ],
      "payable": false,
      "stateMutability": "view",
      "type": "function"
    },
    {
      "constant": true,
      "inputs": [
        {
          "name": "_address",
          "type": "address"
        }
      ],
      "name": "isCustomerActive",
      "outputs": [
        {
          "name": "res",
          "type": "bool"
        }
      ],
      "payable": false,
      "stateMutability": "view",
      "type": "function"
    },
    {
      "constant": true,
      "inputs": [
        {
          "name": "_escrow",
          "type": "address"
        }
      ],
      "name": "isEscrow",
      "outputs": [
        {
          "name": "res",
          "type": "bool"
        }
      ],
      "payable": false,
      "stateMutability": "view",
      "type": "function"
    },
    {
      "constant": false,
      "inputs": [
        {
          "name": "_address",
          "type": "address"
        },
        {
          "name": "_id",
          "type": "uint256"
        }
      ],
      "name": "registerUser",
      "outputs": [
        {
          "name": "res",
          "type": "bool"
        }
      ],
      "payable": false,
      "stateMutability": "nonpayable",
      "type": "function"
    },
    {
      "constant": false,
      "inputs": [
        {
          "name": "_address",
          "type": "address"
        }
      ],
      "name": "pauseUser",
      "outputs": [
        {
          "name": "res",
          "type": "bool"
        }
      ],
      "payable": false,
      "stateMutability": "nonpayable",
      "type": "function"
    },
    {
      "constant": false,
      "inputs": [
        {
          "name": "_address",
          "type": "address"
        }
      ],
      "name": "activateUser",
      "outputs": [
        {
          "name": "res",
          "type": "bool"
        }
      ],
      "payable": false,
      "stateMutability": "nonpayable",
      "type": "function"
    },
    {
      "constant": false,
      "inputs": [
        {
          "name": "_address",
          "type": "address"
        },
        {
          "name": "_id",
          "type": "uint256"
        }
      ],
      "name": "registerCustomer",
      "outputs": [
        {
          "name": "res",
          "type": "bool"
        }
      ],
      "payable": false,
      "stateMutability": "nonpayable",
      "type": "function"
    },
    {
      "constant": false,
      "inputs": [
        {
          "name": "_address",
          "type": "address"
        },
        {
          "name": "_escrow",
          "type": "address"
        },
        {
          "name": "_id",
          "type": "uint256"
        }
      ],
      "name": "registerCustomerEscrow",
      "outputs": [
        {
          "name": "res",
          "type": "bool"
        }
      ],
      "payable": false,
      "stateMutability": "nonpayable",
      "type": "function"
    },
    {
      "constant": true,
      "inputs": [
        {
          "name": "_address",
          "type": "address"
        }
      ],
      "name": "getCustomer",
      "outputs": [
        {
          "name": "res",
          "type": "uint256"
        }
      ],
      "payable": false,
      "stateMutability": "view",
      "type": "function"
    },
    {
      "constant": true,
      "inputs": [
        {
          "name": "_address",
          "type": "address"
        }
      ],
      "name": "getUser",
      "outputs": [
        {
          "name": "res",
          "type": "uint256"
        }
      ],
      "payable": false,
      "stateMutability": "view",
      "type": "function"
    },
    {
      "constant": false,
      "inputs": [
        {
          "name": "_address",
          "type": "address"
        }
      ],
      "name": "pauseEscrow",
      "outputs": [
        {
          "name": "res",
          "type": "bool"
        }
      ],
      "payable": false,
      "stateMutability": "nonpayable",
      "type": "function"
    },
    {
      "constant": false,
      "inputs": [
        {
          "name": "_address",
          "type": "address"
        }
      ],
      "name": "activateEscrow",
      "outputs": [
        {
          "name": "res",
          "type": "bool"
        }
      ],
      "payable": false,
      "stateMutability": "nonpayable",
      "type": "function"
    },
    {
      "constant": false,
      "inputs": [
        {
          "name": "_address",
          "type": "address"
        }
      ],
      "name": "freezeCustomer",
      "outputs": [
        {
          "name": "res",
          "type": "bool"
        }
      ],
      "payable": false,
      "stateMutability": "nonpayable",
      "type": "function"
    },
    {
      "constant": false,
      "inputs": [
        {
          "name": "_address",
          "type": "address"
        }
      ],
      "name": "unFreezeCustomer",
      "outputs": [
        {
          "name": "res",
          "type": "bool"
        }
      ],
      "payable": false,
      "stateMutability": "nonpayable",
      "type": "function"
    }
  ],
  "bytecode": "0x608060405234801561001057600080fd5b50604051602080611c488339810160405251600160a060020a038116151561003757600080fd5b60008054600160a060020a03909216600160a060020a0319909216919091179055611be1806100676000396000f3006080604052600436106100d65763ffffffff60e060020a600035041662db88ff81146100db5780630a63faca146101105780631782c71814610131578063292ee5321461015257806332e5c16d1461017357806342fc0468146101945780636f77926b146101b5578063b166a09f146101e8578063b4acfe1c14610209578063bfcb90791461022a578063cb949e511461024b578063cf3f33811461026c578063d0b2f55414610290578063f01c49c5146102ba578063fa0b5e55146102db578063fb0f9dfd146102ff578063fbaa0a5f14610320575b600080fd5b3480156100e757600080fd5b506100fc600160a060020a0360043516610341565b604080519115158252519081900360200190f35b34801561011c57600080fd5b506100fc600160a060020a03600435166105b4565b34801561013d57600080fd5b506100fc600160a060020a03600435166106e2565b34801561015e57600080fd5b506100fc600160a060020a036004351661082f565b34801561017f57600080fd5b506100fc600160a060020a0360043516610a03565b3480156101a057600080fd5b506100fc600160a060020a0360043516610aff565b3480156101c157600080fd5b506101d6600160a060020a0360043516610bfb565b60408051918252519081900360200190f35b3480156101f457600080fd5b506100fc600160a060020a0360043516610d0c565b34801561021557600080fd5b506100fc600160a060020a0360043516610e3c565b34801561023657600080fd5b506100fc600160a060020a0360043516610f4d565b34801561025757600080fd5b506101d6600160a060020a036004351661105e565b34801561027857600080fd5b506100fc600160a060020a036004351660243561116f565b34801561029c57600080fd5b506100fc600160a060020a0360043581169060243516604435611287565b3480156102c657600080fd5b506100fc600160a060020a036004351661164d565b3480156102e757600080fd5b506100fc600160a060020a0360043516602435611749565b34801561030b57600080fd5b506100fc600160a060020a0360043516611861565b34801561032c57600080fd5b506100fc600160a060020a036004351661195d565b60408051808201825260048082527f6c6f616e00000000000000000000000000000000000000000000000000000000602083019081526000805485517fb513b7a5000000000000000000000000000000000000000000000000000000008152600160a060020a0333818116968301968752602483019889528751604484015287519498919093169563b513b7a59593948894919360640191908083838d5b838110156103f75781810151838201526020016103df565b50505050905090810190601f1680156104245780820380516001836020036101000a031916815260200191505b509350505050602060405180830381600087803b15801561044457600080fd5b505af1158015610458573d6000803e3d6000fd5b505050506040513d602081101561046e57600080fd5b5051151561047b57600080fd5b600080546040805160e060020a633581777302815260206004820181905260096024830152600080516020611b9683398151915260448301529151600160a060020a0390931693633581777393606480840194939192918390030190829087803b1580156104e857600080fd5b505af11580156104fc573d6000803e3d6000fd5b505050506040513d602081101561051257600080fd5b5051604080517edb88ff000000000000000000000000000000000000000000000000000000008152600160a060020a0386811660048301529151919092169162db88ff9160248083019260209291908290030181600087803b15801561057757600080fd5b505af115801561058b573d6000803e3d6000fd5b505050506040513d60208110156105a157600080fd5b505115156105ab57fe5b50600192915050565b600080546040805160e060020a633581777302815260206004820181905260096024830152600080516020611b9683398151915260448301529151600160a060020a039093169263358177739260648084019391929182900301818787803b15801561061f57600080fd5b505af1158015610633573d6000803e3d6000fd5b505050506040513d602081101561064957600080fd5b5051604080517f28fd5e83000000000000000000000000000000000000000000000000000000008152600160a060020a038581166004830152915191909216916328fd5e839160248083019260209291908290030181600087803b1580156106b057600080fd5b505af11580156106c4573d6000803e3d6000fd5b505050506040513d60208110156106da57600080fd5b505192915050565b60006106ed33610a03565b15156106f557fe5b600080546040805160e060020a633581777302815260206004820181905260096024830152600080516020611b9683398151915260448301529151600160a060020a0390931693633581777393606480840194939192918390030190829087803b15801561076257600080fd5b505af1158015610776573d6000803e3d6000fd5b505050506040513d602081101561078c57600080fd5b5051604080517f9eaede73000000000000000000000000000000000000000000000000000000008152600160a060020a03858116600483015291519190921691639eaede739160248083019260209291908290030181600087803b1580156107f357600080fd5b505af1158015610807573d6000803e3d6000fd5b505050506040513d602081101561081d57600080fd5b5051151561082757fe5b506001919050565b60008061083b33610a03565b806108fa5750600080546040805160e060020a6335817773028152602060048201819052600560248301527f746f6b656e00000000000000000000000000000000000000000000000000000060448301529151600160a060020a0333811695941693633581777393606480850194919392918390030190829087803b1580156108c357600080fd5b505af11580156108d7573d6000803e3d6000fd5b505050506040513d60208110156108ed57600080fd5b5051600160a060020a0316145b905080151561090557fe5b600080546040805160e060020a633581777302815260206004820181905260096024830152600080516020611b9683398151915260448301529151600160a060020a0390931693633581777393606480840194939192918390030190829087803b15801561097257600080fd5b505af1158015610986573d6000803e3d6000fd5b505050506040513d602081101561099c57600080fd5b5051604080517f292ee532000000000000000000000000000000000000000000000000000000008152600160a060020a0386811660048301529151919092169163292ee5329160248083019260209291908290030181600087803b15801561057757600080fd5b600080546040805160e060020a633581777302815260206004820181905260096024830152600080516020611b9683398151915260448301529151600160a060020a039093169263358177739260648084019391929182900301818787803b158015610a6e57600080fd5b505af1158015610a82573d6000803e3d6000fd5b505050506040513d6020811015610a9857600080fd5b5051604080517f4209fff1000000000000000000000000000000000000000000000000000000008152600160a060020a03858116600483015291519190921691634209fff19160248083019260209291908290030181600087803b1580156106b057600080fd5b600080546040805160e060020a633581777302815260206004820181905260096024830152600080516020611b9683398151915260448301529151600160a060020a039093169263358177739260648084019391929182900301818787803b158015610b6a57600080fd5b505af1158015610b7e573d6000803e3d6000fd5b505050506040513d6020811015610b9457600080fd5b5051604080517f42fc0468000000000000000000000000000000000000000000000000000000008152600160a060020a038581166004830152915191909216916342fc04689160248083019260209291908290030181600087803b1580156106b057600080fd5b6000610c0633610a03565b1515610c0e57fe5b600080546040805160e060020a633581777302815260206004820181905260096024830152600080516020611b9683398151915260448301529151600160a060020a0390931693633581777393606480840194939192918390030190829087803b158015610c7b57600080fd5b505af1158015610c8f573d6000803e3d6000fd5b505050506040513d6020811015610ca557600080fd5b5051604080517f6f77926b000000000000000000000000000000000000000000000000000000008152600160a060020a03858116600483015291519190921691636f77926b9160248083019260209291908290030181600087803b1580156106b057600080fd5b600080546040805160e060020a633581777302815260206004820181905260096024830152600080516020611b96833981519152604483015291518493600160a060020a0316926335817773926064808201939182900301818787803b158015610d7557600080fd5b505af1158015610d89573d6000803e3d6000fd5b505050506040513d6020811015610d9f57600080fd5b5051604080517fb166a09f000000000000000000000000000000000000000000000000000000008152600160a060020a03868116600483015291519293509083169163b166a09f916024808201926020929091908290030181600087803b158015610e0957600080fd5b505af1158015610e1d573d6000803e3d6000fd5b505050506040513d6020811015610e3357600080fd5b50519392505050565b6000610e4733610a03565b1515610e4f57fe5b600080546040805160e060020a633581777302815260206004820181905260096024830152600080516020611b9683398151915260448301529151600160a060020a0390931693633581777393606480840194939192918390030190829087803b158015610ebc57600080fd5b505af1158015610ed0573d6000803e3d6000fd5b505050506040513d6020811015610ee657600080fd5b5051604080517fb4acfe1c000000000000000000000000000000000000000000000000000000008152600160a060020a0385811660048301529151919092169163b4acfe1c9160248083019260209291908290030181600087803b1580156107f357600080fd5b6000610f5833610a03565b1515610f6057fe5b600080546040805160e060020a633581777302815260206004820181905260096024830152600080516020611b9683398151915260448301529151600160a060020a0390931693633581777393606480840194939192918390030190829087803b158015610fcd57600080fd5b505af1158015610fe1573d6000803e3d6000fd5b505050506040513d6020811015610ff757600080fd5b5051604080517fbfcb9079000000000000000000000000000000000000000000000000000000008152600160a060020a0385811660048301529151919092169163bfcb90799160248083019260209291908290030181600087803b1580156107f357600080fd5b600061106933610a03565b151561107157fe5b600080546040805160e060020a633581777302815260206004820181905260096024830152600080516020611b9683398151915260448301529151600160a060020a0390931693633581777393606480840194939192918390030190829087803b1580156110de57600080fd5b505af11580156110f2573d6000803e3d6000fd5b505050506040513d602081101561110857600080fd5b5051604080517fcb949e51000000000000000000000000000000000000000000000000000000008152600160a060020a0385811660048301529151919092169163cb949e519160248083019260209291908290030181600087803b1580156106b057600080fd5b600061117a33610a03565b151561118257fe5b600080546040805160e060020a633581777302815260206004820181905260096024830152600080516020611b9683398151915260448301529151600160a060020a0390931693633581777393606480840194939192918390030190829087803b1580156111ef57600080fd5b505af1158015611203573d6000803e3d6000fd5b505050506040513d602081101561121957600080fd5b5051604080517fcf3f3381000000000000000000000000000000000000000000000000000000008152600160a060020a038681166004830152602482018690529151919092169163cf3f33819160448083019260209291908290030181600087803b15801561057757600080fd5b60008061129333610a03565b151561129b57fe5b600080546040805160e060020a633581777302815260206004820181905260096024830152600080516020611b9683398151915260448301529151600160a060020a0390931693633581777393606480840194939192918390030190829087803b15801561130857600080fd5b505af115801561131c573d6000803e3d6000fd5b505050506040513d602081101561133257600080fd5b5051604080517fb166a09f000000000000000000000000000000000000000000000000000000008152600160a060020a03878116600483015291519293509083169163b166a09f916024808201926020929091908290030181600087803b15801561139c57600080fd5b505af11580156113b0573d6000803e3d6000fd5b505050506040513d60208110156113c657600080fd5b505115156113d057fe5b80600160a060020a031663cf3f338186856040518363ffffffff1660e060020a0281526004018083600160a060020a0316600160a060020a0316815260200182815260200192505050602060405180830381600087803b15801561143357600080fd5b505af1158015611447573d6000803e3d6000fd5b505050506040513d602081101561145d57600080fd5b5051151561146757fe5b600080546040805160e060020a6335817773028152602060048201819052600560248301527f746f6b656e00000000000000000000000000000000000000000000000000000060448301529151600160a060020a0390931693633581777393606480840194939192918390030190829087803b1580156114e657600080fd5b505af11580156114fa573d6000803e3d6000fd5b505050506040513d602081101561151057600080fd5b5051604080517f97d1de07000000000000000000000000000000000000000000000000000000008152600160a060020a0388811660048301528781166024830152915191909216916397d1de079160448083019260209291908290030181600087803b15801561157f57600080fd5b505af1158015611593573d6000803e3d6000fd5b505050506040513d60208110156115a957600080fd5b505115156115b357fe5b80600160a060020a0316639eaede73856040518263ffffffff1660e060020a0281526004018082600160a060020a0316600160a060020a03168152602001915050602060405180830381600087803b15801561160e57600080fd5b505af1158015611622573d6000803e3d6000fd5b505050506040513d602081101561163857600080fd5b5051151561164257fe5b506001949350505050565b600080546040805160e060020a633581777302815260206004820181905260096024830152600080516020611b9683398151915260448301529151600160a060020a039093169263358177739260648084019391929182900301818787803b1580156116b857600080fd5b505af11580156116cc573d6000803e3d6000fd5b505050506040513d60208110156116e257600080fd5b5051604080517ff01c49c5000000000000000000000000000000000000000000000000000000008152600160a060020a0385811660048301529151919092169163f01c49c59160248083019260209291908290030181600087803b1580156106b057600080fd5b600061175433610a03565b151561175c57fe5b600080546040805160e060020a633581777302815260206004820181905260096024830152600080516020611b9683398151915260448301529151600160a060020a0390931693633581777393606480840194939192918390030190829087803b1580156117c957600080fd5b505af11580156117dd573d6000803e3d6000fd5b505050506040513d60208110156117f357600080fd5b5051604080517ffa0b5e55000000000000000000000000000000000000000000000000000000008152600160a060020a038681166004830152602482018690529151919092169163fa0b5e559160448083019260209291908290030181600087803b15801561057757600080fd5b600080546040805160e060020a633581777302815260206004820181905260096024830152600080516020611b9683398151915260448301529151600160a060020a039093169263358177739260648084019391929182900301818787803b1580156118cc57600080fd5b505af11580156118e0573d6000803e3d6000fd5b505050506040513d60208110156118f657600080fd5b5051604080517ffb0f9dfd000000000000000000000000000000000000000000000000000000008152600160a060020a0385811660048301529151919092169163fb0f9dfd9160248083019260209291908290030181600087803b1580156106b057600080fd5b60408051808201825260048082527f6c6f616e00000000000000000000000000000000000000000000000000000000602083019081526000805485517fb513b7a5000000000000000000000000000000000000000000000000000000008152600160a060020a0333818116968301968752602483019889528751604484015287519498919093169563b513b7a59593948894919360640191908083838d5b83811015611a135781810151838201526020016119fb565b50505050905090810190601f168015611a405780820380516001836020036101000a031916815260200191505b509350505050602060405180830381600087803b158015611a6057600080fd5b505af1158015611a74573d6000803e3d6000fd5b505050506040513d6020811015611a8a57600080fd5b50511515611a9757600080fd5b600080546040805160e060020a633581777302815260206004820181905260096024830152600080516020611b9683398151915260448301529151600160a060020a0390931693633581777393606480840194939192918390030190829087803b158015611b0457600080fd5b505af1158015611b18573d6000803e3d6000fd5b505050506040513d6020811015611b2e57600080fd5b5051604080517ffbaa0a5f000000000000000000000000000000000000000000000000000000008152600160a060020a0386811660048301529151919092169163fbaa0a5f9160248083019260209291908290030181600087803b15801561057757600080fd007265676973747279530000000000000000000000000000000000000000000000a165627a7a723058205c01b49fc3f255dab9fe16a82ae982a323d361efacdf3ecd9122ad2f64d30c5b0029",
  "source": "pragma solidity ^0.4.23;\n\n\nimport \"./Index.sol\";\nimport \"./RegistryStorage.sol\";\nimport \"./Token.sol\";\n\n/**\n * The Registry contract implements functionality for \n */\ncontract Registry{\n\n\tIndex private index;\n\n\tconstructor (address _indexAddress) public{\n\t\trequire(_indexAddress != 0x0);\n\t\tindex = Index(_indexAddress);\n\t}\n\n\tmodifier onlySpecified(string _contractName) { \n\t\trequire (index.checkContract(msg.sender,_contractName)); \n\t\t_; \n\t}\n\n\tmodifier isUser() { \n\t\tassert(ifUser(msg.sender));\n\t\t_; \n\t}\n\n\tmodifier isCustomer() { \n\t\tassert(ifCustomer(msg.sender));\n\t\t_; \n\t}\t\n\n\tfunction ifUser (address _address)public view returns(bool res) {\n\t\treturn RegistryStorage(index.getContract(\"registryS\")).isUser(_address);\n\t}\n\n\tfunction ifCustomer (address _address)public view returns(bool res) {\n\t\treturn RegistryStorage(index.getContract(\"registryS\")).isCustomer(_address);\n\t}\t\n\n\tfunction isCustomerFrozen (address _address) public view returns(bool res) {\n\t\treturn RegistryStorage(index.getContract(\"registryS\")).isCustomerFrozen(_address);\n\t}\n\n\tfunction isCustomerBlocked (address _address) public view returns(bool res) {\n\t\treturn RegistryStorage(index.getContract(\"registryS\")).isCustomerBlocked(_address);\n\t}\n\n\tfunction isCustomerActive (address _address) public view returns(bool res) {\n\t\treturn RegistryStorage(index.getContract(\"registryS\")).isCustomerActive(_address);\n\t}\n\n\tfunction isEscrow (address _escrow)public view returns(bool res){\n\t\tRegistryStorage rs = RegistryStorage(index.getContract(\"registryS\"));\n\t\treturn rs.isEscrow(_escrow);\n\t} \n\n\t/**\n\t* @dev register a new CASHe user , can only be done by another existing user \n\t* @param _address The address of user\n\t* @param _id Identifier of the User\n\t*/\n\tfunction registerUser (address _address,uint256 _id) public isUser returns(bool res) {\n\t\tassert(RegistryStorage(index.getContract(\"registryS\")).registerUser(_address,_id));\n\t\treturn true;\n\t}\n\n\tfunction pauseUser(address _address) public isUser returns(bool res){\n\t\tassert(RegistryStorage(index.getContract(\"registryS\")).pauseUser(_address));\n\t\treturn true;\n\t}\n\n\tfunction activateUser(address _address) public isUser returns(bool res){\n\t\tassert(RegistryStorage(index.getContract(\"registryS\")).activateUser(_address));\n\t\treturn true;\n\t}\n\n\t/**\n\t* @dev register a new CASHe customer , can only be done by existing CASHe User \n\t* @param _address The address of customer \n\t* @param _id Identifier of the Customer\n\t*/\n\tfunction registerCustomer(address _address,uint256 _id) public isUser returns(bool res) {\n\t\tassert(RegistryStorage(index.getContract(\"registryS\")).registerCustomer(_address,_id));\n\t\treturn true;\n\t}\n\n\t/**\n\t* @dev register a new CASHe customer who has an existing escrow  \n\t* @param _address The address of customer  \n\t* @param _address The address of escrow \n\t* @param _id Identifier of the Customer\n\t*/\n\tfunction registerCustomerEscrow(address _address,address _escrow,uint256 _id) public isUser returns(bool res){\n\t\tRegistryStorage rs = RegistryStorage(index.getContract(\"registryS\"));\n\t\tassert (rs.isEscrow(_escrow));\n\t\tassert (rs.registerCustomer(_address,_id));\n\t\tassert (Token(index.getContract(\"token\")).receiveFunds(_address,_escrow));\n\t\tassert (rs.deactivateEscrow(_escrow));\t\t\n\t\treturn true;\n\t}\t\n\t\n\tfunction getCustomer(address _address) public view isUser returns(uint256 res) {\n\t\treturn RegistryStorage(index.getContract(\"registryS\")).getCustomer(_address);\n\t}\n\n\tfunction getUser(address _address) public view isUser returns(uint256 res) {\n\t\treturn RegistryStorage(index.getContract(\"registryS\")).getUser(_address);\n\t}\n\t\n\t/**\n\t* @dev pause an Escrow account \n\t* @param _address Address of the escrow to be paused\n\t*/\n\tfunction pauseEscrow (address _address)public isUser returns(bool res){\n\t\tassert (RegistryStorage(index.getContract('registryS')).deactivateEscrow(_address));\n\t\treturn true;\t\t\t\t\n\t}\t\n\n\t/**\n\t* @dev activate an escrow account \n\t* @param _address Address of the escrow to be activated\n\t*/\n\tfunction activateEscrow (address _address)public returns(bool res){\n\t\tbool result = (ifUser(msg.sender) || (index.getContract('token') == msg.sender));\n\t\tassert(result);\n\t\tassert (RegistryStorage(index.getContract('registryS')).activateEscrow(_address));\n\t\treturn true;\t\t\n\t}\n\t\n\tfunction freezeCustomer (address _address) public onlySpecified('loan') returns(bool res){\n\t\tassert(RegistryStorage(index.getContract('registryS')).freezeCustomer(_address));\n\t\treturn true;\n\t}\n\n\tfunction unFreezeCustomer (address _address)public onlySpecified('loan') returns(bool res){\n\t\tassert(RegistryStorage(index.getContract('registryS')).unFreezeCustomer(_address));\n\t\treturn true;\n\t}\n\n\t\n\t\t\t\t\t\t\t\t\t\t\t\t\t\t\n}",
  "sourcePath": "/Users/rahulgolash/Rahul/Github/baeth/contracts/Registry.sol",
  "compiler": {
    "name": "solc",
    "version": "0.4.23+commit.124ca40d.Emscripten.clang"
  },
  "schemaVersion": "2.0.0",
  "updatedAt": "2018-05-27T08:21:17.899Z"
}