{
  "contractName": "Token",
  "abi": [
    {
      "inputs": [
        {
          "name": "_indexAddress",
          "type": "address"
        }
      ],
      "payable": false,
      "stateMutability": "nonpayable",
      "type": "constructor"
    },
    {
      "anonymous": false,
      "inputs": [
        {
          "indexed": false,
          "name": "funds",
          "type": "uint256"
        }
      ],
      "name": "balanceEscrow",
      "type": "event"
    },
    {
      "constant": false,
      "inputs": [
        {
          "name": "_address",
          "type": "address"
        },
        {
          "name": "_amount",
          "type": "uint256"
        }
      ],
      "name": "grantLoan",
      "outputs": [
        {
          "name": "res",
          "type": "bool"
        }
      ],
      "payable": false,
      "stateMutability": "nonpayable",
      "type": "function"
    },
    {
      "constant": true,
      "inputs": [],
      "name": "balanceOf",
      "outputs": [
        {
          "name": "res",
          "type": "uint256"
        }
      ],
      "payable": false,
      "stateMutability": "view",
      "type": "function"
    },
    {
      "constant": false,
      "inputs": [
        {
          "name": "_fields",
          "type": "uint256[4]"
        }
      ],
      "name": "repayLoanByTokens",
      "outputs": [
        {
          "name": "res",
          "type": "bool"
        }
      ],
      "payable": false,
      "stateMutability": "nonpayable",
      "type": "function"
    },
    {
      "constant": false,
      "inputs": [
        {
          "name": "_address",
          "type": "address"
        },
        {
          "name": "_fields",
          "type": "uint256[4]"
        }
      ],
      "name": "recoverLoan",
      "outputs": [
        {
          "name": "res",
          "type": "bool"
        }
      ],
      "payable": false,
      "stateMutability": "nonpayable",
      "type": "function"
    },
    {
      "constant": false,
      "inputs": [
        {
          "name": "_address",
          "type": "address"
        },
        {
          "name": "_escrow",
          "type": "address"
        }
      ],
      "name": "receiveFunds",
      "outputs": [
        {
          "name": "res",
          "type": "bool"
        }
      ],
      "payable": false,
      "stateMutability": "nonpayable",
      "type": "function"
    },
    {
      "constant": false,
      "inputs": [
        {
          "name": "_to",
          "type": "address"
        },
        {
          "name": "_amount",
          "type": "uint256"
        }
      ],
      "name": "transferToken",
      "outputs": [
        {
          "name": "res",
          "type": "bool"
        }
      ],
      "payable": false,
      "stateMutability": "nonpayable",
      "type": "function"
    },
    {
      "constant": false,
      "inputs": [
        {
          "name": "_from",
          "type": "address"
        },
        {
          "name": "_to",
          "type": "address"
        },
        {
          "name": "_amount",
          "type": "uint256"
        }
      ],
      "name": "revertTransfer",
      "outputs": [
        {
          "name": "res",
          "type": "bool"
        }
      ],
      "payable": false,
      "stateMutability": "nonpayable",
      "type": "function"
    },
    {
      "constant": false,
      "inputs": [
        {
          "name": "_amount",
          "type": "uint256"
        }
      ],
      "name": "cashoutTokens",
      "outputs": [
        {
          "name": "res",
          "type": "bool"
        }
      ],
      "payable": false,
      "stateMutability": "nonpayable",
      "type": "function"
    },
    {
      "constant": false,
      "inputs": [
        {
          "name": "_address",
          "type": "address"
        },
        {
          "name": "_amount",
          "type": "uint256"
        }
      ],
      "name": "confirmCashOut",
      "outputs": [
        {
          "name": "res",
          "type": "bool"
        }
      ],
      "payable": false,
      "stateMutability": "nonpayable",
      "type": "function"
    },
    {
      "constant": false,
      "inputs": [
        {
          "name": "_address",
          "type": "address"
        },
        {
          "name": "_amount",
          "type": "uint256"
        }
      ],
      "name": "revertCashOut",
      "outputs": [
        {
          "name": "res",
          "type": "bool"
        }
      ],
      "payable": false,
      "stateMutability": "nonpayable",
      "type": "function"
    }
  ],
  "bytecode": "0x608060405234801561001057600080fd5b506040516020806124d98339810160405251600160a060020a038116151561003757600080fd5b60008054600160a060020a03909216600160a060020a0319909216919091179055612472806100676000396000f30060806040526004361061008a5763ffffffff60e060020a6000350416631072cbea811461008f5780632940f028146100c757806340aaa01c146100df5780636080622c14610103578063722713f71461012d5780638412031f1461015457806397d1de0714610178578063cef9d2691461019f578063cf7f202f146101ed578063d507b6f71461022f575b600080fd5b34801561009b57600080fd5b506100b3600160a060020a0360043516602435610253565b604080519115158252519081900360200190f35b3480156100d357600080fd5b506100b36004356102ab565b3480156100eb57600080fd5b506100b3600160a060020a0360043516602435610497565b34801561010f57600080fd5b506100b3600160a060020a03600435811690602435166044356108aa565b34801561013957600080fd5b50610142610a0a565b60408051918252519081900360200190f35b34801561016057600080fd5b506100b3600160a060020a0360043516602435610b37565b34801561018457600080fd5b506100b3600160a060020a0360043581169060243516610efc565b3480156101ab57600080fd5b506040805160808082019092526100b39160048035600160a060020a031692369260a49190602490849083908390808284375093965061136f95505050505050565b3480156101f957600080fd5b506040805160808181019092526100b391369160049160849190839081908390829080828437509396506114a795505050505050565b34801561023b57600080fd5b506100b3600160a060020a03600435166024356115f4565b60008061025f336118fb565b905080151561026a57fe5b610273846118fb565b1561028a57610283338585611a29565b9050610298565b610295338585611de4565b90505b8015156102a157fe5b5060019392505050565b600080546040805160e060020a63358177730281526020600482018190526006602483015260d060020a65746f6b656e53026044830152915184938493600160a060020a03909116926335817773926064808301939282900301818787803b15801561031657600080fd5b505af115801561032a573d6000803e3d6000fd5b505050506040513d602081101561034057600080fd5b5051915061034d336118fb565b905080151561035857fe5b81600160a060020a031663030d877c33866040518363ffffffff1660e060020a0281526004018083600160a060020a0316600160a060020a0316815260200182815260200192505050602060405180830381600087803b1580156103bb57600080fd5b505af11580156103cf573d6000803e3d6000fd5b505050506040513d60208110156103e557600080fd5b505115156103ef57fe5b600080546040805160e060020a63358177730281526020600482018190526006602483015260d060020a65746f6b656e53026044830152915161048f943394600160a060020a0316936335817773936064808201949293918390030190829087803b15801561045d57600080fd5b505af1158015610471573d6000803e3d6000fd5b505050506040513d602081101561048757600080fd5b505186611a29565b15156102a157fe5b600080546040805160e060020a633581777302815260206004820181905260086024830152600080516020612427833981519152604483015291518493600160a060020a0316926335817773926064808201939182900301818787803b15801561050057600080fd5b505af1158015610514573d6000803e3d6000fd5b505050506040513d602081101561052a57600080fd5b50516040805160e060020a6332e5c16d028152600160a060020a033381166004830152915191909216916332e5c16d9160248083019260209291908290030181600087803b15801561057b57600080fd5b505af115801561058f573d6000803e3d6000fd5b505050506040513d60208110156105a557600080fd5b505115156105b257600080fd5b600080546040805160e060020a63358177730281526020600482018190526006602483015260d060020a65746f6b656e530260448301529151600160a060020a0390931693633581777393606480840194939192918390030190829087803b15801561061d57600080fd5b505af1158015610631573d6000803e3d6000fd5b505050506040513d602081101561064757600080fd5b50519050610654846118fb565b151561065c57fe5b80600160a060020a0316639f53476485856040518363ffffffff1660e060020a0281526004018083600160a060020a0316600160a060020a0316815260200182815260200192505050602060405180830381600087803b1580156106bf57600080fd5b505af11580156106d3573d6000803e3d6000fd5b505050506040513d60208110156106e957600080fd5b505115156106f357fe5b600080546040805160e060020a63358177730281526020600482018190526006602483015260d060020a65746f6b656e530260448301529151600160a060020a038087169563ff05694995909116936335817773936064808201949293918390030190829087803b15801561076757600080fd5b505af115801561077b573d6000803e3d6000fd5b505050506040513d602081101561079157600080fd5b50516040805160e060020a63ffffffff8516028152600160a060020a039092166004830152602482018790525160448083019260209291908290030181600087803b1580156107df57600080fd5b505af11580156107f3573d6000803e3d6000fd5b505050506040513d602081101561080957600080fd5b5051151561081357fe5b80600160a060020a0316635b86f59985856040518363ffffffff1660e060020a0281526004018083600160a060020a0316600160a060020a0316815260200182815260200192505050602060405180830381600087803b15801561087657600080fd5b505af115801561088a573d6000803e3d6000fd5b505050506040513d60208110156108a057600080fd5b505115156102a157fe5b600080546040805160e060020a633581777302815260206004820181905260086024830152600080516020612427833981519152604483015291518493600160a060020a0316926335817773926064808201939182900301818787803b15801561091357600080fd5b505af1158015610927573d6000803e3d6000fd5b505050506040513d602081101561093d57600080fd5b50516040805160e060020a6332e5c16d028152600160a060020a033381166004830152915191909216916332e5c16d9160248083019260209291908290030181600087803b15801561098e57600080fd5b505af11580156109a2573d6000803e3d6000fd5b505050506040513d60208110156109b857600080fd5b505115156109c557600080fd5b6109ce85611f30565b80156109de57506109de846118fb565b90508015156109e957fe5b6109f4858585611a29565b90508015156109ff57fe5b506001949350505050565b600080546040805160e060020a63358177730281526020600482018190526006602483015260d060020a65746f6b656e5302604483015291518493600160a060020a0316926335817773926064808201939182900301818787803b158015610a7157600080fd5b505af1158015610a85573d6000803e3d6000fd5b505050506040513d6020811015610a9b57600080fd5b5051604080517f27e235e3000000000000000000000000000000000000000000000000000000008152600160a060020a0333811660048301529151929350908316916327e235e3916024808201926020929091908290030181600087803b158015610b0557600080fd5b505af1158015610b19573d6000803e3d6000fd5b505050506040513d6020811015610b2f57600080fd5b505191505090565b600080546040805160e060020a633581777302815260206004820181905260086024830152600080516020612427833981519152604483015291518493600160a060020a0316926335817773926064808201939182900301818787803b158015610ba057600080fd5b505af1158015610bb4573d6000803e3d6000fd5b505050506040513d6020811015610bca57600080fd5b50516040805160e060020a6332e5c16d028152600160a060020a033381166004830152915191909216916332e5c16d9160248083019260209291908290030181600087803b158015610c1b57600080fd5b505af1158015610c2f573d6000803e3d6000fd5b505050506040513d6020811015610c4557600080fd5b50511515610c5257600080fd5b600080546040805160e060020a63358177730281526020600482018190526006602483015260d060020a65746f6b656e530260448301529151600160a060020a0390931693633581777393606480840194939192918390030190829087803b158015610cbd57600080fd5b505af1158015610cd1573d6000803e3d6000fd5b505050506040513d6020811015610ce757600080fd5b50519050610cf4846118fb565b1515610cfc57fe5b80600160a060020a03166382838c76846040518263ffffffff1660e060020a02815260040180828152602001915050602060405180830381600087803b158015610d4557600080fd5b505af1158015610d59573d6000803e3d6000fd5b505050506040513d6020811015610d6f57600080fd5b50511515610d7957fe5b80600160a060020a0316639f53476485856040518363ffffffff1660e060020a0281526004018083600160a060020a0316600160a060020a0316815260200182815260200192505050602060405180830381600087803b158015610ddc57600080fd5b505af1158015610df0573d6000803e3d6000fd5b505050506040513d6020811015610e0657600080fd5b50511515610e1057fe5b600080546040805160e060020a63358177730281526020600482018190526006602483015260d060020a65746f6b656e530260448301529151600160a060020a038087169563ff05694995909116936335817773936064808201949293918390030190829087803b158015610e8457600080fd5b505af1158015610e98573d6000803e3d6000fd5b505050506040513d6020811015610eae57600080fd5b50516040805160e060020a63ffffffff8516028152600160a060020a039092166004830152602482018790525160448083019260209291908290030181600087803b15801561087657600080fd5b60408051808201825260088152600080516020612427833981519152602082019081526000805484517fb513b7a5000000000000000000000000000000000000000000000000000000008152600160a060020a0333818116600484019081526024840198895287516044850152875195988998899889989197959095169563b513b7a595889493926064909201918083838d5b83811015610fa7578181015183820152602001610f8f565b50505050905090810190601f168015610fd45780820380516001836020036101000a031916815260200191505b509350505050602060405180830381600087803b158015610ff457600080fd5b505af1158015611008573d6000803e3d6000fd5b505050506040513d602081101561101e57600080fd5b5051151561102b57600080fd5b600080546040805160e060020a63358177730281526020600482018190526006602483015260d060020a65746f6b656e530260448301529151600160a060020a0390931693633581777393606480840194939192918390030190829087803b15801561109657600080fd5b505af11580156110aa573d6000803e3d6000fd5b505050506040513d60208110156110c057600080fd5b5051604080517ff8b2cb4f000000000000000000000000000000000000000000000000000000008152600160a060020a03898116600483015291519296509086169163f8b2cb4f916024808201926020929091908290030181600087803b15801561112a57600080fd5b505af115801561113e573d6000803e3d6000fd5b505050506040513d602081101561115457600080fd5b50516040805182815290519194507f193558f3c9f6883d95b1bb0c050d839932f22afb916856b3fef72bfa85aa2791919081900360200190a183600160a060020a031663ff05694987856040518363ffffffff1660e060020a0281526004018083600160a060020a0316600160a060020a0316815260200182815260200192505050602060405180830381600087803b1580156111f057600080fd5b505af1158015611204573d6000803e3d6000fd5b505050506040513d602081101561121a57600080fd5b505191508180156112b6575083600160a060020a0316635b86f59988856040518363ffffffff1660e060020a0281526004018083600160a060020a0316600160a060020a0316815260200182815260200192505050602060405180830381600087803b15801561128957600080fd5b505af115801561129d573d6000803e3d6000fd5b505050506040513d60208110156112b357600080fd5b50515b91508115156112c157fe5b604080517f1983fcb6000000000000000000000000000000000000000000000000000000008152600160a060020a0389811660048301528881166024830152915191861691631983fcb6916044808201926020929091908290030181600087803b15801561132e57600080fd5b505af1158015611342573d6000803e3d6000fd5b505050506040513d602081101561135857600080fd5b5051151561136257fe5b5060019695505050505050565b600080546040805160e060020a63358177730281526020600482018190526008602483015260008051602061242783398151915260448301529151600160a060020a039093169263358177739260648084019391929182900301818787803b1580156113da57600080fd5b505af11580156113ee573d6000803e3d6000fd5b505050506040513d602081101561140457600080fd5b50516040805160e060020a6332e5c16d028152600160a060020a033381166004830152915191909216916332e5c16d9160248083019260209291908290030181600087803b15801561145557600080fd5b505af1158015611469573d6000803e3d6000fd5b505050506040513d602081101561147f57600080fd5b5051151561148c57600080fd5b611496838361202c565b151561149e57fe5b50600192915050565b600080546040805160e060020a63358177730281526020600482018190526008602483015260008051602061242783398151915260448301529151600160a060020a039093169263358177739260648084019391929182900301818787803b15801561151257600080fd5b505af1158015611526573d6000803e3d6000fd5b505050506040513d602081101561153c57600080fd5b5051604080517f0a63faca000000000000000000000000000000000000000000000000000000008152600160a060020a03338116600483015291519190921691630a63faca9160248083019260209291908290030181600087803b1580156115a357600080fd5b505af11580156115b7573d6000803e3d6000fd5b505050506040513d60208110156115cd57600080fd5b505115156115da57600080fd5b6115e4338361202c565b15156115ec57fe5b506001919050565b60408051808201825260048082527f6c6f616e00000000000000000000000000000000000000000000000000000000602083019081526000805485517fb513b7a500000000000000000000000000000000000000000000000000000000815233600160a060020a03818116968301968752602483019889528751604484015287519498899897919094169563b513b7a595929488949293909260640191908083838d5b838110156116af578181015183820152602001611697565b50505050905090810190601f1680156116dc5780820380516001836020036101000a031916815260200191505b509350505050602060405180830381600087803b1580156116fc57600080fd5b505af1158015611710573d6000803e3d6000fd5b505050506040513d602081101561172657600080fd5b5051151561173357600080fd5b600080546040805160e060020a63358177730281526020600482018190526006602483015260d060020a65746f6b656e530260448301529151600160a060020a0390931693633581777393606480840194939192918390030190829087803b15801561179e57600080fd5b505af11580156117b2573d6000803e3d6000fd5b505050506040513d60208110156117c857600080fd5b5051604080517fe468688e000000000000000000000000000000000000000000000000000000008152600481018790529051919350600160a060020a0384169163e468688e916024808201926020929091908290030181600087803b15801561183057600080fd5b505af1158015611844573d6000803e3d6000fd5b505050506040513d602081101561185a57600080fd5b5051151561186457fe5b81600160a060020a0316635b86f59986866040518363ffffffff1660e060020a0281526004018083600160a060020a0316600160a060020a0316815260200182815260200192505050602060405180830381600087803b1580156118c757600080fd5b505af11580156118db573d6000803e3d6000fd5b505050506040513d60208110156118f157600080fd5b505115156109ff57fe5b600080546040805160e060020a63358177730281526020600482018190526008602483015260008051602061242783398151915260448301529151600160a060020a039093169263358177739260648084019391929182900301818787803b15801561196657600080fd5b505af115801561197a573d6000803e3d6000fd5b505050506040513d602081101561199057600080fd5b5051604080517f0a63faca000000000000000000000000000000000000000000000000000000008152600160a060020a03858116600483015291519190921691630a63faca9160248083019260209291908290030181600087803b1580156119f757600080fd5b505af1158015611a0b573d6000803e3d6000fd5b505050506040513d6020811015611a2157600080fd5b505192915050565b600080546040805160e060020a63358177730281526020600482018190526006602483015260d060020a65746f6b656e530260448301529151849384938493600160a060020a0390921692633581777392606480820193929182900301818787803b158015611a9757600080fd5b505af1158015611aab573d6000803e3d6000fd5b505050506040513d6020811015611ac157600080fd5b5051600080546040805160e060020a63358177730281526020600480830182905260248301527f6c6f616e0000000000000000000000000000000000000000000000000000000060448301529151949750600160a060020a03909216936335817773936064808501948390030190829087803b158015611b4057600080fd5b505af1158015611b54573d6000803e3d6000fd5b505050506040513d6020811015611b6a57600080fd5b5051604080517f208505a5000000000000000000000000000000000000000000000000000000008152600160a060020a038a811660048301529151919092169163208505a59160248083019260209291908290030181600087803b158015611bd157600080fd5b505af1158015611be5573d6000803e3d6000fd5b505050506040513d6020811015611bfb57600080fd5b5051604080517f27e235e3000000000000000000000000000000000000000000000000000000008152600160a060020a038a8116600483015291519294508792611ca5928692908816916327e235e3916024808201926020929091908290030181600087803b158015611c6d57600080fd5b505af1158015611c81573d6000803e3d6000fd5b505050506040513d6020811015611c9757600080fd5b50519063ffffffff6123fe16565b1015611cb057600080fd5b82600160a060020a0316635b86f59987876040518363ffffffff1660e060020a0281526004018083600160a060020a0316600160a060020a0316815260200182815260200192505050602060405180830381600087803b158015611d1357600080fd5b505af1158015611d27573d6000803e3d6000fd5b505050506040513d6020811015611d3d57600080fd5b50519050808015611dd9575082600160a060020a031663ff05694988876040518363ffffffff1660e060020a0281526004018083600160a060020a0316600160a060020a0316815260200182815260200192505050602060405180830381600087803b158015611dac57600080fd5b505af1158015611dc0573d6000803e3d6000fd5b505050506040513d6020811015611dd657600080fd5b50515b979650505050505050565b600080546040805160e060020a6335817773028152602060048201819052600860248301526000805160206124278339815191526044830152915184938493600160a060020a03909116926335817773926064808301939282900301818787803b158015611e5157600080fd5b505af1158015611e65573d6000803e3d6000fd5b505050506040513d6020811015611e7b57600080fd5b5051604080517f292ee532000000000000000000000000000000000000000000000000000000008152600160a060020a03888116600483015291519294509084169163292ee532916024808201926020929091908290030181600087803b158015611ee557600080fd5b505af1158015611ef9573d6000803e3d6000fd5b505050506040513d6020811015611f0f57600080fd5b50519050808015611f265750611f26868686611a29565b9695505050505050565b600080546040805160e060020a63358177730281526020600482018190526008602483015260008051602061242783398151915260448301529151600160a060020a039093169263358177739260648084019391929182900301818787803b158015611f9b57600080fd5b505af1158015611faf573d6000803e3d6000fd5b505050506040513d6020811015611fc557600080fd5b5051604080517fb166a09f000000000000000000000000000000000000000000000000000000008152600160a060020a0385811660048301529151919092169163b166a09f9160248083019260209291908290030181600087803b1580156119f757600080fd5b600080546040805160e060020a63358177730281526020600482018190526006602483015260d060020a65746f6b656e530260448301529151849384938493600160a060020a0390921692633581777392606480820193929182900301818787803b15801561209a57600080fd5b505af11580156120ae573d6000803e3d6000fd5b505050506040513d60208110156120c457600080fd5b5051602086015186519194506120da9190612410565b91508183600160a060020a031663f8b2cb4f886040518263ffffffff1660e060020a0281526004018082600160a060020a0316600160a060020a03168152602001915050602060405180830381600087803b15801561213857600080fd5b505af115801561214c573d6000803e3d6000fd5b505050506040513d602081101561216257600080fd5b5051101561216f57600080fd5b600080546040805160e060020a63358177730281526020600480830182905260248301527f6c6f616e0000000000000000000000000000000000000000000000000000000060448301529151600160a060020a0390931693633581777393606480840194939192918390030190829087803b1580156121ed57600080fd5b505af1158015612201573d6000803e3d6000fd5b505050506040513d602081101561221757600080fd5b50516040517fc625c180000000000000000000000000000000000000000000000000000000008152600160a060020a038881166004830190815292935083169163c625c180918991899160240182608080838360005b8381101561228557818101518382015260200161226d565b5050505090500192505050602060405180830381600087803b1580156122aa57600080fd5b505af11580156122be573d6000803e3d6000fd5b505050506040513d60208110156122d457600080fd5b505115156122de57fe5b82600160a060020a031663ff05694987846040518363ffffffff1660e060020a0281526004018083600160a060020a0316600160a060020a0316815260200182815260200192505050602060405180830381600087803b15801561234157600080fd5b505af1158015612355573d6000803e3d6000fd5b505050506040513d602081101561236b57600080fd5b5051151561237557fe5b82600160a060020a03166382838c76836040518263ffffffff1660e060020a02815260040180828152602001915050602060405180830381600087803b1580156123be57600080fd5b505af11580156123d2573d6000803e3d6000fd5b505050506040513d60208110156123e857600080fd5b505115156123f257fe5b50600195945050505050565b60008282111561240a57fe5b50900390565b60008282018381101561241f57fe5b939250505056007265676973747279000000000000000000000000000000000000000000000000a165627a7a72305820df245ba33fbf9072450433309a296fc907158e389a0dfb608d21aabf975cc94a0029",
  "source": "pragma solidity ^0.4.23;\n\nimport \"./Index.sol\";\nimport \"./Pauseable.sol\";\nimport \"./TokenStorage.sol\";\nimport \"./Registry.sol\";\nimport \"./Loan.sol\";\nimport \"./SafeMath.sol\";\n\ncontract Token{\n\n\tusing SafeMath for uint256;\n\tIndex private index;\t\n\n\tconstructor (address _indexAddress) public{\n\t\trequire(_indexAddress != 0x0);\n\t\tindex =  Index(_indexAddress);\n\t}\n\n\tmodifier onlySpecified(string _name) { \n\t\trequire(index.checkContract(msg.sender,_name)); \n\t\t_;\n\t}\t\n\n\tmodifier onlyCustomer() {\t\t\n\t\trequire (Registry(index.getContract('registry')).ifCustomer(msg.sender)); \n\t\t_; \n\t}\n\n\tmodifier onlyUser() {\t\t\n\t\trequire (Registry(index.getContract('registry')).ifUser(msg.sender)); \n\t\t_; \n\t}\n\n\tevent balanceEscrow(uint256 funds);\n\n\tfunction checkCustomer (address _address) internal view returns(bool res){\n\t\treturn Registry(index.getContract('registry')).ifCustomer(_address);\n\t}\n\n\tfunction checkEscrow (address _address) internal view returns(bool res){\n\t\treturn Registry(index.getContract('registry')).isEscrow(_address);\n\t}\n\n\t/**\n\t* @dev grant a loan for a specified address \n\t* @param _address The address where the loan is to be added\n\t* @param _amount The amount of loan disbursed i.e tokens to be minted\n\t*/\n\tfunction grantLoan (address _address,uint256 _amount) onlySpecified('loan') public returns(bool res) {\n\t\tTokenStorage t = TokenStorage(index.getContract('tokenS'));\n\t\tassert(t.addTotalSupply(_amount));\n\t\tassert(t.increaseBalance(_address,_amount));\n\t\treturn true;\n\t}\n\n\tfunction balanceOf () public view returns(uint256 res){\n\t\tTokenStorage t = TokenStorage(index.getContract('tokenS'));\n\t\treturn t.balances(msg.sender);\n\t}\n\n\t/**\n\t* @dev repay a loan for a specified address and loan ID \n\t* @param _address The address of customer repaying the loan\n\t* @param _fields , _fields[0] - amount, _fields[1] - penalty, _fields[2] - eligibility, _fields[3] - loanId\n\t*/\n\tfunction repayLoan(address _address, uint256[4] _fields) internal returns(bool res) {\n\t\tTokenStorage t = TokenStorage(index.getContract('tokenS'));\n\t\tuint256 totalTokens = _fields[0].add(_fields[1]);\n\t\trequire (t.getBalance(_address)>=totalTokens);\n\t\tLoan l = Loan(index.getContract('loan'));\n\t\tassert (l.repayLoanByTokens(_address,_fields));\n\t\tassert (t.decreaseBalance(_address, totalTokens));\n\t\tassert (t.subTotalSupply(totalTokens));\n\t\treturn true;\n\t}\n\n\t/**\n\t* @dev repay a loan by tokens for a specified address and loan ID , can only be acessed by customer\n\t* @param _fields , _fields[0] - amount, _fields[1] - penalty, _fields[2] - eligibility, _fields[3] - loanId\n\t*/\n\tfunction repayLoanByTokens(uint256[4] _fields) onlyCustomer public returns(bool res)  {\n\t\tassert (repayLoan(msg.sender,_fields));\n\t\treturn true;\n\t}\n\t\n\t/**\n\t* @dev recover the tokens for non repayment of loan for a specified address and loan ID , can only be accessed by user\n\t* @param _address The address of customer repaying the loan\n\t* @param _fields , _fields[0] - amount, _fields[1] - penalty, _fields[2] - eligibility, _fields[3] - loanId\n\t*/\n\tfunction recoverLoan(address _address, uint256[4] _fields) onlyUser public returns(bool res){\n\t\tassert (repayLoan(_address,_fields));\n\t\treturn true;\n\t}\n\t\n\tfunction receiveFunds(address _address,address _escrow) onlySpecified('registry') public returns(bool res){\n\t\tTokenStorage t = TokenStorage(index.getContract('tokenS'));\n\t\tuint256 funds  = t.getBalance(_escrow);\n\t\temit balanceEscrow(funds);\n\t\tbool result = t.decreaseBalance(_escrow,funds);\n\t\tresult = result && t.increaseBalance(_address,funds);\n\t\tassert (result);\n\t\tassert(t.emitReceivedFunds(_address,_escrow));\n\t\treturn true;\n\t}\n\n\tfunction transfer (address _from,address _to,uint256 _amount) internal returns(bool res){\n\t\tTokenStorage t = TokenStorage(index.getContract('tokenS'));\n\t\tuint256 frozenAmount = Loan(index.getContract('loan')).getFrozenAmount(_from);\n\t\trequire(t.balances(_from).sub(frozenAmount) >= _amount);\n\t\tbool result = t.increaseBalance(_to,_amount);\n\t\tresult = result && t.decreaseBalance(_from,_amount);\n\t\treturn result;\n\t}\n\n\tfunction transferTokenToEscrow (address _from ,address _to,uint256 _amount) internal returns(bool res){\n\t\tRegistry r = Registry(index.getContract('registry'));\n\t\tbool result = r.activateEscrow(_to);\n\t\tresult = result && transfer(_from,_to,_amount);\n\t\treturn result;\n\t}\n\n\tfunction transferToken(address _to,uint256 _amount) public returns (bool res){\n\t\tbool result = checkCustomer(msg.sender);\n\t\tassert (result);\n\t\tif(checkCustomer(_to))\n\t\t\tresult = transfer(msg.sender,_to,_amount);\n\t\telse\n\t\t\tresult = transferTokenToEscrow(msg.sender,_to,_amount);\n\t\tassert (result);\n\t\treturn true;\n\t}\n\n\tfunction revertTransfer(address _from,address _to,uint256 _amount) onlyUser public returns (bool res){\n\t\tbool result = checkEscrow(_from) && checkCustomer(_to);\n\t\tassert (result);\n\t\tresult = transfer(_from,_to,_amount);\n\t\tassert (result);\n\t\treturn true;\n\t}\n\n\tfunction cashoutTokens(uint256 _amount) public returns(bool res){\n\t\tTokenStorage ts = TokenStorage(index.getContract('tokenS'));\n\t\tbool result = checkCustomer(msg.sender);\n\t\tassert (result);\n\t\tassert(ts.addCashOutAmount(msg.sender,_amount));\n\t\tassert(transfer(msg.sender,index.getContract('tokenS'),_amount));\n\t\treturn true;\n\t}\n\n\tfunction confirmCashOut (address _address,uint256 _amount) onlyUser public returns(bool res){\n\t\tTokenStorage ts = TokenStorage(index.getContract('tokenS'));\n\t\tassert(checkCustomer(_address));\n\t\tassert(ts.subTotalSupply(_amount));\n\t\tassert(ts.subCashOutAmount(_address,_amount));\n\t\tassert(ts.decreaseBalance(index.getContract('tokenS'),_amount));\n\t\treturn true;\n\t}\n\n\tfunction revertCashOut (address _address,uint256 _amount) onlyUser public  returns(bool res){\n\t\tTokenStorage ts = TokenStorage(index.getContract('tokenS'));\n\t\tassert(checkCustomer(_address));\n\t\tassert(ts.subCashOutAmount(_address,_amount));\n\t\tassert(ts.decreaseBalance(index.getContract('tokenS'),_amount));\n\t\tassert(ts.increaseBalance(_address,_amount));\n\t\treturn true;\n\t}\t\n}\n",
  "sourcePath": "/Users/rahulgolash/Rahul/Github/baeth/contracts/Token.sol",
  "compiler": {
    "name": "solc",
    "version": "0.4.23+commit.124ca40d.Emscripten.clang"
  },
  "schemaVersion": "2.0.0",
  "updatedAt": "2018-05-27T08:21:17.913Z"
}