{
  "contractName": "TokenStorage",
  "abi": [
    {
      "constant": true,
      "inputs": [],
      "name": "totalSupply",
      "outputs": [
        {
          "name": "",
          "type": "uint256"
        }
      ],
      "payable": false,
      "stateMutability": "view",
      "type": "function"
    },
    {
      "constant": true,
      "inputs": [
        {
          "name": "",
          "type": "address"
        }
      ],
      "name": "balances",
      "outputs": [
        {
          "name": "",
          "type": "uint256"
        }
      ],
      "payable": false,
      "stateMutability": "view",
      "type": "function"
    },
    {
      "constant": true,
      "inputs": [],
      "name": "balanceOf",
      "outputs": [
        {
          "name": "balance",
          "type": "uint256"
        }
      ],
      "payable": false,
      "stateMutability": "view",
      "type": "function"
    },
    {
      "constant": true,
      "inputs": [],
      "name": "getTotalSupply",
      "outputs": [
        {
          "name": "res",
          "type": "uint256"
        }
      ],
      "payable": false,
      "stateMutability": "view",
      "type": "function"
    },
    {
      "inputs": [
        {
          "name": "_indexAddress",
          "type": "address"
        }
      ],
      "payable": false,
      "stateMutability": "nonpayable",
      "type": "constructor"
    },
    {
      "anonymous": false,
      "inputs": [
        {
          "indexed": true,
          "name": "_address",
          "type": "address"
        },
        {
          "indexed": true,
          "name": "_escrow",
          "type": "address"
        }
      ],
      "name": "receivedfunds",
      "type": "event"
    },
    {
      "anonymous": false,
      "inputs": [
        {
          "indexed": true,
          "name": "_address",
          "type": "address"
        },
        {
          "indexed": false,
          "name": "_principal",
          "type": "uint256"
        },
        {
          "indexed": false,
          "name": "_penalty",
          "type": "uint256"
        }
      ],
      "name": "repayLoan",
      "type": "event"
    },
    {
      "anonymous": false,
      "inputs": [
        {
          "indexed": true,
          "name": "from",
          "type": "address"
        },
        {
          "indexed": true,
          "name": "to",
          "type": "address"
        },
        {
          "indexed": false,
          "name": "value",
          "type": "uint256"
        }
      ],
      "name": "Transfer",
      "type": "event"
    },
    {
      "constant": true,
      "inputs": [],
      "name": "getDecimals",
      "outputs": [
        {
          "name": "",
          "type": "uint8"
        }
      ],
      "payable": false,
      "stateMutability": "view",
      "type": "function"
    },
    {
      "constant": false,
      "inputs": [
        {
          "name": "_from",
          "type": "address"
        },
        {
          "name": "_to",
          "type": "address"
        },
        {
          "name": "_value",
          "type": "uint256"
        }
      ],
      "name": "emitTransfer",
      "outputs": [
        {
          "name": "res",
          "type": "bool"
        }
      ],
      "payable": false,
      "stateMutability": "nonpayable",
      "type": "function"
    },
    {
      "constant": false,
      "inputs": [
        {
          "name": "_address",
          "type": "address"
        },
        {
          "name": "_escrow",
          "type": "address"
        }
      ],
      "name": "emitReceivedFunds",
      "outputs": [
        {
          "name": "res",
          "type": "bool"
        }
      ],
      "payable": false,
      "stateMutability": "nonpayable",
      "type": "function"
    },
    {
      "constant": false,
      "inputs": [
        {
          "name": "_address",
          "type": "address"
        },
        {
          "name": "_amount",
          "type": "uint256"
        }
      ],
      "name": "setBalance",
      "outputs": [
        {
          "name": "res",
          "type": "bool"
        }
      ],
      "payable": false,
      "stateMutability": "nonpayable",
      "type": "function"
    },
    {
      "constant": true,
      "inputs": [
        {
          "name": "_address",
          "type": "address"
        }
      ],
      "name": "getBalance",
      "outputs": [
        {
          "name": "res",
          "type": "uint256"
        }
      ],
      "payable": false,
      "stateMutability": "view",
      "type": "function"
    },
    {
      "constant": false,
      "inputs": [
        {
          "name": "_address",
          "type": "address"
        },
        {
          "name": "_amount",
          "type": "uint256"
        }
      ],
      "name": "increaseBalance",
      "outputs": [
        {
          "name": "res",
          "type": "bool"
        }
      ],
      "payable": false,
      "stateMutability": "nonpayable",
      "type": "function"
    },
    {
      "constant": false,
      "inputs": [
        {
          "name": "_address",
          "type": "address"
        },
        {
          "name": "_amount",
          "type": "uint256"
        }
      ],
      "name": "decreaseBalance",
      "outputs": [
        {
          "name": "res",
          "type": "bool"
        }
      ],
      "payable": false,
      "stateMutability": "nonpayable",
      "type": "function"
    },
    {
      "constant": false,
      "inputs": [
        {
          "name": "_amount",
          "type": "uint256"
        }
      ],
      "name": "addTotalSupply",
      "outputs": [
        {
          "name": "res",
          "type": "bool"
        }
      ],
      "payable": false,
      "stateMutability": "nonpayable",
      "type": "function"
    },
    {
      "constant": false,
      "inputs": [
        {
          "name": "_amount",
          "type": "uint256"
        }
      ],
      "name": "subTotalSupply",
      "outputs": [
        {
          "name": "res",
          "type": "bool"
        }
      ],
      "payable": false,
      "stateMutability": "nonpayable",
      "type": "function"
    },
    {
      "constant": false,
      "inputs": [
        {
          "name": "_address",
          "type": "address"
        },
        {
          "name": "_amount",
          "type": "uint256"
        }
      ],
      "name": "addCashOutAmount",
      "outputs": [
        {
          "name": "res",
          "type": "bool"
        }
      ],
      "payable": false,
      "stateMutability": "nonpayable",
      "type": "function"
    },
    {
      "constant": false,
      "inputs": [
        {
          "name": "_address",
          "type": "address"
        },
        {
          "name": "_amount",
          "type": "uint256"
        }
      ],
      "name": "subCashOutAmount",
      "outputs": [
        {
          "name": "res",
          "type": "bool"
        }
      ],
      "payable": false,
      "stateMutability": "nonpayable",
      "type": "function"
    },
    {
      "constant": false,
      "inputs": [
        {
          "name": "_address",
          "type": "address"
        },
        {
          "name": "_amount",
          "type": "uint256"
        }
      ],
      "name": "setCashOutAmount",
      "outputs": [
        {
          "name": "res",
          "type": "bool"
        }
      ],
      "payable": false,
      "stateMutability": "nonpayable",
      "type": "function"
    },
    {
      "constant": true,
      "inputs": [
        {
          "name": "_address",
          "type": "address"
        }
      ],
      "name": "getCashOutAmount",
      "outputs": [
        {
          "name": "res",
          "type": "uint256"
        }
      ],
      "payable": false,
      "stateMutability": "view",
      "type": "function"
    },
    {
      "constant": false,
      "inputs": [
        {
          "name": "_address",
          "type": "address"
        },
        {
          "name": "_amount",
          "type": "uint256"
        }
      ],
      "name": "addRecoverAmount",
      "outputs": [
        {
          "name": "res",
          "type": "bool"
        }
      ],
      "payable": false,
      "stateMutability": "nonpayable",
      "type": "function"
    },
    {
      "constant": false,
      "inputs": [
        {
          "name": "_address",
          "type": "address"
        },
        {
          "name": "_amount",
          "type": "uint256"
        }
      ],
      "name": "subRecoverAmount",
      "outputs": [
        {
          "name": "res",
          "type": "bool"
        }
      ],
      "payable": false,
      "stateMutability": "nonpayable",
      "type": "function"
    },
    {
      "constant": false,
      "inputs": [
        {
          "name": "_address",
          "type": "address"
        },
        {
          "name": "_amount",
          "type": "uint256"
        }
      ],
      "name": "setRecoverAmount",
      "outputs": [
        {
          "name": "res",
          "type": "bool"
        }
      ],
      "payable": false,
      "stateMutability": "nonpayable",
      "type": "function"
    },
    {
      "constant": true,
      "inputs": [
        {
          "name": "_address",
          "type": "address"
        }
      ],
      "name": "getRecoverAmount",
      "outputs": [
        {
          "name": "res",
          "type": "uint256"
        }
      ],
      "payable": false,
      "stateMutability": "view",
      "type": "function"
    }
  ],
  "bytecode": "0x608060405260006001556002805460ff1916600f17905534801561002257600080fd5b506040516020806118a88339810160409081529051600154600160a060020a03338116600090815260208190529390932055908116151561006257600080fd5b60028054600160a060020a039092166101000261010060a860020a0319909216919091179055611811806100976000396000f30060806040526004361061011c5763ffffffff7c0100000000000000000000000000000000000000000000000000000000600035041663030d877c81146101215780630e0008501461015957806318160ddd1461018c5780631983fcb6146101a157806323de6651146101c857806324a4f959146101f257806327e235e3146102165780635b86f59914610237578063602a9ddb1461025b578063722713f71461027f57806382838c76146102945780639f534764146102ac578063a44c32b0146102d0578063a49361bf146102f4578063c4e41b2214610315578063e30443bc1461032a578063e468688e1461034e578063ea39704314610366578063f0141d841461038a578063f8b2cb4f146103b5578063ff056949146103d6575b600080fd5b34801561012d57600080fd5b50610145600160a060020a03600435166024356103fa565b604080519115158252519081900360200190f35b34801561016557600080fd5b5061017a600160a060020a0360043516610561565b60408051918252519081900360200190f35b34801561019857600080fd5b5061017a610695565b3480156101ad57600080fd5b50610145600160a060020a036004358116906024351661069b565b3480156101d457600080fd5b50610145600160a060020a03600435811690602435166044356107fc565b3480156101fe57600080fd5b50610145600160a060020a0360043516602435610969565b34801561022257600080fd5b5061017a600160a060020a0360043516610aa8565b34801561024357600080fd5b50610145600160a060020a0360043516602435610aba565b34801561026757600080fd5b50610145600160a060020a0360043516602435610c21565b34801561028b57600080fd5b5061017a610d91565b3480156102a057600080fd5b50610145600435610dad565b3480156102b857600080fd5b50610145600160a060020a0360043516602435610ee6565b3480156102dc57600080fd5b50610145600160a060020a0360043516602435611028565b34801561030057600080fd5b5061017a600160a060020a0360043516611161565b34801561032157600080fd5b5061017a611298565b34801561033657600080fd5b50610145600160a060020a036004351660243561129e565b34801561035a57600080fd5b506101456004356113d7565b34801561037257600080fd5b50610145600160a060020a03600435166024356113f9565b34801561039657600080fd5b5061039f61153e565b6040805160ff9092168252519081900360200190f35b3480156103c157600080fd5b5061017a600160a060020a0360043516611547565b3480156103e257600080fd5b50610145600160a060020a036004351660243561167b565b6040805180820182526005815260d960020a643a37b5b2b70260208201908152600254835160e060020a63b513b7a502815233600160a060020a038181166004840190815260248401978852865160448501528651600098899897610100909704939093169563b513b7a595889492606490910191908083838d5b8381101561048d578181015183820152602001610475565b50505050905090810190601f1680156104ba5780820380516001836020036101000a031916815260200191505b509350505050602060405180830381600087803b1580156104da57600080fd5b505af11580156104ee573d6000803e3d6000fd5b505050506040513d602081101561050457600080fd5b5051151561051157600080fd5b600160a060020a038516600090815260036020526040902054915061053c828563ffffffff6117bd16565b600160a060020a03861660009081526003602052604090205560019250505092915050565b6040805180820182526005815260d960020a643a37b5b2b70260208201908152600254835160e060020a63b513b7a502815233600160a060020a038181166004840190815260248401978852865160448501528651600098610100909604929092169563b513b7a595939488949293606490910191908083838d5b838110156105f45781810151838201526020016105dc565b50505050905090810190601f1680156106215780820380516001836020036101000a031916815260200191505b509350505050602060405180830381600087803b15801561064157600080fd5b505af1158015610655573d6000803e3d6000fd5b505050506040513d602081101561066b57600080fd5b5051151561067857600080fd5b5050600160a060020a031660009081526003602052604090205490565b60015481565b6040805180820182526005815260d960020a643a37b5b2b70260208201908152600254835160e060020a63b513b7a502815233600160a060020a038181166004840190815260248401978852865160448501528651600098610100909604929092169563b513b7a595939488949293606490910191908083838d5b8381101561072e578181015183820152602001610716565b50505050905090810190601f16801561075b5780820380516001836020036101000a031916815260200191505b509350505050602060405180830381600087803b15801561077b57600080fd5b505af115801561078f573d6000803e3d6000fd5b505050506040513d60208110156107a557600080fd5b505115156107b257600080fd5b82600160a060020a031684600160a060020a03167f77af85581545e3d52896ec8a21f21ab54c4c25525841b62bfa72ae5f4bea6ff260405160405180910390a35060019392505050565b6040805180820182526005815260d960020a643a37b5b2b70260208201908152600254835160e060020a63b513b7a502815233600160a060020a038181166004840190815260248401978852865160448501528651600098610100909604929092169563b513b7a595939488949293606490910191908083838d5b8381101561088f578181015183820152602001610877565b50505050905090810190601f1680156108bc5780820380516001836020036101000a031916815260200191505b509350505050602060405180830381600087803b1580156108dc57600080fd5b505af11580156108f0573d6000803e3d6000fd5b505050506040513d602081101561090657600080fd5b5051151561091357600080fd5b83600160a060020a031685600160a060020a03167fddf252ad1be2c89b69c2b068fc378daa952ba7f163c4a11628f55a4df523b3ef856040518082815260200191505060405180910390a3506001949350505050565b6040805180820182526005815260d960020a643a37b5b2b70260208201908152600254835160e060020a63b513b7a502815233600160a060020a038181166004840190815260248401978852865160448501528651600098610100909604929092169563b513b7a595939488949293606490910191908083838d5b838110156109fc5781810151838201526020016109e4565b50505050905090810190601f168015610a295780820380516001836020036101000a031916815260200191505b509350505050602060405180830381600087803b158015610a4957600080fd5b505af1158015610a5d573d6000803e3d6000fd5b505050506040513d6020811015610a7357600080fd5b50511515610a8057600080fd5b5050600160a060020a0391909116600090815260036020526040902060019081019190915590565b60006020819052908152604090205481565b6040805180820182526005815260d960020a643a37b5b2b70260208201908152600254835160e060020a63b513b7a502815233600160a060020a038181166004840190815260248401978852865160448501528651600098899897610100909704939093169563b513b7a595889492606490910191908083838d5b83811015610b4d578181015183820152602001610b35565b50505050905090810190601f168015610b7a5780820380516001836020036101000a031916815260200191505b509350505050602060405180830381600087803b158015610b9a57600080fd5b505af1158015610bae573d6000803e3d6000fd5b505050506040513d6020811015610bc457600080fd5b50511515610bd157600080fd5b600160a060020a0385166000908152602081905260409020549150610bfc828563ffffffff6117bd16565b600160a060020a03861660009081526020819052604090205560019250505092915050565b6040805180820182526005815260d960020a643a37b5b2b70260208201908152600254835160e060020a63b513b7a502815233600160a060020a038181166004840190815260248401978852865160448501528651600098899897610100909704939093169563b513b7a595889492606490910191908083838d5b83811015610cb4578181015183820152602001610c9c565b50505050905090810190601f168015610ce15780820380516001836020036101000a031916815260200191505b509350505050602060405180830381600087803b158015610d0157600080fd5b505af1158015610d15573d6000803e3d6000fd5b505050506040513d6020811015610d2b57600080fd5b50511515610d3857600080fd5b600160a060020a0385166000908152600360205260409020600101549150610d66828563ffffffff6117d316565b600160a060020a03861660009081526003602052604090206001908101919091559250505092915050565b600160a060020a03331660009081526020819052604090205490565b6040805180820182526005815260d960020a643a37b5b2b70260208201908152600254835160e060020a63b513b7a502815233600160a060020a038181166004840190815260248401978852865160448501528651600098899897610100909704939093169563b513b7a595889492606490910191908083838d5b83811015610e40578181015183820152602001610e28565b50505050905090810190601f168015610e6d5780820380516001836020036101000a031916815260200191505b509350505050602060405180830381600087803b158015610e8d57600080fd5b505af1158015610ea1573d6000803e3d6000fd5b505050506040513d6020811015610eb757600080fd5b50511515610ec457600080fd5b6001549150610ed9828563ffffffff6117d316565b6001908155949350505050565b6040805180820182526005815260d960020a643a37b5b2b70260208201908152600254835160e060020a63b513b7a502815233600160a060020a038181166004840190815260248401978852865160448501528651600098899897610100909704939093169563b513b7a595889492606490910191908083838d5b83811015610f79578181015183820152602001610f61565b50505050905090810190601f168015610fa65780820380516001836020036101000a031916815260200191505b509350505050602060405180830381600087803b158015610fc657600080fd5b505af1158015610fda573d6000803e3d6000fd5b505050506040513d6020811015610ff057600080fd5b50511515610ffd57600080fd5b600160a060020a038516600090815260036020526040902054915061053c828563ffffffff6117d316565b6040805180820182526005815260d960020a643a37b5b2b70260208201908152600254835160e060020a63b513b7a502815233600160a060020a038181166004840190815260248401978852865160448501528651600098610100909604929092169563b513b7a595939488949293606490910191908083838d5b838110156110bb5781810151838201526020016110a3565b50505050905090810190601f1680156110e85780820380516001836020036101000a031916815260200191505b509350505050602060405180830381600087803b15801561110857600080fd5b505af115801561111c573d6000803e3d6000fd5b505050506040513d602081101561113257600080fd5b5051151561113f57600080fd5b5050600160a060020a0391909116600090815260036020526040902055600190565b6040805180820182526005815260d960020a643a37b5b2b70260208201908152600254835160e060020a63b513b7a502815233600160a060020a038181166004840190815260248401978852865160448501528651600098610100909604929092169563b513b7a595939488949293606490910191908083838d5b838110156111f45781810151838201526020016111dc565b50505050905090810190601f1680156112215780820380516001836020036101000a031916815260200191505b509350505050602060405180830381600087803b15801561124157600080fd5b505af1158015611255573d6000803e3d6000fd5b505050506040513d602081101561126b57600080fd5b5051151561127857600080fd5b5050600160a060020a031660009081526003602052604090206001015490565b60015490565b6040805180820182526005815260d960020a643a37b5b2b70260208201908152600254835160e060020a63b513b7a502815233600160a060020a038181166004840190815260248401978852865160448501528651600098610100909604929092169563b513b7a595939488949293606490910191908083838d5b83811015611331578181015183820152602001611319565b50505050905090810190601f16801561135e5780820380516001836020036101000a031916815260200191505b509350505050602060405180830381600087803b15801561137e57600080fd5b505af1158015611392573d6000803e3d6000fd5b505050506040513d60208110156113a857600080fd5b505115156113b557600080fd5b5050600160a060020a0391909116600090815260208190526040902055600190565b6001546000906113ed818463ffffffff6117bd16565b60019081559392505050565b6040805180820182526005815260d960020a643a37b5b2b70260208201908152600254835160e060020a63b513b7a502815233600160a060020a038181166004840190815260248401978852865160448501528651600098899897610100909704939093169563b513b7a595889492606490910191908083838d5b8381101561148c578181015183820152602001611474565b50505050905090810190601f1680156114b95780820380516001836020036101000a031916815260200191505b509350505050602060405180830381600087803b1580156114d957600080fd5b505af11580156114ed573d6000803e3d6000fd5b505050506040513d602081101561150357600080fd5b5051151561151057600080fd5b600160a060020a0385166000908152600360205260409020600101549150610d66828563ffffffff6117bd16565b60025460ff1690565b6040805180820182526005815260d960020a643a37b5b2b70260208201908152600254835160e060020a63b513b7a502815233600160a060020a038181166004840190815260248401978852865160448501528651600098610100909604929092169563b513b7a595939488949293606490910191908083838d5b838110156115da5781810151838201526020016115c2565b50505050905090810190601f1680156116075780820380516001836020036101000a031916815260200191505b509350505050602060405180830381600087803b15801561162757600080fd5b505af115801561163b573d6000803e3d6000fd5b505050506040513d602081101561165157600080fd5b5051151561165e57600080fd5b5050600160a060020a031660009081526020819052604090205490565b6040805180820182526005815260d960020a643a37b5b2b70260208201908152600254835160e060020a63b513b7a502815233600160a060020a038181166004840190815260248401978852865160448501528651600098899897610100909704939093169563b513b7a595889492606490910191908083838d5b8381101561170e5781810151838201526020016116f6565b50505050905090810190601f16801561173b5780820380516001836020036101000a031916815260200191505b509350505050602060405180830381600087803b15801561175b57600080fd5b505af115801561176f573d6000803e3d6000fd5b505050506040513d602081101561178557600080fd5b5051151561179257600080fd5b600160a060020a0385166000908152602081905260409020549150610bfc828563ffffffff6117d316565b6000828201838110156117cc57fe5b9392505050565b6000828211156117df57fe5b509003905600a165627a7a7230582067575010c98217cd164e04e3b7740bc3c8cc88497ea861fdf5313379547aa4150029",
  "source": "pragma solidity ^0.4.23;\n\n\nimport \"./BasicToken.sol\";\nimport \"./SafeMath.sol\";\nimport \"./Index.sol\";\n\n\n\n/**\n * @title TokenDao\n * @dev The TokenDao is ownable, burnable main crypto token of BAETHe system.\n * and maintains the complete ledger as well\n */\ncontract TokenStorage is BasicToken{\n\n  using SafeMath for uint256;\n\n  uint8 private decimals = 15;                  //How many decimals to show.\n  Index private index;\n\n  struct pending{\n    uint256 cashout;\n    uint256 recover;\n  }\n\n  mapping (address => pending) pendingPayments;  \n\n  event receivedfunds(address indexed _address, address indexed _escrow);\n  event repayLoan(address indexed _address, uint256 _principal, uint256 _penalty);\n\n  function getDecimals() public view returns (uint8) { \n    return decimals;\n  }\n\n  constructor (address _indexAddress) public{\n    require(_indexAddress != 0x0);\n    index = Index(_indexAddress);\n  }  \n  \n  modifier onlySpecified(string _contractName) { \n    require (index.checkContract(msg.sender,_contractName)); \n    _; \n  }\n\n  function emitTransfer (address _from,address _to,uint256 _value) public onlySpecified('token') returns(bool res) {\n      emit Transfer(_from,_to,_value);\n      return true;\n  }\n  \n  function emitReceivedFunds (address _address,address _escrow) public onlySpecified('token') returns(bool res){\n    emit receivedfunds(_address,_escrow);\n    return true;\n  }\n  \n\n  //====================================================================================================================\n  //====================================================================================================================\n\n  // getters and setters\n\n\n  // =================================== BALANCE =======================================//\n\n  function setBalance (address _address,uint256 _amount) public onlySpecified('token') returns(bool res) {\n    balances[_address] = _amount;\n    return true;\n  }\n\n  function getBalance (address _address) public onlySpecified('token') view returns(uint256 res){\n    return balances[_address];\n  }\n\n  function increaseBalance (address _address,uint256 _amount)public onlySpecified('token') returns(bool res){\n    uint256 b = balances[_address];\n    balances[_address] = b.add(_amount);\n    return true;\n  }\n\n  function decreaseBalance (address _address,uint256 _amount)public onlySpecified('token') returns(bool res){\n    uint256 b = balances[_address];\n    balances[_address] = b.sub(_amount);\n    return true;\n  }\n\n  // ======================================== TOTAL SUPPLY ========================================//\n\n  function addTotalSupply (uint256 _amount)  public returns(bool res){\n    uint256 b = totalSupply;\n    totalSupply =  b.add(_amount);\n    return true;\n  }\n\n  function subTotalSupply (uint256 _amount) onlySpecified('token') public returns(bool res){\n    uint256 b = totalSupply;\n    totalSupply = b.sub(_amount);\n    return true;      \n  }\n\n  // ======================================== CASHOUT ======================================== //   \n\n  function addCashOutAmount (address _address,uint256 _amount)public onlySpecified('token') returns(bool res){\n    uint256 c = pendingPayments[_address].cashout;\n    pendingPayments[_address].cashout = c.add(_amount);      \n    return true;        \n  }\n\n  function subCashOutAmount (address _address,uint256 _amount)public onlySpecified('token') returns(bool res){\n    uint256 c = pendingPayments[_address].cashout;\n    pendingPayments[_address].cashout = c.sub(_amount);      \n    return true;        \n  }\n\n  function setCashOutAmount (address _address,uint256 _amount)public onlySpecified('token') returns(bool res){\n    pendingPayments[_address].cashout = _amount;      \n    return true;        \n  }\n\n  function getCashOutAmount (address _address)public view onlySpecified('token') returns(uint256 res){\n    return pendingPayments[_address].cashout;        \n  }\n\n  // ======================================== RECOVER ======================================== //\n\n  function addRecoverAmount (address _address,uint256 _amount)public onlySpecified('token') returns(bool res){\n    uint256 c = pendingPayments[_address].recover;\n    pendingPayments[_address].recover = c.add(_amount);      \n    return true;\n  }\n  \n  function subRecoverAmount (address _address,uint256 _amount)public onlySpecified('token') returns(bool res){\n    uint256 c = pendingPayments[_address].recover;\n    pendingPayments[_address].recover = c.sub(_amount);      \n    return true;\n  }\n\n  function setRecoverAmount (address _address,uint256 _amount)public onlySpecified('token') returns(bool res){\n    pendingPayments[_address].recover = _amount;      \n    return true;\n  }\n\n  function getRecoverAmount (address _address)public view onlySpecified('token') returns(uint256 res){\n    return pendingPayments[_address].recover;\n  }\n\n}",
  "sourcePath": "/Users/rahulgolash/Rahul/Github/BaETH/contracts/TokenStorage.sol",
  "compiler": {
    "name": "solc",
    "version": "0.4.23+commit.124ca40d.Emscripten.clang"
  },
  "schemaVersion": "2.0.0",
  "updatedAt": "2018-05-27T07:16:30.518Z"
}